:030000000204A552
:0100030032CA
:03000B000203FAF3
:0100130032BA
:01001B0032B2
:0100230032AA
:03002B000204418B
:10002E00C00078BE00000000D8FAD00022C000C088
:10003E0001793278DFD8FED9FADAF6D001D0002273
:10004E00D29112002EC29112002E22A2E79281A20C
:10005E00E69283A2E59285A2E4928712004EA2E375
:10006E009281A2E29283A2E19285A2E0928712008F
:10007E004E22D297020059C297020059C291C00275
:10008E007A2812003BD002743312008574331200AA
:10009E008574321200857428120085740C12008546
:1000AE007401120085C0027A0212003BD00222E4D3
:1000BE00936006120080A380F62244404480020022
:1000CE0085C0E0E8C4540F4430120080E8540F4459
:0700DE0030120080D0E02287
:1000E500C0E0C0D0C000C001C002C036C035C034B9
:1000F500C033E4F53BF53CF53DF53EF53F7A20E5AB
:1001050036A2E779047833E633F608D9FA79057823
:100115003BE636D4F608D9F9DAE5D033D034D03514
:10012500D036D002D001D000D0D0D0E022C0E0C07F
:10013500D0C000C001C002C03FC03EC03DC03CC0F1
:100145003B7A207905C3783FE613C0D030E7022417
:10015500D030E30224FDF618D0D0D9EC79047836F6
:10016500E613F618D9FADADBD200E53B7002C200D5
:10017500D03BD03CD03DD03ED03FD002D001D000C6
:10018500D0D0D0E022C0E0C0D0E5332537F533E547
:10019500343538F534E5353539F535E536353AF55F
:1001A500369200D0D0D0E022C0E0C0D0C3E5339570
:1001B50037F533E5349538F534E5359539F535E5D5
:1001C50036953AF5369200D0D0D0E022C0E0C0D0C6
:1001D500C3E5339537E5349538E5359539E53695F5
:1001E5003A9200D0D0D0E022C0E0C0D0C3E5379528
:1001F50033E5389534E5399535E53A95369200D0AD
:10020500D0D0E022C0E0C0D0C200C3E5379533703E
:1002150014E5389534700EE53995357008E53A954D
:10022500367002D200D0D0D0E0221202092000039D
:100235000201ED221202092000030201D122C0E0D1
:10024500C0F0C0D0C000C001C002C003C004C005DA
:10025500E5338537F0A4F8A9F0E5348537F0A4290E
:10026500F9E435F0FAE5338538F0A429F9E5F03AF3
:10027500FAE433FBE5358537F0A42AFAE5F03BFBD4
:10028500E5348538F0A42AFAE5F03BFBE5338539FA
:10029500F0A42AFAE5F03BFBE5368537F0A42BFB05
:1002A500ACF07D00E5358538F0A42BFBE5F03CFC92
:1002B500E43DFDE5348539F0A42BFBE5F03CFCE499
:1002C5003DFDE533853AF0A42BFBE5F03CFCE43D30
:1002D500FDEC4DFCE5368538F0A445F04CFCE535E4
:1002E5008539F0A445F04CFCE534853AF0A445F099
:1002F5004CFCE5368539F0A445F04CFCE535853AEE
:10030500F0A445F04CFCE536853AF0A445F04CFCEC
:100315008B368A3589348833D200BC0002C200D0BE
:1003250005D004D003D002D001D000D0D0D0F0D079
:10033500E022C0E0C0D0C000C001C002C003C004BC
:10034500E53745384539453A7005D2000203A2C262
:10035500007C20E4F8F9FAFBC3E53333F533E534E3
:1003650033F534E53533F535E53633F536E833F829
:10037500E933F9EA33FAEB33FBC3E89537E9953806
:10038500EA9539EB953A4013E89537F8E99538F948
:10039500EA9539FAEB953AFB433301DCBBD004D03F
:1003A50003D002D001D000D0D0D0E02285333785EC
:1003B500343885353985363A22E533C537F533E5A1
:1003C50034C538F534E535C539F535E536C53AF57D
:0203D5003622CE
:1003D700696E697469616C206D6573736167650027
:1003E700E58954F04401F589758CFD758A5AD2A9BF
:1003F700D28C22758CFD758A5AB29532C28E53897A
:100407000F438920438780758DFD758BFDD28E75CF
:1004170098522210990280FBF59922E49360061204
:10042700041AA380F62275C80075CDF575CC27751B
:10043700CBF575CA27D2ADD2CA22C2CFB291055E1B
:10044700055FD202D0D0D0E032C0F9A4B099928231
:10045700F880908883C6A1868E900450E8C4540F14
:1004670093F592E8540F93F59122900450E8C45401
:100477000F93F594E8540F93F59322900450E8C432
:10048700540F93F58FE8540F93F58E2275F064841B
:10049700F9E5F075F00A84C454F045F0F822758147
:1004A7007F1203E712042D12008A120403759A7F44
:1004B700759B2A759CFF759DFF75E800759500D2A1
:1004C700AF756000756100755E00755F00C0E07410
:1004D70001141200CAD0E0C083C082C0E09003D7E5
:1004E7001200BDD0E0D082D08375620075630075BD
:1004F7006400756500755A00755A00755A02755A79
:10050700EEE560B4000A20F92D755E0005608026CF
:10051700B40109E55EB4321E0560801AB4020C20EE
:10052700F90405608010756000800BB4030830F98A
:1005370005D20A756000E561B4000CE55FB4FA45C1
:10054700755F000561803EB4010ED2E9E55FB4FA3C
:1005570034755F000561802DB4020ED2EAE55FB401
:10056700FA23755F000561801CB40319D2EBE55FC0
:10057700B4FA12755F00756100E530B43B0575305C
:100587000080020530300205120597D2ED020508FA
:10059700C202856233856334856435856536753770
:1005A700DB753805753900753A001202092000110C
:1005B700753701753800753900753A0012018A8060
:1005C7000C753300753400753500753600855A375C
:1005D700855B38855C39855D3A1201D1200006C2FA
:1005E70093C2EC8004D293D2EC8533628534638561
:0605F70035648536652223
:00000001FF
