:030000000214FFE8
:0100030032CA
:03000B0002046E7E
:0100130032BA
:01001B0032B2
:0100230032AA
:03002B000206BC0E
:10002E00C0E0C0D0C000C001C002C03DC03CC03B5B
:10003E00C03AE4F542F543F544F545F5467A20E538
:10004E003DA2E77904783AE633F608D9FA790578CD
:10005E0042E636D4F608D9F9DAE5D03AD03BD03CB0
:10006E00D03DD002D001D000D0D0D0E022C0E0C030
:10007E00D0C000C001C002C046C045C044C043C08D
:10008E00427A207905C37846E613C0D030E70224C1
:10009E00D030E30224FDF618D0D0D9EC7904783DA7
:1000AE00E613F618D9FADADBD200E5427002C20086
:1000BE00D042D043D044D045D046D002D001D0005B
:1000CE00D0D0D0E022C0E0C0D0E53A253EF53AE5EA
:1000DE003B353FF53BE53C3540F53CE53D3541F5DF
:1000EE003D9200D0D0D0E022C0E0C0D0C3E53A951A
:1000FE003EF53AE53B953FF53BE53C9540F53CE555
:10010E003D9541F53D9200D0D0D0E022C0E0C0D068
:10011E00C3E53A953EE53B953FE53C9540E53D957B
:10012E00419200D0D0D0E022C0E0C0D0C3E53E95D1
:10013E003AE53F953BE540953CE541953D9200D033
:10014E00D0D0E022C0E0C0D0C200C3E53E953A70E8
:10015E0014E53F953B700EE540953C7008E54195E2
:10016E003D7002D200D0D0D0E02212015220000306
:10017E000201362212015220000302011A22C0E0AF
:10018E00C0F0C0D0C000C001C002C003C004C00592
:10019E00E53A853EF0A4F8A9F0E53B853EF0A429AA
:1001AE00F9E435F0FAE53A853FF0A429F9E5F03A9D
:1001BE00FAE433FBE53C853EF0A42AFAE5F03BFB7E
:1001CE00E53B853FF0A42AFAE5F03BFBE53A854096
:1001DE00F0A42AFAE5F03BFBE53D853EF0A42BFBAF
:1001EE00ACF07D00E53C853FF0A42BFBE5F03CFC3C
:1001FE00E43DFDE53B8540F0A42BFBE5F03CFCE443
:10020E003DFDE53A8541F0A42BFBE5F03CFCE43DD9
:10021E00FDEC4DFCE53D853FF0A445F04CFCE53C86
:10022E008540F0A445F04CFCE53B8541F0A445F03B
:10023E004CFCE53D8540F0A445F04CFCE53C854189
:10024E00F0A445F04CFCE53D8541F0A445F04CFC96
:10025E008B3D8A3C893B883AD200BC0002C200D05A
:10026E0005D004D003D002D001D000D0D0D0F0D031
:10027E00E022C0E0C0D0C000C001C002C003C00474
:10028E00E53E453F454045417005D2000202EBC2B6
:10029E00007C20E4F8F9FAFBC3E53A33F53AE53B86
:1002AE0033F53BE53C33F53CE53D33F53DE833F8BE
:1002BE00E933F9EA33FAEB33FBC3E8953EE9953FB0
:1002CE00EA9540EB95414013E8953EF8E9953FF9E4
:1002DE00EA9540FAEB9541FB433A01DCBBD004D0E2
:1002EE0003D002D001D000D0D0D0E022853A3E8596
:1002FE003B3F853C40853D4122E53AC53EF53AE51A
:10030E003BC53FF53BE53CC540F53CE53DC541F5FC
:02031E003D227E
:10032000696E697469616C206D65737361676500DE
:1003300057656C636F6D65202020202020202000F1
:1003400050726573732050423020202020202000FE
:1003500053656C656374204D6F64653A20202020DE
:100360000053657420536F616B2054656D702020BD
:10037000200053657420536F616B2054696D6520B4
:10038000202000536574205265666C6F7720546599
:100390006D702000536574205265666C6F77205431
:1003A000696D65200053657420506172616D6574DC
:1003B0006572732000536F616B2054656D703A0055
:1003C0005265666C6F772054656D703A00536F61AB
:1003D0006B2054696D653A005265666C6F772054E6
:1003E000696D653A0054656D703A200052616D7018
:1003F00020746F20536F616B20202000536F616B5E
:1004000020506861736520202020200052616D70AB
:1004100020746F205265666C6F7720005265666CA1
:100420006F7720506861736520202000436F6F6CE8
:10043000696E6720202020202020200050726F63EA
:1004400065737320446F6E652020200020202020DB
:1004500020202020202020202020202000E589545A
:10046000F04401F589758CFD758A5AD2A922758CE4
:10047000FD758A5AB29532C28E53890F4389204343
:100480008780758DFD758BFDD28E759852221099DF
:100490000280FBF59922E493600612048EA380F695
:1004A00022309806E599C298D322C322E57E7034A3
:1004B0001204A1502FF5F0B40D0280F4B40A0FE538
:1004C0007D2492F87600757E01757D008016E57DAD
:1004D000B42705757D00800CE57D2492F8E5F0F6E3
:1004E000057D80CC22E6F70809E6F70809E6F7095A
:1004F000770022E6F70809E6F70809E6F70809E6B3
:10050000F709770022E57E700122757E007892E679
:10051000B45502801CB45202801AB453028018B43D
:100520004B028016B44C028014B4430280120206BF
:100530002E02054302055D0205970205CB0205DD8B
:100540000205EF7892E6B4551108E6B4490C08E6C6
:10055000B43A0708E6B45202800002062E789208E8
:10056000E6B43A080879891204E58002800302069D
:100570002E789208E6B4551C08E6B44E1708E6B487
:100580003A1208E6B43105020EA48008B430050220
:100590000E77800002062E789208E6B43A080879B1
:1005A000801204E58002800302062E789208E6B4E9
:1005B000411608E6B4561108E6B4450C08E6B43A0C
:1005C0000708E6B43102800002062E789208E6B4ED
:1005D0003A080879841204F3800002062E78920803
:1005E000E6B43A0808798D1204F3800002062E78EA
:1005F00092E6B4433608E6B4463108E6B4472C0820
:10060000E6B43A2208E6B4412208E6B4501D08E6F2
:10061000B4501808E6B44C1308E6B4590E120F4E45
:10062000D20FD2248005B42002800002062E22744C
:10063000AA12048E745512048EE53D12048EE53C18
:1006400012048EE53B12048EE53A12048E740A12EF
:10065000048E229003E512049685473A85483B852F
:10066000493C854A3D12002E7F00E543540F600748
:10067000243012048E7F01E542C4540F7003EF60F2
:100680000CE542C4540F243012048E7F01E542541D
:100690000F243012048E744312048E740D12048ED3
:1006A000740A12048E2275C80075CDF575CC2775B5
:1006B000CBF575CA27C2CFD2ADD2CA22C0E0C0D016
:1006C000C2CF056FD202D203D218D22605710573AC
:1006D000057B301C0B0553E553B41904D21DC21C15
:1006E000301E0B0554E554B41904D21FC21E30202D
:1006F0000B0555E555B41904D221C22030220B0553
:1007000056E556B41904D223C222301A0B0557E518
:0D07100057B41904D21BC21AD0D0D0E03269
:10071D00C00078BE00000000D8FAD00022C000C092
:10072D0001793278DFD8FED9FADAF6D001D000227D
:10073D00D29112071DC29112071D22A2E79281A22A
:10074D00E69283A2E59285A2E4928712073DA2E389
:10075D009281A2E29283A2E19285A2E09287120792
:10076D003D22D297020748C297020748C291C002A4
:10077D007A2812072AD002743312077474331207C1
:10078D007474321207747428120774740C1207747F
:10079D007401120774C0027A0212072AD00222E4F1
:1007AD0093600612076FA380F6224440448002072F
:1007BD0074C0E0E8C4540F443012076FE8540F447E
:1007CD003012076FD0E022C0F9A4B0999282F88060
:1007DD00908883C6A1868E9007D4E8C4540F93F5F4
:1007ED0092E8540F93F591229007D4E8C4540F93D7
:1007FD00F594E8540F93F593229007D4E8C4540F61
:10080D0093F58FE8540F93F58E2275F06484F9E516
:10081D00F075F00A84C454F045F0F822120817E878
:10082D00C4540F243012076FE8540F243012076F91
:10083D0022C0E0300F04C20F800302097E120B119B
:10084D00E560B4003BC0E07401141207B9D0E0C0FC
:10085D0083C082C0E09003301207ACD0E0D082D0CC
:10086D0083C0E07401141207B7D0E0C083C082C00A
:10087D00E09003401207ACD0E0D082D08302097B18
:10088D00B4011FC0E07401141207B9D0E0C083C0D9
:10089D0082C0E09003A51207ACD0E0D082D08302D5
:1008AD00097BB4021FC0E07401141207B9D0E0C077
:1008BD0083C082C0E09003EC1207ACD0E0D082D0B0
:1008CD008302099EB4031FC0E07401141207B9D04E
:1008DD00E0C083C082C0E09003FC1207ACD0E0D032
:1008ED0082D08302099EB4041FC0E0740114120764
:1008FD00B9D0E0C083C082C0E090040C1207ACD028
:10090D00E0D082D08302099EB4051FC0E0740114AB
:10091D001207B9D0E0C083C082C0E090041C12075A
:10092D00ACD0E0D082D08302099EB4061FC0E07423
:10093D0001141207B9D0E0C083C082C0E090042C2E
:10094D001207ACD0E0D082D08302099EB4071FC03D
:10095D00E07401141207B9D0E0C083C082C0E090EA
:10096D00043C1207ACD0E0D082D08302097B02098F
:10097D00FF3001FAC201E560B402028014B4030233
:10098D00800FB40402800AB405028005B4066380AA
:10099D0000C0E07401141207B7D0E085473A8548CE
:1009AD003B85493C854A3D12002E120B3CE54354D4
:1009BD000F243012076FE542C4540F243012076F15
:1009CD00E542540F243012076F744312076F7420E1
:1009DD0012076F12076FC0E0740C141207B7D0E046
:1009ED00E531120829743A12076FE5301208291201
:1009FD000653D0E022E560B401028001223024FCD0
:100A0D00C224120B11C0E07401141207B9D0E0E535
:100A1D0061B40013C083C082C0E09003501207ACD4
:100A2D00D0E0D082D08322B40114C083C082C0E054
:100A3D009003611207ACD0E0D082D0838042B40223
:100A4D0014C083C082C0E09003721207ACD0E0D016
:100A5D0082D0838046B40314C083C082C0E090036B
:100A6D00831207ACD0E0D082D0838014C083C082C3
:100A7D00C0E09003941207ACD0E0D082D083801BED
:100A8D00C0E07401141207B7D0E0120B25120B074A
:100A9D00C0E0744312076FD0E08034C0E0740114DD
:100AAD001207B7D0E0120B25E612076F08E6120702
:100ABD006F08C0E0743A12076FD0E0E612076F08B6
:100ACD00E612076FC0E0747312076FD0E08000E587
:100ADD0061B40202800CB404028007E56A24C012DE
:100AED000774E56AB4020104C394024005E56A0483
:100AFD008002E56A24C012077422E6600612076FB1
:100B0D000880F7227401120774C0027A0212072AB4
:100B1D00D002740C12077422E561B40103788022AF
:100B2D00B40203788422B40303788922788D22904D
:100B3D0007D4E543540F93F593E542C4540F93F551
:100B4D0092E542540F93F59122E572B4000A20907C
:100B5D002F75710005728028B40109E571B432203A
:100B6D000572801CB4020C209004057280127572FF
:100B7D0000800DB4030A309007D215B2ED757200E6
:100B8D0022E574B4000A20B72D7573000574802614
:100B9D00B40109E573B4321E0574801AB4020C2039
:100BAD00B70405748010757400800BB4030830B75A
:100BBD0005D21775740022E570B4000CE56FB4FA18
:100BCD0051756F000570804AB4010ED2E9E56FB41E
:100BDD00FA40756F0005708039B4020ED2EAE56FE8
:100BED00B4FA2F756F0005708028B40325D2EBE59C
:100BFD006FB4FA1E756F00757000D204D201B2E8A1
:100C0D00300D0FE53004B43C07753000053180021E
:100C1D00F53022C0E0C0D0E560B4020F10110280A3
:100C2D000F753000753100D20D8005B40602C20D6E
:100C3D00D0D0D0E022C0E0C0D0E560B4032E1010BB
:100C4D00028015E5312533F537E5302532F536C30C
:100C5D00943C4004F5360537E531C39537403E7079
:100C6D0007E530C395364035D2088031E560B405CF
:100C7D002C1010028015E5312535F539E530253478
:100C8D00F538C3943C4004F5380539E531C3953941
:100C9D00400B7007E530C395384002D209D0D0D053
:100CAD00E022C0E0C0D0C000C001C002E560B402C7
:100CBD0002800AB40402801DB4064D803078477955
:100CCD003A120D20784B793E120D2012011A200098
:100CDD0037D20580337847793A120D20784F793E17
:100CED00120D2012011A20001FD206801B784779A1
:100CFD003A120D20753E64753F0075400075410038
:100D0D0012011A300002D207D002D001D000D0D08B
:100D1D00D0E0227A04E6F70809DAFA2210020280FE
:100D2D0071C200855C3A855D3B855E3C855F3D7596
:100D3D003EDB753F057540007541001201522000E4
:100D4D001D753E01753F007540007541001200D3C1
:100D5D00853A5C853B5D853C5E853D5F8018753AC7
:100D6D0000753B00753C00753D00853A5C853B5D2B
:100D7D00853C5E853D5F85583E85593F855A40854A
:100D8D005B4112011A200006C293C2EC8004D2937B
:100D9D00D2EC22C0E0C0D0C000C001E560B40202B8
:100DAD008003020DE8201333301430E531602CC27E
:100DBD00147847793A120D20753E32753F00754013
:100DCD000075410012011A300011C293D213D20BDB
:100DDD00120E25756000756100D20FD001D000D0C4
:100DED00D0D0E022C0E0C0D030130A20191BD21998
:100DFD00120E258014301211E560B40607C21212CE
:100E0D000E208005C212120E1BD0D0D0E0227575B7
:100E1D0001800A757505800575750A8000C28C758F
:100E2D007601757700757800D2A9D28C22301835ED
:100E3D00C218E576602F0577E57770020578E578BD
:100E4D006023757700757800E576B40106C28C7560
:100E5D007602221575E5756006757601D28C22C273
:100E6D008C7576002222E5608008756000D20FD265
:100E7D001022B40017C219301504C2158001227555
:100E8D006001756100D20FD210D21222B40116305A
:100E9D001504C215800122756002D20FD210D21135
:100EAD00D212C20522B4021C301705C217020F1F41
:100EBD00300506C205C208800122756003D20FD22B
:100ECD0010D21222B4031A301705C217020F1F30A9
:100EDD000804C208800122756004D20FD210D2120C
:100EED0022B4041C301705C217020F1F300606C2AC
:100EFD0006C209800122756005D20FD210D21222CE
:100F0D00B4051D301704C2178008300904C20980CA
:100F1D000122756006D20FD210D211D212C2072251
:100F2D00B40612300704C207800122756007D20F84
:100F3D00D210D21222B407081015028003020E77C8
:100F4D0022C0E0C006C007E560B401327880120F00
:100F5D00928F4B754C00754D00754E007889120FB0
:100F6D00928F4F7550007551007552007884120F95
:100F7D00A68F338E32788D120FA68F358E34D00713
:100F8D00D006D0E0227F00E6600EC39430FDEF75F1
:100F9D00F00AA42DFF0880EF22E6C3943075F00A05
:100FAD00A4FD08E6C394302DFD08E6C3943075F01A
:100FBD000AA4FC08E6C394302CFCEDFFECFE2212D3
:100FCD0011AA50FB22C0E0C0D0E560B401074380F8
:100FDD0055E57A800302108CB4002A30800C3082E3
:100FED000E30841030861202108C757C01800F75C6
:100FFD007C02800A757C038005757C048000757BFE
:10100D0000057A807AB40109E57BB43272057A80E5
:10101D006EB40226E57CB4010530801A8013B4024B
:10102D0005308212800BB4030530840A80033086AC
:10103D0005757A008049057A8045B40342E57CB494
:10104D00010530803A8013B40205308232800BB432
:10105D00030530842A8003308625E57CB4010575AF
:10106D0061018013B40205756102800BB40305752F
:10107D0061038003756104756A00D224757A00D00E
:10108D00D0D0E022E560B40152E561604E1210E966
:10109D005049EFB40E091211EDD224756A0022EFFA
:1010AD00B40C0122EFC3940A5030EF2430FD120B23
:1010BD0025E56A28F8EDF6056AE561B401028005BB
:1010CD00B4030B8000E56AB4030D156A8009E56A67
:1010DD00B40404156A8000D224222222C292C29442
:1010ED00C296C2A0A2A282A482A682B05002C3223E
:1010FD00120FCCA2A282A482A682B05002C322D229
:10110D0092D294D296D2A0C29230A23D30A43E305B
:10111D00A63F30B040D292C29430A23D30A43E30B2
:10112D00A63F30B040D294C29630A23D30A43E309E
:10113D00A63F30B040D296C2A030A23D30A43E3082
:10114D00A63F30B040D2A0C3227F01803C7F0280F9
:10115D00387F0380347F0A80307F04802C7F0580A8
:10116D00287F0680247F0B80207F07801C7F0880CE
:10117D00187F0980147F0D80107F0E800C7F0080FA
:10118D00087F0C80047F0F8000A2A282A482A68219
:10119D00B050F6D3D292D294D296D2A022201A0E6B
:1011AD00301B04C21BD322755700D21AC322C3228F
:1011BD0078801211D278891211D278841211DE78CA
:1011CD008D1211DE227630087630087630087600E2
:1011DD002276300876300876300876300876002290
:1011ED00E561B4010678801211D222B4020678842A
:1011FD001211DE22B4030678891211D222788D12D3
:10120D0011DE221211AA400122E5885410C0E0C25D
:10121D008C75A180000075A1017DFA0000DDFC85B3
:10122D00A23A85A33B753C00753D00E53B540FF597
:10123D003BD0E06002D28C753E16753F10754000B4
:10124D0075410012018C75A10485A23E85A33F75E1
:10125D00400075410075A100120280753E64753F16
:10126D000075400075410012018C753E2B753F05D0
:10127D00754000754100120280753E14753F007572
:10128D0040007541001200D3853A47853B48853CA7
:10129D0049853D4A22755800755900755A00755B90
:1012AD0000E560B402028016B4030520050F801B13
:1012BD00B404028009B40505200602800E2275587B
:1012CD00DC755905755A00755B002275582C7559DA
:1012DD0001755A00755B0022E560B40004C22780D9
:1012ED002CB40104D2278025B40204C227801EB479
:1012FD000304C2278017B40404C2278010B4050468
:10130D00C2278009B40604C2278002D22710260105
:10131D002212132222D2EDC0E0C0D0E57904B4141C
:10132D00027400F579202709E579C39402400B80FA
:10133D000DE579C3940140028004D2B68002C2B695
:10134D00D0D0D0E022E560B4000F7558007559007B
:10135D00755A00755B000214FEB4010F75580075C7
:10136D005900755A00755B000214FEB4020F7558D2
:10137D00DC755905755A00755B000214FEB4030245
:10138D0080030214BC854B3A854C3B854D3C854E04
:10139D003D85473E85483F854940854A41C20012FB
:1013AD00017810002BC228854B3E854C3F854D4062
:1013BD00854E4185473A85483B85493C854A3D12D6
:1013CD0000F6853A62853B63853C64853D658011F9
:1013DD00D2281200F6853A62853B63853C64853DD3
:1013ED006585623A85633B85643C85653D753E0543
:1013FD00753F0075400075410012018C853A668578
:10140D003B67853C68853D6930282985663A856747
:10141D003B85683C85693D753E2C753F01754000E7
:10142D007541001200D3853A66853B67853C68851A
:10143D003D69803D753A2C753B01753C00753D004D
:10144D0085663E85673F856840856941C20012010A
:10145D001A30000E756600756700756800756900B5
:10146D00800F1200F6853A66853B67853C68853DA1
:10147D006985663A85673B85683C85693D753EDCC7
:10148D00753F05754000754100C200120136200000
:10149D000F85665885675985685A85695B0214FE04
:1014AD007558DC755905755A00755B000214FEB44C
:1014BD00040F7558DC755905755A00755B000214DB
:1014CD00FEB4050F75582C755901755A00755B00E2
:1014DD000214FEB4060F755800755900755A007543
:1014ED005B000214FE755800755900755A00755B46
:1014FD000022C2AF7581C078FA79FFD9FED8FA758E
:10150D009AAA759BFE759C01759D0075E8007595F1
:10151D0000D2AF757000756000756100756F007554
:10152D003000753100753200753300753400753536
:10153D0000753600753700753800753900755C001B
:10154D00755D00755E00755F00755B00755A007501
:10155D0059027558EE7572007574007571007573CA
:10156D0000757600757500757700757800757A00D1
:10157D00757B00757C00757900757D00757E00C2E8
:10158D0018C28CC295C219C213C20BC215C216C2A3
:10159D0017C201C204C20EC20DC224C205C208C2C6
:1015AD0006C209C207C210C211C212C226C229D276
:1015BD000FD21412045D1206A61207791211BD1274
:1015CD000477120BC4120E73120B56120B8E1212DD
:1015DD0010120CAF121352120DA0120C20120F4E3E
:1015ED001204AC120505120A02120FD2121091123A
:1015FD00083E120C42120D29120E3A1212E5120D6E
:04160D00F10215CF02
:00000001FF
