:0300000002136D7B
:0100030032CA
:03000B0002046E7E
:0100130032BA
:01001B0032B2
:0100230032AA
:03002B0002052E9D
:10002E00C0E0C0D0C000C001C002C03DC03CC03B5B
:10003E00C03AE4F542F543F544F545F5467A20E538
:10004E003DA2E77904783AE633F608D9FA790578CD
:10005E0042E636D4F608D9F9DAE5D03AD03BD03CB0
:10006E00D03DD002D001D000D0D0D0E022C0E0C030
:10007E00D0C000C001C002C046C045C044C043C08D
:10008E00427A207905C37846E613C0D030E70224C1
:10009E00D030E30224FDF618D0D0D9EC7904783DA7
:1000AE00E613F618D9FADADBD200E5427002C20086
:1000BE00D042D043D044D045D046D002D001D0005B
:1000CE00D0D0D0E022C0E0C0D0E53A253EF53AE5EA
:1000DE003B353FF53BE53C3540F53CE53D3541F5DF
:1000EE003D9200D0D0D0E022C0E0C0D0C3E53A951A
:1000FE003EF53AE53B953FF53BE53C9540F53CE555
:10010E003D9541F53D9200D0D0D0E022C0E0C0D068
:10011E00C3E53A953EE53B953FE53C9540E53D957B
:10012E00419200D0D0D0E022C0E0C0D0C3E53E95D1
:10013E003AE53F953BE540953CE541953D9200D033
:10014E00D0D0E022C0E0C0D0C200C3E53E953A70E8
:10015E0014E53F953B700EE540953C7008E54195E2
:10016E003D7002D200D0D0D0E02212015220000306
:10017E000201362212015220000302011A22C0E0AF
:10018E00C0F0C0D0C000C001C002C003C004C00592
:10019E00E53A853EF0A4F8A9F0E53B853EF0A429AA
:1001AE00F9E435F0FAE53A853FF0A429F9E5F03A9D
:1001BE00FAE433FBE53C853EF0A42AFAE5F03BFB7E
:1001CE00E53B853FF0A42AFAE5F03BFBE53A854096
:1001DE00F0A42AFAE5F03BFBE53D853EF0A42BFBAF
:1001EE00ACF07D00E53C853FF0A42BFBE5F03CFC3C
:1001FE00E43DFDE53B8540F0A42BFBE5F03CFCE443
:10020E003DFDE53A8541F0A42BFBE5F03CFCE43DD9
:10021E00FDEC4DFCE53D853FF0A445F04CFCE53C86
:10022E008540F0A445F04CFCE53B8541F0A445F03B
:10023E004CFCE53D8540F0A445F04CFCE53C854189
:10024E00F0A445F04CFCE53D8541F0A445F04CFC96
:10025E008B3D8A3C893B883AD200BC0002C200D05A
:10026E0005D004D003D002D001D000D0D0D0F0D031
:10027E00E022C0E0C0D0C000C001C002C003C00474
:10028E00E53E453F454045417005D2000202EBC2B6
:10029E00007C20E4F8F9FAFBC3E53A33F53AE53B86
:1002AE0033F53BE53C33F53CE53D33F53DE833F8BE
:1002BE00E933F9EA33FAEB33FBC3E8953EE9953FB0
:1002CE00EA9540EB95414013E8953EF8E9953FF9E4
:1002DE00EA9540FAEB9541FB433A01DCBBD004D0E2
:1002EE0003D002D001D000D0D0D0E022853A3E8596
:1002FE003B3F853C40853D4122E53AC53EF53AE51A
:10030E003BC53FF53BE53CC540F53CE53DC541F5FC
:02031E003D227E
:10032000696E697469616C206D65737361676500DE
:1003300057656C636F6D65202020202020202000F1
:1003400050726573732050423020202020202000FE
:1003500053656C656374204D6F64653A20202020DE
:100360000053657420536F616B2054656D702020BD
:10037000200053657420536F616B2054696D6520B4
:10038000202000536574205265666C6F7720546599
:100390006D702000536574205265666C6F77205431
:1003A000696D65200053657420506172616D6574DC
:1003B0006572732000536F616B2054656D703A0055
:1003C0005265666C6F772054656D703A00536F61AB
:1003D0006B2054696D653A005265666C6F772054E6
:1003E000696D653A0054656D703A200052616D7018
:1003F00020746F20536F616B20202000536F616B5E
:1004000020506861736520202020200052616D70AB
:1004100020746F205265666C6F7720005265666CA1
:100420006F7720506861736520202000436F6F6CE8
:10043000696E6720202020202020200050726F63EA
:1004400065737320446F6E652020200020202020DB
:1004500020202020202020202020202000E589545A
:10046000F04401F589758CFD758A5AD2A922758CE4
:10047000FD758A5AB29532C28E53890F4389204343
:100480008780758DFD758BFDD28E759852221099DF
:100490000280FBF59922E493600612048EA380F695
:1004A0002274AA12048E745512048EE53D12048E35
:1004B000E53C12048EE53B12048EE53A12048E747C
:1004C0000A12048E229003E512049685473A854865
:1004D0003B85493C854A3D12002E7F00E543540F81
:1004E0006007243012048E7F01E542C4540F70036C
:1004F000EF600CE542C4540F243012048E7F01E5F6
:1005000042540F243012048E744312048E740D1260
:10051000048E740A12048E2275C80075CDF575CC50
:100520002775CBF575CA27C2CFD2ADD2CA22C0E09B
:10053000C0D0C2CF056FD202D203D21805710573A5
:100540000576D218D226301C0B0553E553B4190496
:10055000D21DC21C301E0B0554E554B41904D21F21
:10056000C21E30200B0555E555B41904D221C22016
:1005700030220B0556E556B41904D223C222301A94
:100580000B0557E557B41904D21BC21AD0D0D0E0DE
:010590003238
:10059100C00078BE00000000D8FAD00022C000C020
:1005A10001793278DFD8FED9FADAF6D001D000220B
:1005B100D291120591C29112059122A2E79281A2D4
:1005C100E69283A2E59285A2E492871205B1A2E3A5
:1005D1009281A2E29283A2E19285A2E09287120522
:1005E100B122D2970205BCC2970205BCC291C002DA
:1005F1007A2812059ED00274331205E8743312056D
:10060100E874321205E874281205E8740C1205E842
:1006110074011205E8C0027A0212059ED00222E49A
:100621009360061205E3A380F6224440448002054C
:10063100E8C0E0E8C4540F44301205E3E8540F4425
:10064100301205E3D0E022C0F9A4B0999282F8807B
:10065100908883C6A1868E900648E8C4540F93F50E
:1006610092E8540F93F59122900648E8C4540F93F1
:10067100F594E8540F93F59322900648E8C4540F7B
:1006810093F58FE8540F93F58E2275F06484F9E5A4
:10069100F075F00A84C454F045F0F82212068BE894
:1006A100C4540F24301205E3E8540F24301205E33B
:1006B10022C0E0300F04C20F80030207F212098545
:1006C100E560B4003BC0E074011412062DD0E0C017
:1006D10083C082C0E0900330120620D0E0D082D0E7
:1006E10083C0E074011412062BD0E0C083C082C025
:1006F100E0900340120620D0E0D082D0830207EFC1
:10070100B4011FC0E074011412062DD0E0C083C0F3
:1007110082C0E09003A5120620D0E0D082D08302EF
:1007210007EFB4021FC0E074011412062DD0E0C01F
:1007310083C082C0E09003EC120620D0E0D082D0CA
:1007410083020812B4031FC0E074011412062DD0F5
:10075100E0C083C082C0E09003FC120620D0E0D04C
:1007610082D083020812B4041FC0E074011412067F
:100771002DD0E0C083C082C0E090040C120620D0CE
:10078100E0D082D083020812B4051FC0E0740114C6
:1007910012062DD0E0C083C082C0E090041C120676
:1007A10020D0E0D082D083020812B4061FC0E074CA
:1007B100011412062DD0E0C083C082C0E090042C49
:1007C100120620D0E0D082D083020812B4071FC0E5
:1007D100E074011412062DD0E0C083C082C0E09005
:1007E100043C120620D0E0D082D0830207EF020839
:1007F100733001FAC201E560B402028014B403024D
:10080100800FB40402800AB405028005B406638037
:1008110000C0E074011412062BD0E085473A8548E8
:100821003B85493C854A3D12002E1209B0E54354EF
:100831000F24301205E3E542C4540F24301205E3BE
:10084100E542540F24301205E374431205E374208A
:100851001205E31205E3C0E0740C1412062BD0E07C
:10086100E53112069D743A1205E3E53012069D1238
:1008710004C5D0E022E560B401028001223024FCED
:10088100C224120985C0E074011412062DD0E0E5DE
:1008910061B40013C083C082C0E0900350120620EF
:1008A100D0E0D082D08322B40114C083C082C0E0E2
:1008B100900361120620D0E0D082D0838042B4023E
:1008C10014C083C082C0E0900372120620D0E0D031
:1008D10082D0838046B40314C083C082C0E09003F9
:1008E10083120620D0E0D082D0838014C083C082DE
:1008F100C0E0900394120620D0E0D082D083801B08
:10090100C0E074011412062BD0E012099912097B80
:10091100C0E074431205E3D0E08034C0E0740114F8
:1009210012062BD0E0120999E61205E308E612053A
:10093100E308C0E0743A1205E3D0E0E61205E308EB
:10094100E61205E3C0E074731205E3D0E08000E530
:1009510061B40202800CB404028007E56A24C0126B
:1009610005E8E56AB4020104C394024005E56A049E
:100971008002E56A24C01205E822E660061205E35A
:100981000880F72274011205E8C0027A0212059E5E
:10099100D002740C1205E822E561B40103788022CB
:1009A100B40203788422B40303788922788D2290DB
:1009B1000648E543540F93F593E542C4540F93F56C
:1009C10092E542540F93F59122E572B4000A20900A
:1009D1002F75710005728028B40109E571B43220C8
:1009E1000572801CB4020C2090040572801275728D
:1009F10000800DB4030A309007D215B2ED75720074
:100A010022E574B4000A20B72D75730005748026A1
:100A1100B40109E573B4321E0574801AB4020C20C6
:100A2100B70405748010757400800BB4030830B7E7
:100A310005D21775740022C0E0C0D0E560B401078B
:100A4100438055E5758003020AF2B4002A30800C18
:100A510030820E308410308612020AF275770180DE
:100A61000F757702800A757703800575770480001A
:100A71007576000575807AB40109E576B4327205A0
:100A810075806EB40226E577B4010530801A8013B3
:100A9100B40205308212800BB4030530840A80034E
:100AA100308605757500804905758045B40342E5BA
:100AB10077B4010530803A8013B402053082328068
:100AC1000BB4030530842A8003308625E577B40111
:100AD100057561018013B40205756102800BB403D1
:100AE100057561038003756104756A00D22475750B
:100AF10000D0D0D0E022E570B4000CE56FB4FA511B
:100B0100756F000570804AB4010ED2E9E56FB4FA41
:100B110040756F0005708039B4020ED2EAE56FB4FA
:100B2100FA2F756F0005708028B40325D2EBE56FAD
:100B3100B4FA1E756F00757000D204D201B2E830AC
:100B41000D0FE53004B43C0775300005318002F526
:100B51003022C0E0C0D0E560B4020F101102800F56
:100B6100753000753100D20D8005B40602C20DD07A
:100B7100D0D0E022C0E0C0D0E560B4032E10100256
:100B81008015E5312533F537E5302532F536C39447
:100B91003C4004F5360537E531C39537403C7007D5
:100BA100E530C395367033D208802FE560B4052A4D
:100BB1001010028013E5312535F539E5302534F57E
:100BC10038C3943CF5380539E531C39539400B708C
:100BD10007E530C395384002D209D0D0D0E022C019
:100BE100E0C0D0C000C001C002E560B40202800ACA
:100BF100B40402801DB4064D80307847793A120C56
:100C010051784B793E120C5112011A200037D2054E
:100C110080337847793A120C51784F793E120C5152
:100C210012011A20001FD206801B7847793A120C54
:100C310051753E64753F0075400075410012011AFF
:100C4100300002D207D002D001D000D0D0D0E022B3
:100C51007A04E6F70809DAFA221002028071C2006A
:100C6100855C3A855D3B855E3C855F3D753EDB7508
:100C71003F0575400075410012015220001D753E6F
:100C810001753F007540007541001200D3853A5C43
:100C9100853B5D853C5E853D5F8018753A00753BFF
:100CA10000753C00753D00853A5C853B5D853C5E89
:100CB100853D5F85583E85593F855A40855B411288
:100CC100011A200006C293C2EC8004D293D2EC2216
:100CD100C0E0C0D0C000C001E560B40202800302E0
:100CE1000D19201333301430E531602CC2147847CC
:100CF100793A120C51753E32753F007540007541CD
:100D01000012011A300011C293D213D20B120D56E8
:100D1100756000756100D20FD001D000D0D0D0E055
:100D210022C0E0C0D030130A20191BD219120D566F
:100D31008014301211E560B40607C212120D518001
:100D410005C212120D4CD0D0D0E022757801800A74
:100D5100757805800575780A8000C28C75790175F2
:100D61007A00757B00D2A9D28C22301835C218E5E1
:100D710079602F057AE57A7002057BE57B60237542
:100D81007A00757B00E579B40106C28C757902227F
:100D91001578E5786006757901D28C22C28C757957
:100DA100002222E5608008756000D20FD21022B4C3
:100DB1000017C219301504C2158001227560017532
:100DC1006100D20FD210D21222B40114301504C224
:100DD10015800122756002D20FD210D211D21222D7
:100DE100B4021C301705C217020E4E300506C205AB
:100DF100C208800122756003D20FD210D21222B430
:100E0100031A301705C217020E4E300804C20880BB
:100E11000122756004D20FD210D21222B4041C3008
:100E21001705C217020E4E300606C206C20980011E
:100E310022756005D20FD210D21222B4051B3017D1
:100E410004C2178008300904C209800122756006B6
:100E5100D20FD210D211D21222B40612300704C21C
:100E610007800122756007D20FD210D21222B40777
:100E7100081015028003020DA822C0E0C006C007B9
:100E8100E560B401327880120EBF8F4B754C00754E
:100E91004D00754E007889120EBF8F4F7550007549
:100EA10051007552007884120ED38F338E32788DB3
:100EB100120ED38F358E34D007D006D0E0227F00BA
:100EC100E6600EC39430FDEF75F00AA42DFF088093
:100ED100EF22E6C3943075F00AA4FD08E6C394300E
:100EE1002DFD08E6C3943075F00AA4FC08E6C3940E
:100EF100302CFCEDFFECFE2212101850FB22E560B5
:100F0100B40152E561604E120F575049EFB40E091A
:100F110012105BD224756A0022EFB40C0122EFC3D8
:100F2100940A5030EF2430FD120999E56A28F8ED52
:100F3100F6056AE561B401028005B4030B8000E5A2
:100F41006AB4030D156A8009E56AB40404156A8060
:100F510000D224222222C292C294C296C2A0A2A28C
:100F610082A482A682B05002C322120EF9A2A282EA
:100F7100A482A682B05002C322D292D294D296D237
:100F8100A0C29230A23D30A43E30A63F30B040D244
:100F910092C29430A23D30A43E30A63F30B040D240
:100FA10094C29630A23D30A43E30A63F30B040D22C
:100FB10096C2A030A23D30A43E30A63F30B040D210
:100FC100A0C3227F01803C7F0280387F0380347F71
:100FD1000A80307F04802C7F0580287F0680247F53
:100FE1000B80207F07801C7F0880187F0980147F79
:100FF1000D80107F0E800C7F0080087F0C80047FA5
:101001000F8000A2A282A482A682B050F6D3D2920F
:10101100D294D296D2A022201A0E301B04C21BD326
:1010210022755700D21AC322C32278801210407849
:1010310089121040788412104C788D12104C22764F
:10104100300876300876300876002276300876301F
:1010510008763008763008760022E561B40106781A
:101061008012104022B40206788412104C22B4037C
:1010710006788912104022788D12104C2212101815
:10108100400122E5885410C0E0C28C75A1800000A7
:1010910075A1017DFA0000DDFC85A23A85A33B75AF
:1010A1003C00753D00E53B540FF53BD0E06002D2BA
:1010B1008C753E16753F1075400075410012018C0C
:1010C10075A10485A23E85A33F7540007541007559
:1010D100A100120280753E64753F007540007541A4
:1010E1000012018C753E2B753F057540007541005E
:1010F100120280753E14753F007540007541001263
:1011010000D3853A47853B48853C49853D4A227550
:101111005800755900755A00755B00E560B402020C
:101121008016B4030520050F801BB404028009B4A6
:101131000505200602800E227558DC755905755A81
:1011410000755B002275582C755901755A00755B45
:101151000022E560B40004C227802CB40104D22728
:101161008025B40204C227801EB40304C22780175D
:10117100B40404C2278010B40504C2278009B40650
:1011810004C2278002D2271026012212119022D2F6
:10119100EDC0E0C0D0E57C04B414027400F57C20FD
:1011A1002709E57CC39402400B800DE57CC39401C3
:1011B10040028004D2B68002C2B6D0D0D0E022E58F
:1011C10060B4000F755800755900755A00755B00C1
:1011D10002136CB4010F755800755900755A0075EA
:1011E1005B0002136CB4020F7558DC755905755A12
:1011F10000755B0002136CB40302800302132A859D
:101201004B3A854C3B854D3C854E3D85473E854857
:101211003F854940854A41C20012017810002BC226
:1012210028854B3E854C3F854D40854E4185473A4B
:1012310085483B85493C854A3D1200F6853A6285E1
:101241003B63853C64853D658011D2281200F6859B
:101251003A62853B63853C64853D6585623A856379
:101261003B85643C85653D753E05753F00754000D5
:1012710075410012018C853A66853B67853C68851E
:101281003D6930282985663A85673B85683C8569D3
:101291003D753E2C753F017540007541001200D32C
:1012A100853A66853B67853C68853D69803D753A31
:1012B1002C753B01753C00753D0085663E85673F99
:1012C100856840856941C20012011A30000E7566B9
:1012D10000756700756800756900800F1200F6855A
:1012E1003A66853B67853C68853D6985663A8567D1
:1012F1003B85683C85693D753EDC753F0575400061
:10130100754100C20012013620000F8566588567BD
:101311005985685A85695B02136C7558DC755905E6
:10132100755A00755B0002136CB4040F7558DC75B7
:101331005905755A00755B0002136CB4050F755899
:101341002C755901755A00755B0002136CB4060FB8
:10135100755800755900755A00755B0002136C755C
:101361005800755900755A00755B0022C2AF75812E
:10137100C078FA79FFD9FED8FA759AAA759BFE75DD
:101381009C01759D0075E800759500D2AF757000E0
:10139100756000756100756F0075300075310075FD
:1013A10032007533007534007535007536007537B8
:1013B10000753800753900755C00755D00755E005B
:1013C100755F00755B00755A007559027558EE75A9
:1013D100720075740075710075730075750075760E
:1013E10000757900757800757A00757B00C218C2A6
:1013F1008CC295C219C213C20BC215C216C217C242
:1014010001C204C20EC20DC224C205C208C206C274
:1014110009C207C210C211C212D20FD21412045D46
:101421001205181205ED12102B120477120AF71289
:101431000DA41209CA120A0212107E120BE0121137
:10144100C0120CD1120B53120E7B120876120A38FD
:10145100120EFF1206B2120B75120C5A120D6B12FC
:081461001153120D2202142D9B
:00000001FF
