:030000000209836F
:0100030032CA
:03000B00020520CB
:0100130032BA
:01001B0032B2
:0100230032AA
:03002B0002058B40
:10002E00C00078BE00000000D8FAD00022C000C088
:10003E0001793278DFD8FED9FADAF6D001D0002273
:10004E00D29112002EC29112002E22A2E79281A20C
:10005E00E69283A2E59285A2E4928712004EA2E375
:10006E009281A2E29283A2E19285A2E0928712008F
:10007E004E22D297020059C297020059C291C00275
:10008E007A2812003BD002743312008574331200AA
:10009E008574321200857428120085740C12008546
:1000AE007401120085C0027A0212003BD00222E4D3
:1000BE00936006120080A380F62244404480020022
:1000CE0085C0E0E8C4540F4430120080E8540F4459
:0700DE0030120080D0E02287
:1000E500C0E0C0D0C000C001C002C035C034C033BC
:1000F500C032E4F53AF53BF53CF53DF53E7A20E5B1
:1001050035A2E779047832E633F608D9FA79057825
:100115003AE636D4F608D9F9DAE5D032D033D03418
:10012500D035D002D001D000D0D0D0E022C0E0C080
:10013500D0C000C001C002C03EC03DC03CC03BC0F5
:100145003A7A207905C3783EE613C0D030E7022419
:10015500D030E30224FDF618D0D0D9EC79047835F7
:10016500E613F618D9FADADBD200E53A7002C200D6
:10017500D03AD03BD03CD03DD03ED002D001D000CB
:10018500D0D0D0E022C0E0C0D0E5322536F532E54A
:10019500333537F533E5343538F534E5353539F567
:1001A500359200D0D0D0E022C0E0C0D0C3E5329572
:1001B50036F532E5339537F533E5349538F534E5DD
:1001C500359539F5359200D0D0D0E022C0E0C0D0C9
:1001D500C3E5329536E5339537E5349538E53595FC
:1001E500399200D0D0D0E022C0E0C0D0C3E536952A
:1001F50032E5379533E5389534E53995359200D0B4
:10020500D0D0E022C0E0C0D0C200C3E53695327040
:1002150014E5379533700EE53895347008E5399552
:10022500357002D200D0D0D0E0221202092000039E
:100235000201ED221202092000030201D122C0E0D1
:10024500C0F0C0D0C000C001C002C003C004C005DA
:10025500E5328536F0A4F8A9F0E5338536F0A42912
:10026500F9E435F0FAE5328537F0A429F9E5F03AF5
:10027500FAE433FBE5348536F0A42AFAE5F03BFBD6
:10028500E5338537F0A42AFAE5F03BFBE5328538FE
:10029500F0A42AFAE5F03BFBE5358536F0A42BFB07
:1002A500ACF07D00E5348537F0A42BFBE5F03CFC94
:1002B500E43DFDE5338538F0A42BFBE5F03CFCE49B
:1002C5003DFDE5328539F0A42BFBE5F03CFCE43D32
:1002D500FDEC4DFCE5358537F0A445F04CFCE534E7
:1002E5008538F0A445F04CFCE5338539F0A445F09C
:1002F5004CFCE5358538F0A445F04CFCE5348539F2
:10030500F0A445F04CFCE5358539F0A445F04CFCEE
:100315008B358A3489338832D200BC0002C200D0C2
:1003250005D004D003D002D001D000D0D0D0F0D079
:10033500E022C0E0C0D0C000C001C002C003C004BC
:10034500E5364537453845397005D2000203A2C266
:10035500007C20E4F8F9FAFBC3E53233F532E533E6
:1003650033F533E53433F534E53533F535E833F82E
:10037500E933F9EA33FAEB33FBC3E89536E9953708
:10038500EA9538EB95394013E89536F8E99537F94C
:10039500EA9538FAEB9539FB433201DCBBD004D042
:1003A50003D002D001D000D0D0D0E02285323685EE
:1003B500333785343885353922E532C536F532E5AA
:1003C50033C537F533E534C538F534E535C539F585
:0203D5003522CF
:1003D700696E697469616C206D6573736167650027
:1003E70057656C636F6D652020202020202020003A
:1003F7005072657373205042302020202020200047
:1004070053656C656374204D6F64653A2020202026
:100417000053657420536F616B2054656D70202005
:10042700200053657420536F616B2054696D6520FC
:10043700202000536574205265666C6F77205465E1
:100447006D702000536574205265666C6F77205479
:10045700696D65200053657420506172616D657424
:100467006572732000536F616B2054656D703A009D
:100477005265666C6F772054656D703A00536F61F3
:100487006B2054696D653A005265666C6F7720542E
:10049700696D653A0052616D7020746F20536F610A
:1004A7006B20202000536F616B20506861736520BB
:1004B700202020200052616D7020746F20526566E5
:1004C7006C6F7720005265666C6F77205068617398
:1004D7006520202000436F6F6C696E672020202005
:1004E700202020200050726F6365737320446F6E65
:1004F70065202020002020202020202020202020D0
:10050700202020202000E58954F04401F589758CCE
:10051700FD758A5AD2A9D28C22758CFD758A5AB27A
:100527009532C28E53890F438920438780758DFD8D
:10053700758BFDD28E7598522210990280FBF59922
:1005470022E4936006120540A380F62274AA1205DE
:10055700407455120540E535120540E53412054053
:10056700E533120540E532120540740A12054022B0
:1005770075C80075CDF575CC2775CBF575CA27D22B
:10058700ADD2CA22C0E0C0D0C2CF055F0560D2029B
:10059700D0D0D0E032C0F9A4B0999282F880908888
:1005A70083C6A1868E90059CE8C4540F93F592E804
:1005B700540F93F5912290059CE8C4540F93F5943A
:1005C700E8540F93F5932290059CE8C4540F93F5D4
:1005D7008FE8540F93F58E2275F06484F9E5F07572
:1005E700F00A84C454F045F0F822C0E0E563B5652D
:1005F70003D0E022F565B40103D0E022B4003BC08C
:10060700E07401141200CAD0E0C083C082C0E09039
:1006170003E71200BDD0E0D082D083C0E07401149C
:100627001200C8D0E0C083C082C0E09003F7120078
:10063700BDD0E0D082D08302072FB4011FC0E07481
:1006470001141200CAD0E0C083C082C0E090045CED
:100657001200BDD0E0D082D08302072FB4021FC0A2
:10066700E07401141200CAD0E0C083C082C0E090D9
:10067700049C1200BDD0E0D082D08302072FB403C0
:100687001FC0E07401141200CAD0E0C083C082C04A
:10069700E09004AC1200BDD0E0D082D08302072FD7
:1006A700B4041FC0E07401141200CAD0E0C083C0B4
:1006B70082C0E09004BC1200BDD0E0D082D083029B
:1006C700072FB4051FC0E07401141200CAD0E0C0A0
:1006D70083C082C0E09004CC1200BDD0E0D082D0AD
:1006E7008302072FB4061FC0E07401141200CAD09A
:1006F700E0C083C082C0E09004DC1200BDD0E0D02F
:1007070082D08302072FB4071FC0E07401141200C0
:10071700CAD0E0C083C082C0E09004EC1200BDD014
:10072700E0D082D08302072FD0E022E561B4000A2F
:1007370020F92D755F0005618026B40109E55FB4D6
:10074700321E0561801AB4020C20F904056180107D
:10075700756100800BB4030830F905D20C75610090
:1007670022E562B4000CE560B4FA477560000562E3
:100777008040B4010ED2E9E560B4FA367560000531
:1007870062802FB4020ED2EAE560B4FA25756000E4
:100797000562801EB4031BD2EBE560B4FA147560E2
:1007A70000756200E530B43B057530008004053004
:1007B700B2E8221002028073C202C200855B328552
:1007C7005C33855D34855E357536DB753705753881
:1007D7000075390012020920001D753601753700B2
:1007E70075380075390012018A85325B85335C855F
:1007F700345D85355E8018753200753300753400B9
:1008070075350085325B85335C85345D85355E855E
:100817005736855837855938855A391201D12000FE
:1008270006C293C2EC8004D293D2EC22C0E0C0D0BF
:10083700C000C001C002783F79321208B578437909
:10084700361208B51201D1200002D203783F79325F
:100857001208B5784779361208B51201D12000027F
:10086700D204D002D001D000D0D0D0E022C0E0C066
:10087700D0C000C001C002784B79321208B5784F5A
:1008870079361208B51201D1200002D206784B79C9
:10089700321208B5785379361208B51201D1200003
:1008A70002D207D002D001D000D0D0D0E0227A0403
:1008B700E6F70809DAFA22C0E0C0D0C000C001C0DC
:1008C70002200D3D300E3A784B79321208B5753655
:1008D7003C7537007538007539001201D1200021A9
:1008E700C20E783F79321208B57536327537007502
:1008F70038007539001201D1300006D20DD209C275
:1009070093D002D001D000D0D0D0E022E56380039D
:10091700756300B4000A209062120D6180000563C0
:10092700B40112120A84120ACD101002804D120A65
:100937000880000563B4020A10112C100302803BE3
:100947000563B4030A10111F100602802E0563B455
:10095700040A10111210040280210563B4050A105D
:10096700110510070280140563B4060F10050280F5
:100977000A0563B40705100F9780002275817F75FC
:100987009AAA759BFE759C01759D0075E800759583
:1009970000D2AF7561007562007563007565FF75FC
:1009A7005F00756000753000753100755B00755C20
:1009B70000755D00755E00755A007559007558021F
:1009C7007557EEC20DC209C20FC210C211C201C2D1
:1009D7000BC203C206C204C207C205D20E12050D1E
:1009E70012057712008A120BF0120C431205291216
:1009F70007321207681209131205F11207BA020922
:100A0700F67867120A478F437544007545007546A7
:100A1700007870120A478F47754800754900754A74
:100A270000786B120A5B8F4F8E507551007552001C
:100A37007874120A5B8F538E5475550075560022D1
:100A47007F00E6600EC39430FDEF75F00AA42DFF1A
:100A57000880EF22E6943075F00AA4FD08E694308A
:100A67002DFD08E6943075F00AA4FC08E694302CB6
:100A7700ED75F03CA42CFFE5F03400FE2230800A2F
:100A870030821230841A30862222120BE3756401F9
:100A97007566008021120BE3756402756600801687
:100AA700120BE3756403756600800B120BE3756424
:100AB700047566008000120C433080FD3082FD30E3
:100AC70084FD3086FD22E5646050120B22504BEF07
:100AD700B40E0A120C20120C4375660022EFB40CF8
:100AE7000122EFC3940A5031EF2430FD120D4AE57D
:100AF7006628F8EDF60566E564B401028005B403DF
:100B07000B8000E566B4030D15668009E566B4043D
:100B17000415668000120C43222222C292C294C29C
:100B270096C2A0A2A282A482A682B05002C32212B9
:100B37000BE3A2A282A482A682B05002C322D29261
:100B4700D294D296D2A0C29230A23D30A43E30A613
:100B57003F30B040D292C29430A23D30A43E30A67E
:100B67003F30B040D294C29630A23D30A43E30A66A
:100B77003F30B040D296C2A030A23D30A43E30A64E
:100B87003F30B040D2A0C3227F01803C7F02803833
:100B97007F0380347F0A80307F04802C7F05802884
:100BA7007F0680247F0B80207F07801C7F088018AA
:100BB7007F0980147F0D80107F0E800C7F008008D6
:100BC7007F0C80047F0F8000A2A282A482A682B03D
:100BD70050F6D3D292D294D296D2A022780F794AE5
:100BE7007AFADAFED9FAD8F6227867120C05787005
:100BF700120C05786B120C117874120C11227630D6
:100C07000876300876300876002276300876300885
:100C1700763008763008760022E564B401067867F6
:100C2700120C0522B40206786B120C1122B40306CB
:100C37007870120C05227874120C1122120D3AC02A
:100C4700E07401141200CAD0E0E564B40013C08355
:100C5700C082C0E09004071200BDD0E0D082D083EC
:100C670022B40114C083C082C0E09004181200BDF2
:100C7700D0E0D082D0838042B40214C083C082C047
:100C8700E09004291200BDD0E0D082D0838042B426
:100C97000314C083C082C0E090043A1200BDD0E0C4
:100CA700D082D0838014C083C082C0E090044B12EE
:100CB70000BDD0E0D082D0838017C0E07401141249
:100CC70000C8D0E0120D4A120D3074431200808024
:100CD7002CC0E07401141200C8D0E0120D4AE612CD
:100CE700008008E612008008743A120080E61200BD
:100CF7008008E612008074731200808000E564B4F7
:100D07000202800DB404028008E56624C012008543
:100D170022E566B4020104C394024005E566048037
:100D270002E56624C012008522E6600612008008EC
:100D370080F72274011200857A0A120BE3740F12EE
:100D4700008522E564B40103786722B40203786B57
:0E0D570022B403037870227874223090FD22BB
:00000001FF
