:03000000020837BC
:0100030032CA
:03000B000204CB21
:0100130032BA
:01001B0032B2
:0100230032AA
:03002B0002053695
:10002E00C00078BE00000000D8FAD00022C000C088
:10003E0001793278DFD8FED9FADAF6D001D0002273
:10004E00D2B312002EC2B312002E22A2E792A3A2A6
:10005E00E692A5A2E592A7A2E492B112004EA2E307
:10006E0092A3A2E292A5A2E192A7A2E092B11200FF
:10007E004E22D2B7020059C2B7020059C2B3C00213
:10008E007A2812003BD002743312008574331200AA
:10009E008574321200857428120085740C12008546
:1000AE007401120085C0027A0212003BD00222E4D3
:1000BE00936006120080A380F62244404480020022
:1000CE0085C0E0E8C4540F4430120080E8540F4459
:0700DE0030120080D0E02287
:1000E500C0E0C0D0C000C001C002C035C034C033BC
:1000F500C032E4F53AF53BF53CF53DF53E7A20E5B1
:1001050035A2E779047832E633F608D9FA79057825
:100115003AE636D4F608D9F9DAE5D032D033D03418
:10012500D035D002D001D000D0D0D0E022C0E0C080
:10013500D0C000C001C002C03EC03DC03CC03BC0F5
:100145003A7A207905C3783EE613C0D030E7022419
:10015500D030E30224FDF618D0D0D9EC79047835F7
:10016500E613F618D9FADADBD200E53A7002C200D6
:10017500D03AD03BD03CD03DD03ED002D001D000CB
:10018500D0D0D0E022C0E0C0D0E5322536F532E54A
:10019500333537F533E5343538F534E5353539F567
:1001A500359200D0D0D0E022C0E0C0D0C3E5329572
:1001B50036F532E5339537F533E5349538F534E5DD
:1001C500359539F5359200D0D0D0E022C0E0C0D0C9
:1001D500C3E5329536E5339537E5349538E53595FC
:1001E500399200D0D0D0E022C0E0C0D0C3E536952A
:1001F50032E5379533E5389534E53995359200D0B4
:10020500D0D0E022C0E0C0D0C200C3E53695327040
:1002150014E5379533700EE53895347008E5399552
:10022500357002D200D0D0D0E0221202092000039E
:100235000201ED221202092000030201D122C0E0D1
:10024500C0F0C0D0C000C001C002C003C004C005DA
:10025500E5328536F0A4F8A9F0E5338536F0A42912
:10026500F9E435F0FAE5328537F0A429F9E5F03AF5
:10027500FAE433FBE5348536F0A42AFAE5F03BFBD6
:10028500E5338537F0A42AFAE5F03BFBE5328538FE
:10029500F0A42AFAE5F03BFBE5358536F0A42BFB07
:1002A500ACF07D00E5348537F0A42BFBE5F03CFC94
:1002B500E43DFDE5338538F0A42BFBE5F03CFCE49B
:1002C5003DFDE5328539F0A42BFBE5F03CFCE43D32
:1002D500FDEC4DFCE5358537F0A445F04CFCE534E7
:1002E5008538F0A445F04CFCE5338539F0A445F09C
:1002F5004CFCE5358538F0A445F04CFCE5348539F2
:10030500F0A445F04CFCE5358539F0A445F04CFCEE
:100315008B358A3489338832D200BC0002C200D0C2
:1003250005D004D003D002D001D000D0D0D0F0D079
:10033500E022C0E0C0D0C000C001C002C003C004BC
:10034500E5364537453845397005D2000203A2C266
:10035500007C20E4F8F9FAFBC3E53233F532E533E6
:1003650033F533E53433F534E53533F535E833F82E
:10037500E933F9EA33FAEB33FBC3E89536E9953708
:10038500EA9538EB95394013E89536F8E99537F94C
:10039500EA9538FAEB9539FB433201DCBBD004D042
:1003A50003D002D001D000D0D0D0E02285323685EE
:1003B500333785343885353922E532C536F532E5AA
:1003C50033C537F533E534C538F534E535C539F585
:0203D5003522CF
:1003D700696E697469616C206D6573736167650027
:1003E70057656C636F6D652020202020202020003A
:1003F7005072657373205042302020202020200047
:1004070053657420506172616D6574657273200065
:10041700536F616B2054656D703A005265666C6F5F
:10042700772054656D703A00536F616B2054696D86
:10043700653A005265666C6F772054696D653A00BE
:1004470052616D7020746F20536F616B2020200004
:10045700536F616B20506861736520202020200056
:1004670052616D7020746F205265666C6F77200043
:100477005265666C6F772050686173652020200095
:10048700436F6F6C696E672020202020202020009A
:1004970050726F6365737320446F6E652020200070
:1004A7002020202020202020202020202020202045
:1004B70000E58954F04401F589758CFD758A5AD297
:1004C700A9D28C22758CFD758A5AB29532C28E5389
:1004D700890F438920438780758DFD758BFDD28EEB
:1004E7007598522210990280FBF59922E4936006D1
:1004F7001204EBA380F62274AA1204EB74551204BB
:10050700EBE5351204EBE5341204EBE5331204EBAB
:10051700E5321204EB740A1204EB2275C80075CD9C
:10052700F575CC2775CBF575CA27D2ADD2CA22C0CF
:10053700E0C0D0C2CF055F0560D202D0D0D0E03294
:10054700C0F9A4B0999282F880908883C6A1868E5C
:10055700900547E8C4540F93F592E8540F93F5912B
:1005670022900547E8C4540F93F594E8540F93F588
:100577009322900547E8C4540F93F58FE8540F93DF
:10058700F58E2275F06484F9E5F075F00A84C45499
:10059700F045F0F822C0E0E563B4003BC0E0740129
:1005A700141200CAD0E0C083C082C0E09003E712F3
:1005B70000BDD0E0D082D083C0E07401141200C81F
:1005C700D0E0C083C082C0E09003F71200BDD0E046
:1005D700D082D0830206CCB4011FC0E0740114128C
:1005E70000CAD0E0C083C082C0E09004071200BDFB
:1005F700D0E0D082D0830206CCB4021FC0E07401E1
:10060700141200CAD0E0C083C082C0E09004471231
:1006170000BDD0E0D082D0830206CCB4031FC0E077
:100627007401141200CAD0E0C083C082C0E09004F5
:10063700571200BDD0E0D082D0830206CCB4041F8D
:10064700C0E07401141200CAD0E0C083C082C0E0C9
:100657009004671200BDD0E0D082D0830206CCB4EC
:10066700051FC0E07401141200CAD0E0C083C08225
:10067700C0E09004771200BDD0E0D082D08302069C
:10068700CCB4061FC0E07401141200CAD0E0C083C6
:10069700C082C0E09004871200BDD0E0D082D08332
:1006A7000206CCB4071FC0E07401141200CAD0E0E0
:1006B700C083C082C0E09004971200BDD0E0D08212
:1006C700D0830206CCD0E022E561B4000A20F92DE0
:1006D700755F0005618026B40109E55FB4321E0528
:1006E70061801AB4020C20F904056180107561005D
:1006F700800BB4030830F905D20C75610022E5625E
:10070700B4000CE560B4FA4775600005628040B438
:10071700010ED2E9E560B4FA367560000562802FF4
:10072700B4020ED2EAE560B4FA257560000562806E
:100737001EB4031BD2EBE560B4FA14756000756252
:1007470000E530B43B0575300080040530B2E8227F
:100757001002028073C202C200855B32855C33855A
:100767005D34855E357536DB753705753800753947
:100777000012020920001D75360175370075380013
:1007870075390012018A85325B85335C85345D8556
:10079700355E801875320075330075340075350085
:1007A70085325B85335C85345D85355E8557368557
:1007B7005837855938855A391201D1200006C29316
:1007C700C2EC8004D293D2EC22E563800375630008
:1007D700B40007100D0280570563B4010C100E0218
:1007E700804D100B0280480563B4020A100F2C10CD
:1007F7000302803B0563B4030A100F1F1006028033
:100807002E0563B4040A100F121004028021056339
:10081700B4050A100F0510070280140563B4060F0C
:10082700100502800A0563B40705100DA080002299
:1008370075817F759A7F759B22759CFF759DFF75E6
:10084700E800759500D2AF756100756200756300A9
:10085700755F00756000753000753100755B007558
:100867005C00755D00755E00755A00755900755816
:10087700027557EEC20DC20EC20FC201C20BC203F0
:10088700C206C204C207C2051204B812052212002A
:100897008A1204D41206CF1207051207D01207577F
:0308A70002089BA9
:00000001FF
