:0300000002099161
:0100030032CA
:03000B0002046983
:0100130032BA
:01001B0032B2
:0100230032AA
:03002B000204D4F8
:10002E00C0E0C0D0C000C001C002C035C034C03373
:10003E00C032E4F53AF53BF53CF53DF53E7A20E568
:10004E0035A2E779047832E633F608D9FA790578DD
:10005E003AE636D4F608D9F9DAE5D032D033D034D0
:10006E00D035D002D001D000D0D0D0E022C0E0C038
:10007E00D0C000C001C002C03EC03DC03CC03BC0AD
:10008E003A7A207905C3783EE613C0D030E70224D1
:10009E00D030E30224FDF618D0D0D9EC79047835AF
:1000AE00E613F618D9FADADBD200E53A7002C2008E
:1000BE00D03AD03BD03CD03DD03ED002D001D00083
:1000CE00D0D0D0E022C0E0C0D0E5322536F532E502
:1000DE00333537F533E5343538F534E5353539F51F
:1000EE00359200D0D0D0E022C0E0C0D0C3E532952A
:1000FE0036F532E5339537F533E5349538F534E595
:10010E00359539F5359200D0D0D0E022C0E0C0D080
:10011E00C3E5329536E5339537E5349538E53595B3
:10012E00399200D0D0D0E022C0E0C0D0C3E53695E1
:10013E0032E5379533E5389534E53995359200D06B
:10014E00D0D0E022C0E0C0D0C200C3E536953270F8
:10015E0014E5379533700EE53895347008E539950A
:10016E00357002D200D0D0D0E0221201522000030E
:10017E000201362212015220000302011A22C0E0AF
:10018E00C0F0C0D0C000C001C002C003C004C00592
:10019E00E5328536F0A4F8A9F0E5338536F0A429CA
:1001AE00F9E435F0FAE5328537F0A429F9E5F03AAD
:1001BE00FAE433FBE5348536F0A42AFAE5F03BFB8E
:1001CE00E5338537F0A42AFAE5F03BFBE5328538B6
:1001DE00F0A42AFAE5F03BFBE5358536F0A42BFBBF
:1001EE00ACF07D00E5348537F0A42BFBE5F03CFC4C
:1001FE00E43DFDE5338538F0A42BFBE5F03CFCE453
:10020E003DFDE5328539F0A42BFBE5F03CFCE43DE9
:10021E00FDEC4DFCE5358537F0A445F04CFCE5349E
:10022E008538F0A445F04CFCE5338539F0A445F053
:10023E004CFCE5358538F0A445F04CFCE5348539A9
:10024E00F0A445F04CFCE5358539F0A445F04CFCA6
:10025E008B358A3489338832D200BC0002C200D07A
:10026E0005D004D003D002D001D000D0D0D0F0D031
:10027E00E022C0E0C0D0C000C001C002C003C00474
:10028E00E5364537453845397005D2000202EBC2D6
:10029E00007C20E4F8F9FAFBC3E53233F532E5339E
:1002AE0033F533E53433F534E53533F535E833F8E6
:1002BE00E933F9EA33FAEB33FBC3E89536E99537C0
:1002CE00EA9538EB95394013E89536F8E99537F904
:1002DE00EA9538FAEB9539FB433201DCBBD004D0FA
:1002EE0003D002D001D000D0D0D0E02285323685A6
:1002FE00333785343885353922E532C536F532E562
:10030E0033C537F533E534C538F534E535C539F53C
:02031E00352286
:10032000696E697469616C206D65737361676500DE
:1003300057656C636F6D65202020202020202000F1
:1003400050726573732050423020202020202000FE
:1003500053656C656374204D6F64653A20202020DE
:100360000053657420536F616B2054656D702020BD
:10037000200053657420536F616B2054696D6520B4
:10038000202000536574205265666C6F7720546599
:100390006D702000536574205265666C6F77205431
:1003A000696D65200053657420506172616D6574DC
:1003B0006572732000536F616B2054656D703A0055
:1003C0005265666C6F772054656D703A00536F61AB
:1003D0006B2054696D653A005265666C6F772054E6
:1003E000696D653A0052616D7020746F20536F61C2
:1003F0006B20202000536F616B2050686173652073
:10040000202020200052616D7020746F205265669C
:100410006C6F7720005265666C6F7720506861734F
:100420006520202000436F6F6C696E6720202020BC
:10043000202020200050726F6365737320446F6E1C
:100440006520202000202020202020202020202087
:10045000202020202000E58954F04401F589758C86
:10046000FD758A5AD2A9D28C22758CFD758A5AB232
:100470009532C28E53890F438920438780758DFD45
:10048000758BFDD28E7598522210990280FBF599DA
:1004900022E4936006120489A380F62274AA12044F
:1004A000897455120489E535120489E534120489EA
:1004B000E533120489E532120489740A1204892290
:1004C00075C80075CDF575CC2775CBF575CA27D2E3
:1004D000ADD2CA22C0E0C0D0C2CF055F0560D20253
:0504E000D0D0D0E03295
:1004E500C00078BE00000000D8FAD00022C000C0CD
:1004F50001793278DFD8FED9FADAF6D001D00022B8
:10050500D2911204E5C2911204E522A2E79281A2DA
:10051500E69283A2E59285A2E49287120505A2E3FD
:100525009281A2E29283A2E19285A2E092871205CE
:100535000522D297020510C297020510C291C0028A
:100545007A281204F2D002743312053C7433120572
:100555003C743212053C742812053C740C12053C9F
:10056500740112053CC0027A021204F2D00222E4A0
:10057500936006120537A380F622444044800205A5
:100585003CC0E0E8C4540F4430120537E8540F442A
:1005950030120537D0E022C0F9A4B0999282F880D4
:1005A500908883C6A1868E90059CE8C4540F93F568
:1005B50092E8540F93F5912290059CE8C4540F934B
:1005C500F594E8540F93F5932290059CE8C4540FD5
:1005D50093F58FE8540F93F58E2275F06484F9E551
:1005E500F075F00A84C454F045F0F822C0E0300CF0
:1005F5000AC20CE563B40106D0E022D0E022B400C3
:100605003BC0E0740114120581D0E0C083C082C0F4
:10061500E0900330120574D0E0D082D083C0E0743E
:10062500011412057FD0E0C083C082C0E090034072
:10063500120574D0E0D082D08302072FB4011FC009
:10064500E0740114120581D0E0C083C082C0E0903F
:1006550003A5120574D0E0D082D08302072FB4021F
:100665001FC0E0740114120581D0E0C083C082C0B0
:10067500E09003E5120574D0E0D082D08302072F05
:10068500B4031FC0E0740114120581D0E0C083C01B
:1006950082C0E09003F5120574D0E0D082D08302C9
:1006A500072FB4041FC0E0740114120581D0E0C007
:1006B50083C082C0E0900405120574D0E0D082D0DA
:1006C5008302072FB4051FC0E0740114120581D001
:1006D500E0C083C082C0E0900415120574D0E0D05C
:1006E50082D08302072FB4061FC0E07401141205DF
:1006F50081D0E0C083C082C0E0900425120574D08B
:10070500E0D082D08302072FB4071FC0E074011424
:10071500120581D0E0C083C082C0E0900435120587
:1007250074D0E0D082D08302072FD0E022E561B4F7
:10073500000A20F92D755F0005618026B40109E5E1
:100745005FB4321E0561801AB4020C20F9040561FC
:100755008010756100800BB4030830F905D20D7562
:10076500610022E562B4000CE560B4FA47756000EB
:1007750005628040B4010ED2E9E560B4FA367560D1
:10078500000562802FB4020ED2EAE560B4FA257541
:1007950060000562801EB4031BD2EBE560B4FA1459
:1007A500756000756200E530B43B05753000800466
:1007B5000530B2E8221002028071C200855B3285E5
:1007C5005C33855D34855E357536DB753705753883
:1007D5000075390012015220001D7536017537006C
:1007E5007538007539001200D385325B85335C8519
:1007F500345D85355E8018753200753300753400BB
:1008050075350085325B85335C85345D85355E8560
:100815005736855837855938855A3912011A2000B7
:1008250006C293C2EC8004D293D2EC22C0E0C0D0C1
:10083500C000C001C002783F79321208B37843790D
:10084500361208B312011A200002D203783F79321A
:100855001208B3784779361208B312011A2000023C
:10086500D204D002D001D000D0D0D0E022C0E0C068
:10087500D0C000C001C002784B79321208B3784F5E
:1008850079361208B312011A200002D206784B7984
:10089500321208B3785379361208B312011A2000C0
:1008A50002D207D002D001D000D0D0D0E0227A0405
:1008B500E6F70809DAFA22C0E0C0D0C000C001C0DE
:1008C50002200E3D300F3A784B79321208B3753657
:1008D5003C75370075380075390012011A20002162
:1008E500C20F783F79321208B37536327537007505
:1008F500380075390012011A300006D20ED209C22D
:1009050093D002D001D000D0D0D0E022E56380059D
:10091500756300D20CB4000C209070120D6E80002F
:100925000563D20CB40114120A91120ADA101102ED
:100935008059120A1580000563D20CB4020C1012FE
:100945003210030280450563D20CB4030C10122348
:1009550010060280360563D20CB4040C1012141074
:10096500040280270563D20CB4050C10120510078C
:100975000280180563D20CB40611100502800C051F
:1009850063D20CB4070510108780002275817F752E
:100995009AAA759BFE759C01759D0075E800759575
:1009A50000D2AF756100756200756300755F0075F3
:1009B5006000753000753100755B00755C00755D14
:1009C50000755E00755A007559007558027557EE29
:1009D500C20EC209C210C211C212C201C20BC203A9
:1009E500C206C204C207C205C20CD20F12045612B7
:1009F50004C0120541120BFD120C501204721207AD
:100A0500321207681209111205F11207BA020A0318
:100A15007866120A548F4375440075450075460083
:100A2500786F120A548F47754800754900754A005A
:100A3500786A120A688F4F8E50755100755200788A
:100A450073120A688F538E54755500755600227FB0
:100A550000E6600EC39430FDEF75F00AA42DFF0883
:100A650080EF22E6943075F00AA4FD08E694302D57
:100A7500FD08E6943075F00AA4FC08E694302CEDE8
:100A850075F03CA42CFFE5F03400FE2230800A30DE
:100A9500821230841A30862222120BF07564017599
:100AA50065008021120BF0756402756500801612D1
:100AB5000BF0756403756500800B120BF07564040B
:100AC5007565008000120C503080FD3082FD308449
:100AD500FD3086FD22E5646050120B2F504BEFB4BC
:100AE5000E0A120C2D120C5075650022EFB40C0184
:100AF50022EFC3940A5031EF2430FD120D57E565FE
:100B050028F8EDF60565E564B401028005B4030B2C
:100B15008000E565B4030D15658009E565B4040439
:100B250015658000120C50222222C292C294C296F0
:100B3500C2A0A2A282A482A682B05002C322120B36
:100B4500F0A2A282A482A682B05002C322D292D27F
:100B550094D296D2A0C29230A23D30A43E30A63F98
:100B650030B040D292C29430A23D30A43E30A63F70
:100B750030B040D294C29630A23D30A43E30A63F5C
:100B850030B040D296C2A030A23D30A43E30A63F40
:100B950030B040D2A0C3227F01803C7F0280387FE5
:100BA5000380347F0A80307F04802C7F0580287F76
:100BB5000680247F0B80207F07801C7F0880187F9C
:100BC5000980147F0D80107F0E800C7F0080087FC8
:100BD5000C80047F0F8000A2A282A482A682B0505E
:100BE500F6D3D292D294D296D2A022780F794A7AAD
:100BF500FADAFED9FAD8F6227866120C12786F1254
:100C05000C12786A120C1E7873120C1E22763008AC
:100C15007630087630087600227630087630087609
:100C25003008763008760022E564B401067866124D
:100C35000C1222B40206786A120C1E22B40306783E
:100C45006F120C12227873120C1E22120D47C0E08F
:100C5500740114120581D0E0E564B40013C083C0AB
:100C650082C0E0900350120574D0E0D082D0832278
:100C7500B40114C083C082C0E0900361120574D032
:100C8500E0D082D0838042B40214C083C082C0E029
:100C9500900372120574D0E0D082D0838042B403F1
:100CA50014C083C082C0E0900383120574D0E0D0E5
:100CB50082D0838014C083C082C0E0900394120563
:100CC50074D0E0D082D0838017C0E074011412057F
:100CD5007FD0E0120D57120D3D7443120537802C5D
:100CE500C0E074011412057FD0E0120D57E612051D
:100CF5003708E612053708743A120537E612053744
:100D050008E612053774731205378000E564B402EE
:100D150002800DB404028008E56524C012053C225A
:100D2500E565B4020104C394024005E5650480024B
:100D3500E56524C012053C22E660061205370880E9
:100D4500F722740112053C7A0A120BF0740F120592
:100D55003C22E564B40103786622B40203786A2272
:0D0D6500B40303786F227873223090FD22D2
:00000001FF
