:03000000021302E6
:0100030032CA
:03000B0002046E7E
:0100130032BA
:01001B0032B2
:0100230032AA
:03002B0002052E9D
:10002E00C0E0C0D0C000C001C002C03DC03CC03B5B
:10003E00C03AE4F542F543F544F545F5467A20E538
:10004E003DA2E77904783AE633F608D9FA790578CD
:10005E0042E636D4F608D9F9DAE5D03AD03BD03CB0
:10006E00D03DD002D001D000D0D0D0E022C0E0C030
:10007E00D0C000C001C002C046C045C044C043C08D
:10008E00427A207905C37846E613C0D030E70224C1
:10009E00D030E30224FDF618D0D0D9EC7904783DA7
:1000AE00E613F618D9FADADBD200E5427002C20086
:1000BE00D042D043D044D045D046D002D001D0005B
:1000CE00D0D0D0E022C0E0C0D0E53A253EF53AE5EA
:1000DE003B353FF53BE53C3540F53CE53D3541F5DF
:1000EE003D9200D0D0D0E022C0E0C0D0C3E53A951A
:1000FE003EF53AE53B953FF53BE53C9540F53CE555
:10010E003D9541F53D9200D0D0D0E022C0E0C0D068
:10011E00C3E53A953EE53B953FE53C9540E53D957B
:10012E00419200D0D0D0E022C0E0C0D0C3E53E95D1
:10013E003AE53F953BE540953CE541953D9200D033
:10014E00D0D0E022C0E0C0D0C200C3E53E953A70E8
:10015E0014E53F953B700EE540953C7008E54195E2
:10016E003D7002D200D0D0D0E02212015220000306
:10017E000201362212015220000302011A22C0E0AF
:10018E00C0F0C0D0C000C001C002C003C004C00592
:10019E00E53A853EF0A4F8A9F0E53B853EF0A429AA
:1001AE00F9E435F0FAE53A853FF0A429F9E5F03A9D
:1001BE00FAE433FBE53C853EF0A42AFAE5F03BFB7E
:1001CE00E53B853FF0A42AFAE5F03BFBE53A854096
:1001DE00F0A42AFAE5F03BFBE53D853EF0A42BFBAF
:1001EE00ACF07D00E53C853FF0A42BFBE5F03CFC3C
:1001FE00E43DFDE53B8540F0A42BFBE5F03CFCE443
:10020E003DFDE53A8541F0A42BFBE5F03CFCE43DD9
:10021E00FDEC4DFCE53D853FF0A445F04CFCE53C86
:10022E008540F0A445F04CFCE53B8541F0A445F03B
:10023E004CFCE53D8540F0A445F04CFCE53C854189
:10024E00F0A445F04CFCE53D8541F0A445F04CFC96
:10025E008B3D8A3C893B883AD200BC0002C200D05A
:10026E0005D004D003D002D001D000D0D0D0F0D031
:10027E00E022C0E0C0D0C000C001C002C003C00474
:10028E00E53E453F454045417005D2000202EBC2B6
:10029E00007C20E4F8F9FAFBC3E53A33F53AE53B86
:1002AE0033F53BE53C33F53CE53D33F53DE833F8BE
:1002BE00E933F9EA33FAEB33FBC3E8953EE9953FB0
:1002CE00EA9540EB95414013E8953EF8E9953FF9E4
:1002DE00EA9540FAEB9541FB433A01DCBBD004D0E2
:1002EE0003D002D001D000D0D0D0E022853A3E8596
:1002FE003B3F853C40853D4122E53AC53EF53AE51A
:10030E003BC53FF53BE53CC540F53CE53DC541F5FC
:02031E003D227E
:10032000696E697469616C206D65737361676500DE
:1003300057656C636F6D65202020202020202000F1
:1003400050726573732050423020202020202000FE
:1003500053656C656374204D6F64653A20202020DE
:100360000053657420536F616B2054656D702020BD
:10037000200053657420536F616B2054696D6520B4
:10038000202000536574205265666C6F7720546599
:100390006D702000536574205265666C6F77205431
:1003A000696D65200053657420506172616D6574DC
:1003B0006572732000536F616B2054656D703A0055
:1003C0005265666C6F772054656D703A00536F61AB
:1003D0006B2054696D653A005265666C6F772054E6
:1003E000696D653A0054656D703A200052616D7018
:1003F00020746F20536F616B20202000536F616B5E
:1004000020506861736520202020200052616D70AB
:1004100020746F205265666C6F7720005265666CA1
:100420006F7720506861736520202000436F6F6CE8
:10043000696E6720202020202020200050726F63EA
:1004400065737320446F6E652020200020202020DB
:1004500020202020202020202020202000E589545A
:10046000F04401F589758CFD758A5AD2A922758CE4
:10047000FD758A5AB29532C28E53890F4389204343
:100480008780758DFD758BFDD28E759852221099DF
:100490000280FBF59922E493600612048EA380F695
:1004A0002274AA12048E745512048EE53D12048E35
:1004B000E53C12048EE53B12048EE53A12048E747C
:1004C0000A12048E229003E512049685473A854865
:1004D0003B85493C854A3D12002E7F00E543540F81
:1004E0006007243012048E7F01E542C4540F70036C
:1004F000EF600CE542C4540F243012048E7F01E5F6
:1005000042540F243012048E744312048E740D1260
:10051000048E740A12048E2275C80075CDF575CC50
:100520002775CBF575CA27C2CFD2ADD2CA22C0E09B
:10053000C0D0C2CF056FD202D203D21805710573A5
:10054000D218D226301C0B0553E553B41904D21D22
:10055000C21C301E0B0554E554B41904D21FC21E30
:1005600030200B0555E555B41904D221C2203022A4
:100570000B0556E556B41904D223C222301A0B05D6
:0F05800057E557B41904D21BC21AD0D0D0E032BD
:10058F00C00078BE00000000D8FAD00022C000C022
:10059F0001793278DFD8FED9FADAF6D001D000220D
:1005AF00D29112058FC29112058F22A2E79281A2DA
:1005BF00E69283A2E59285A2E492871205AFA2E3A9
:1005CF009281A2E29283A2E19285A2E09287120524
:1005DF00AF22D2970205BAC2970205BAC291C002E2
:1005EF007A2812059CD00274331205E67433120573
:1005FF00E674321205E674281205E6740C1205E64D
:10060F0074011205E6C0027A0212059CD00222E4A0
:10061F009360061205E1A380F62244404480020550
:10062F00E6C0E0E8C4540F44301205E1E8540F442B
:10063F00301205E1D0E022C0F9A4B0999282F8807F
:10064F00908883C6A1868E900646E8C4540F93F512
:10065F0092E8540F93F59122900646E8C4540F93F5
:10066F00F594E8540F93F59322900646E8C4540F7F
:10067F0093F58FE8540F93F58E2275F06484F9E5A6
:10068F00F075F00A84C454F045F0F822120689E898
:10069F00C4540F24301205E1E8540F24301205E141
:1006AF0022C0E0300F04C20F80030207F01209834B
:1006BF00E560B4003BC0E074011412062BD0E0C01B
:1006CF0083C082C0E090033012061ED0E0D082D0EB
:1006DF0083C0E0740114120629D0E0C083C082C029
:1006EF00E090034012061ED0E0D082D0830207EDC7
:1006FF00B4011FC0E074011412062BD0E0C083C0F8
:10070F0082C0E09003A512061ED0E0D082D08302F3
:10071F0007EDB4021FC0E074011412062BD0E0C025
:10072F0083C082C0E09003EC12061ED0E0D082D0CE
:10073F0083020810B4031FC0E074011412062BD0FB
:10074F00E0C083C082C0E09003FC12061ED0E0D050
:10075F0082D083020810B4041FC0E0740114120683
:10076F002BD0E0C083C082C0E090040C12061ED0D4
:10077F00E0D082D083020810B4051FC0E0740114CA
:10078F0012062BD0E0C083C082C0E090041C12067A
:10079F001ED0E0D082D083020810B4061FC0E074D0
:1007AF00011412062BD0E0C083C082C0E090042C4D
:1007BF0012061ED0E0D082D083020810B4071FC0EB
:1007CF00E074011412062BD0E0C083C082C0E09009
:1007DF00043C12061ED0E0D082D0830207ED02083F
:1007EF00713001FAC201E560B402028014B4030251
:1007FF00800FB40402800AB405028005B40663803A
:10080F0000C0E0740114120629D0E085473A8548EC
:10081F003B85493C854A3D12002E1209AEE54354F3
:10082F000F24301205E1E542C4540F24301205E1C4
:10083F00E542540F24301205E174431205E1742090
:10084F001205E11205E1C0E0740C14120629D0E084
:10085F00E53112069B743A1205E1E53012069B1240
:10086F0004C5D0E022E560B401028001223024FCEF
:10087F00C224120983C0E074011412062BD0E0E5E4
:10088F0061B40013C083C082C0E090035012061EF3
:10089F00D0E0D082D08322B40114C083C082C0E0E4
:1008AF0090036112061ED0E0D082D0838042B40242
:1008BF0014C083C082C0E090037212061ED0E0D035
:1008CF0082D0838046B40314C083C082C0E09003FB
:1008DF008312061ED0E0D082D0838014C083C082E2
:1008EF00C0E090039412061ED0E0D082D083801B0C
:1008FF00C0E0740114120629D0E012099712097989
:10090F00C0E074431205E1D0E08034C0E0740114FC
:10091F00120629D0E0120997E61205E108E6120542
:10092F00E108C0E0743A1205E1D0E0E61205E108F3
:10093F00E61205E1C0E074731205E1D0E08000E536
:10094F0061B40202800CB404028007E56A24C0126D
:10095F0005E6E56AB4020104C394024005E56A04A2
:10096F008002E56A24C01205E622E660061205E160
:10097F000880F72274011205E6C0027A0212059C64
:10098F00D002740C1205E622E561B40103788022CF
:10099F00B40203788422B40303788922788D2290DD
:1009AF000646E543540F93F593E542C4540F93F570
:1009BF0092E542540F93F59122E572B4000A20900C
:1009CF002F75710005728028B40109E571B43220CA
:1009DF000572801CB4020C2090040572801275728F
:1009EF0000800DB4030A309007D215B2ED75720076
:1009FF0022E574B4000A20B72D75730005748026A4
:100A0F00B40109E573B4321E0574801AB4020C20C8
:100A1F00B70405748010757400800BB4030830B7E9
:100A2F0005D21775740022E570B4000CE56FB4FAA7
:100A3F0051756F000570804AB4010ED2E9E56FB4AD
:100A4F00FA40756F0005708039B4020ED2EAE56F77
:100A5F00B4FA2F756F0005708028B40325D2EBE52B
:100A6F006FB4FA1E756F00757000D204D201B2E830
:100A7F00300D0FE53004B43C0775300005318002AE
:100A8F00F53022C0E0C0D0E560B4020F1011028033
:100A9F000F753000753100D20D8005B40602C20DFE
:100AAF00D0D0D0E022C0E0C0D0E560B4032E10104B
:100ABF00028015E5312533F537E5302532F536C39C
:100ACF00943C4004F5360537E531C39537403C700B
:100ADF0007E530C395367033D208802FE560B40533
:100AEF002A1010028013E5312535F539E53025340C
:100AFF00F538C3943CF5380539E531C39539400BCA
:100B0F007007E530C395384002D209D0D0D0E0222B
:100B1F00C0E0C0D0C000C001C002E560B4020280D6
:100B2F000AB40402801DB4064D80307847793A121A
:100B3F000B90784B793E120B9012011A200037D28E
:100B4F000580337847793A120B90784F793E120B24
:100B5F009012011A20001FD206801B7847793A1293
:100B6F000B90753E64753F00754000754100120192
:100B7F001A300002D207D002D001D000D0D0D0E07E
:100B8F00227A04E6F70809DAFA221002028071C20B
:100B9F0000855C3A855D3B855E3C855F3D753EDB40
:100BAF00753F0575400075410012015220001D75FB
:100BBF003E01753F007540007541001200D3853A24
:100BCF005C853B5D853C5E853D5F8018753A0075A1
:100BDF003B00753C00753D00853A5C853B5D853C6F
:100BEF005E853D5F85583E85593F855A40855B41FF
:100BFF0012011A200006C293C2EC8004D293D2ECE9
:100C0F0022C0E0C0D0C000C001E560B40202800382
:100C1F00020C58201333301430E531602CC2147895
:100C2F0047793A120B90753E32753F00754000754B
:100C3F00410012011A300011C293D213D20B120CC1
:100C4F0095756000756100D20FD001D000D0D0D063
:100C5F00E022C0E0C0D030130A20191BD219120CA9
:100C6F00958014301211E560B40607C212120C9071
:100C7F008005C212120C8BD0D0D0E0227575018086
:100C8F000A757505800575750A8000C28C75760129
:100C9F00757700757800D2A9D28C22301835C2181A
:100CAF00E576602F0577E57770020578E5786023A4
:100CBF00757700757800E576B40106C28C757602FB
:100CCF00221575E5756006757601D28C22C28C757A
:100CDF0076002222E5608008756000D20FD21022C4
:100CEF00B40017C219301504C215800122756001B6
:100CFF00756100D20FD210D21222B4011430150434
:100D0F00C215800122756002D20FD210D211D212F9
:100D1F0022B4021C301705C217020D8D300506C212
:100D2F0005C208800122756003D20FD210D21222A1
:100D3F00B4031A301705C217020D8D300804C2080C
:100D4F00800122756004D20FD210D21222B4041C7B
:100D5F00301705C217020D8D300606C206C2098074
:100D6F000122756005D20FD210D21222B4051B30AA
:100D7F001704C2178008300904C209800122756068
:100D8F0006D20FD210D211D21222B406123007049B
:100D9F00C207800122756007D20FD210D21222B47F
:100DAF0007081015028003020CE722C0E0C006C03E
:100DBF0007E560B401327880120DFE8F4B754C0041
:100DCF00754D00754E007889120DFE8F4F755000CE
:100DDF007551007552007884120E128F338E32784F
:100DEF008D120E128F358E34D007D006D0E0227FB1
:100DFF0000E6600EC39430FDEF75F00AA42DFF08D6
:100E0F0080EF22E6C3943075F00AA4FD08E6C39480
:100E1F00302DFD08E6C3943075F00AA4FC08E6C334
:100E2F0094302CFCEDFFECFE22120FAD50FB22C0D4
:100E3F00E0E560B4014C43805530800C30821430B3
:100E4F00841C308624D0E022120E38756101756A39
:100E5F00008021120E38756102756A008016120E1D
:100E6F0038756103756A00800B120E387561047551
:100E7F006A0080003080FD3082FD3084FD3086FDB9
:100E8F00D224D0E022E560B40152E561604E120E2B
:100E9F00EC5049EFB40E09120FF0D224756A0022FC
:100EAF00EFB40C0122EFC3940A5030EF2430FD123F
:100EBF000997E56A28F8EDF6056AE561B401028045
:100ECF0005B4030B8000E56AB4030D156A8009E5CC
:100EDF006AB40404156A8000D224222222C292C26C
:100EEF0094C296C2A0A2A282A482A682B05002C3CC
:100EFF0022120E38A2A282A482A682B05002C3226E
:100F0F00D292D294D296D2A0C29230A23D30A43EB9
:100F1F0030A63F30B040D292C29430A23D30A43EB2
:100F2F0030A63F30B040D294C29630A23D30A43E9E
:100F3F0030A63F30B040D296C2A030A23D30A43E82
:100F4F0030A63F30B040D2A0C3227F01803C7F0249
:100F5F0080387F0380347F0A80307F04802C7F05A8
:100F6F0080287F0680247F0B80207F07801C7F08CE
:100F7F0080187F0980147F0D80107F0E800C7F00FA
:100F8F0080087F0C80047F0F8000A2A282A482A61B
:100F9F0082B050F6D3D292D294D296D2A022201AF7
:100FAF000E301B04C21BD322755700D21AC322C3A3
:100FBF00227880120FD57889120FD57884120FE11D
:100FCF00788D120FE1227630087630087630087669
:100FDF0000227630087630087630087630087600B2
:100FEF0022E561B401067880120FD522B40206788B
:100FFF0084120FE122B403067889120FD522788D5F
:10100F00120FE122120FAD400122E5885410C0E00B
:10101F00C28C75A180000075A1017DFA0000DDFC76
:10102F0085A23A85A33B753C00753D00E53B540F07
:10103F00F53BD0E06002D28C753E16753F107540BF
:10104F000075410012018C75A10485A23E85A33F56
:10105F0075400075410075A100120280753E6475E0
:10106F003F0075400075410012018C753E2B753F96
:10107F0005754000754100120280753E14753F00E2
:10108F007540007541001200D3853A47853B48856E
:10109F003C49853D4A22755800755900755A0075AF
:1010AF005B00E560B402028016B4030520050F80D3
:1010BF001BB404028009B40505200602800E2275B8
:1010CF0058DC755905755A00755B002275582C75DB
:1010DF005901755A00755B0022E560B40004C22700
:1010EF00802CB40104D2278025B40204C227801EAD
:1010FF00B40304C2278017B40404C2278010B405B8
:10110F0004C2278009B40604C2278002D227102602
:10111F00012212112522D2EDC0E0C0D0E57904B42E
:10112F0014027400F579202709E579C39402400B66
:10113F00800DE579C3940140028004D2B68002C2CB
:10114F00B6D0D0D0E022E560B4000F7558007559C5
:10115F0000755A00755B00021301B4010F7558003A
:10116F00755900755A00755B00021301B4020F75B3
:10117F0058DC755905755A00755B00021301B403ED
:10118F000280030212BF854B3A854C3B854D3C854F
:10119F004E3D85473E85483F854940854A41C200BF
:1011AF0012017810002BC228854B3E854C3F854D90
:1011BF0040854E4185473A85483B85493C854A3DA8
:1011CF001200F6853A62853B63853C64853D6580F8
:1011DF0011D2281200F6853A62853B63853C6485FF
:1011EF003D6585623A85633B85643C85653D753E0B
:1011FF0005753F0075400075410012018C853A66F8
:10120F00853B67853C68853D6930282985663A8529
:10121F00673B85683C85693D753E2C753F01754080
:10122F00007541001200D3853A66853B67853C689F
:10123F00853D69803D753A2C753B01753C00753DC8
:10124F000085663E85673F856840856941C200120B
:10125F00011A30000E7566007567007568007569B4
:10126F0000800F1200F6853A66853B67853C6885DE
:10127F003D6985663A85673B85683C85693D753E66
:10128F00DC753F05754000754100C2001201362024
:10129F00000F85665885675985685A85695B021303
:1012AF00017558DC755905755A00755B00021301FD
:1012BF00B4040F7558DC755905755A00755B00023B
:1012CF001301B4050F75582C755901755A00755BCC
:1012DF0000021301B4060F755800755900755A00B6
:1012EF00755B00021301755800755900755A00752A
:1012FF005B0022C2AF7581C078FA79FFD9FED8FAA8
:10130F00759AAA759BFE759C01759D0075E8007511
:10131F009500D2AF757000756000756100756F0034
:10132F0075300075310075320075330075340075F6
:10133F003500753600753700753800753900755CE6
:10134F0000755D00755E00755F00755B00755A0076
:10135F007559027558EE75720075740075710075C8
:10136F007300757600757500757700757800C21873
:10137F00C28CC295C219C213C20BC215C216C217B4
:10138F00C201C204C20EC20DC224C205C208C206E7
:10139F00C209C207C210C211C212D20FD214120454
:1013AF005D1205181205EB120FC0120477120A36E0
:1013BF00120CE31209C8120A00121013120B1F129B
:1013CF001155120C10120A92120DBA120874120E45
:1013DF003E120E941206B0120AB4120B99120CAAF6
:0913EF001210E8120C610213BC9B
:00000001FF
