:0300000002174A9A
:0100030032CA
:03000B0002048E5E
:0100130032BA
:01001B0032B2
:0100230032AA
:03002B000206DCEE
:10002E00C0E0C0D0C000C001C002C03DC03CC03B5B
:10003E00C03AE4F542F543F544F545F5467A20E538
:10004E003DA2E77904783AE633F608D9FA790578CD
:10005E0042E636D4F608D9F9DAE5D03AD03BD03CB0
:10006E00D03DD002D001D000D0D0D0E022C0E0C030
:10007E00D0C000C001C002C046C045C044C043C08D
:10008E00427A207905C37846E613C0D030E70224C1
:10009E00D030E30224FDF618D0D0D9EC7904783DA7
:1000AE00E613F618D9FADADBD200E5427002C20086
:1000BE00D042D043D044D045D046D002D001D0005B
:1000CE00D0D0D0E022C0E0C0D0E53A253EF53AE5EA
:1000DE003B353FF53BE53C3540F53CE53D3541F5DF
:1000EE003D9200D0D0D0E022C0E0C0D0C3E53A951A
:1000FE003EF53AE53B953FF53BE53C9540F53CE555
:10010E003D9541F53D9200D0D0D0E022C0E0C0D068
:10011E00C3E53A953EE53B953FE53C9540E53D957B
:10012E00419200D0D0D0E022C0E0C0D0C3E53E95D1
:10013E003AE53F953BE540953CE541953D9200D033
:10014E00D0D0E022C0E0C0D0C200C3E53E953A70E8
:10015E0014E53F953B700EE540953C7008E54195E2
:10016E003D7002D200D0D0D0E02212015220000306
:10017E000201362212015220000302011A22C0E0AF
:10018E00C0F0C0D0C000C001C002C003C004C00592
:10019E00E53A853EF0A4F8A9F0E53B853EF0A429AA
:1001AE00F9E435F0FAE53A853FF0A429F9E5F03A9D
:1001BE00FAE433FBE53C853EF0A42AFAE5F03BFB7E
:1001CE00E53B853FF0A42AFAE5F03BFBE53A854096
:1001DE00F0A42AFAE5F03BFBE53D853EF0A42BFBAF
:1001EE00ACF07D00E53C853FF0A42BFBE5F03CFC3C
:1001FE00E43DFDE53B8540F0A42BFBE5F03CFCE443
:10020E003DFDE53A8541F0A42BFBE5F03CFCE43DD9
:10021E00FDEC4DFCE53D853FF0A445F04CFCE53C86
:10022E008540F0A445F04CFCE53B8541F0A445F03B
:10023E004CFCE53D8540F0A445F04CFCE53C854189
:10024E00F0A445F04CFCE53D8541F0A445F04CFC96
:10025E008B3D8A3C893B883AD200BC0002C200D05A
:10026E0005D004D003D002D001D000D0D0D0F0D031
:10027E00E022C0E0C0D0C000C001C002C003C00474
:10028E00E53E453F454045417005D2000202EBC2B6
:10029E00007C20E4F8F9FAFBC3E53A33F53AE53B86
:1002AE0033F53BE53C33F53CE53D33F53DE833F8BE
:1002BE00E933F9EA33FAEB33FBC3E8953EE9953FB0
:1002CE00EA9540EB95414013E8953EF8E9953FF9E4
:1002DE00EA9540FAEB9541FB433A01DCBBD004D0E2
:1002EE0003D002D001D000D0D0D0E022853A3E8596
:1002FE003B3F853C40853D4122E53AC53EF53AE51A
:10030E003BC53FF53BE53CC540F53CE53DC541F5FC
:02031E003D227E
:10032000696E697469616C206D65737361676500DE
:1003300057656C636F6D65202020202020202000F1
:1003400050726573732050423020202020202000FE
:1003500053656C656374204D6F64653A20202020DE
:100360000053657420536F616B2054656D702020BD
:10037000200053657420536F616B2054696D6520B4
:10038000202000536574205265666C6F7720546599
:100390006D702000536574205265666C6F77205431
:1003A000696D65200053657420506172616D6574DC
:1003B0006572732000536F616B2054656D703A0055
:1003C0005265666C6F772054656D703A00536F61AB
:1003D0006B2054696D653A005265666C6F772054E6
:1003E000696D653A0054656D703A200052616D7018
:1003F00020746F20536F616B20202000536F616B5E
:1004000020506861736520202020200052616D70AB
:1004100020746F205265666C6F7720005265666CA1
:100420006F7720506861736520202000436F6F6CE8
:10043000696E6720202020202020200050726F63EA
:1004400065737320446F6E652020200042696E67DB
:100450002042696E672042696E67200057656C63B1
:100460006F6D6520746F205573652000202020205B
:1004700020202020202020202020202000E589543A
:10048000F04401F589758CFD758A5AD2A922758CC4
:10049000FD758A5AB29532C28E53890F4389204323
:1004A0008780758DFD758BFDD28E759852221099BF
:1004B0000280FBF59922E49360061204AEA380F655
:1004C00022309806E599C298D322C322E57E703483
:1004D0001204C1502FF5F0B40D0280F4B40A0FE5F8
:1004E0007D2492F87600757E01757D008016E57D8D
:1004F000B42705757D00800CE57D2492F8E5F0F6C3
:10050000057D80CC22E6F70809E6F70809E6F70939
:10051000770022E6F70809E6F70809E6F70809E692
:10052000F709770022E57E700122757E007892E659
:10053000B45502801CB45202801AB453028018B41D
:100540004B028016B44C028014B44302801202069F
:100550004E02056302057D0205B70205EB0205FDAB
:1005600002060F7892E6B4551108E6B4490C08E685
:10057000B43A0708E6B45202800002064E789208A8
:10058000E6B43A080879891205058002800302065C
:100590004E789208E6B4551C08E6B44E1708E6B447
:1005A0003A1208E6B43105020ECB8008B4300502D9
:1005B0000EA0800002064E789208E6B43A08087948
:1005C000801205058002800302064E789208E6B488
:1005D000411608E6B4561108E6B4450C08E6B43AEC
:1005E0000708E6B43102800002064E789208E6B4AD
:1005F0003A08087984120513800002064E789208A2
:10060000E6B43A0808798D120513800002064E7888
:1006100092E6B4433608E6B4463108E6B4472C08FF
:10062000E6B43A2208E6B4412208E6B4501D08E6D2
:10063000B4501808E6B44C1308E6B4590E120F7FF4
:10064000D20FD2248005B42002800002064E22740C
:10065000AA1204AE74551204AEE53D1204AEE53C98
:100660001204AEE53B1204AEE53A1204AE740A126F
:1006700004AE229003E51204B685473A85483B85CF
:10068000493C854A3D12002E7F00E543540F600728
:1006900024301204AE7F01E542C4540F7003EF60B2
:1006A0000CE542C4540F24301204AE7F01E54254DD
:1006B0000F24301204AE74431204AE740D1204AE53
:1006C000740A1204AE2275C80075CDF575CC277575
:1006D000CBF575CA27C2CFD2ADD2CA22C0E0C0D0F6
:1006E000C2CF056FD202D203D218D226057105738C
:1006F000057B301C0B0553E553B41904D21DC21CF5
:10070000301E0B0554E554B41904D21FC21E30200C
:100710000B0555E555B41904D221C22030220B0532
:1007200056E556B41904D223C222301A0B0557E5F8
:0D07300057B41904D21BC21AD0D0D0E03249
:10073D00C00078BE00000000D8FAD00022C000C072
:10074D0001793278DFD8FED9FADAF6D001D000225D
:10075D00D29112073DC29112073D22A2E79281A2CA
:10076D00E69283A2E59285A2E4928712075DA2E349
:10077D009281A2E29283A2E19285A2E09287120772
:10078D005D22D297020768C297020768C291C00224
:10079D007A2812074AD00274331207947433120761
:1007AD009474321207947428120794740C120794DF
:1007BD007401120794C0027A0212074AD00222E491
:1007CD0093600612078FA380F622444044800207EF
:1007DD0094C0E0E8C4540F443012078FE8540F441E
:1007ED003012078FD0E022C0F9A4B0999282F88020
:1007FD00908883C6A1868E9007F4E8C4540F93F5B4
:10080D0092E8540F93F591229007F4E8C4540F9396
:10081D00F594E8540F93F593229007F4E8C4540F20
:10082D0093F58FE8540F93F58E2275F06484F9E5F6
:10083D00F075F00A84C454F045F0F822120837E838
:10084D00C4540F243012078FE8540F243012078F31
:10085D0022C0E0300F04C20F800302099E120B3D2F
:10086D00E560B4003BC0E07401141207D9D0E0C0BC
:10087D0083C082C0E09003301207CCD0E0D082D08C
:10088D0083C0E07401141207D7D0E0C083C082C0CA
:10089D00E09003401207CCD0E0D082D08302099BB8
:1008AD00B4011FC0E07401141207D9D0E0C083C099
:1008BD0082C0E09003A51207CCD0E0D082D0830295
:1008CD00099BB4021FC0E07401141207D9D0E0C017
:1008DD0083C082C0E09003EC1207CCD0E0D082D070
:1008ED00830209D0B4031FC0E07401141207D9D0DC
:1008FD00E0C083C082C0E09003FC1207CCD0E0D0F2
:10090D0082D0830209D0B4041FC0E0740114120711
:10091D00D9D0E0C083C082C0E090040C1207CCD0C7
:10092D00E0D082D0830209D0B4051FC0E074011459
:10093D001207D9D0E0C083C082C0E090041C12071A
:10094D00CCD0E0D082D0830209D0B4061FC0E074B1
:10095D0001141207D9D0E0C083C082C0E090042CEE
:10096D001207CCD0E0D082D0830209D0B4071FC0CB
:10097D00E07401141207D9D0E0C083C082C0E090AA
:10098D00043C1207CCD0E0D082D08302099B020A2E
:10099D002B3001FAC20185473A85483B85493C8594
:1009AD004A3D12002E120B68E560B402028014B4A9
:1009BD000302800FB40402800AB405028005B40658
:1009CD005D8000C0E07401141207D7D0E085473A6E
:1009DD0085483B85493C854A3DE543540F243012FB
:1009ED00078FE542C4540F243012078FE542540F90
:1009FD00243012078F744312078F742012078F1241
:100A0D00078FC0E0740C141207D7D0E0E53112083F
:100A1D0049743A12078FE530120849120673D0E077
:100A2D0022E560B401028001223024FCC224120BA5
:100A3D003DC0E07401141207D9D0E0E561B4001394
:100A4D00C083C082C0E09003501207CCD0E0D082AA
:100A5D00D08322B40114C083C082C0E09003611220
:100A6D0007CCD0E0D082D0838042B40214C083C0C2
:100A7D0082C0E09003721207CCD0E0D082D0838088
:100A8D0046B40314C083C082C0E09003831207CC28
:100A9D00D0E0D082D0838014C083C082C0E09003A8
:100AAD00941207CCD0E0D082D083801BC0E07401BB
:100ABD00141207D7D0E0120B51120B33C0E0744360
:100ACD0012078FD0E08034C0E07401141207D7D024
:100ADD00E0120B51E612078F08E612078F08C0E0EF
:100AED00743A12078FD0E0E612078F08E612078FCF
:100AFD00C0E0747312078FD0E08000E561B402028C
:100B0D00800CB404028007E56A24C0120794E56ADC
:100B1D00B4020104C394024005E56A048002E56A4B
:100B2D0024C012079422E6600612078F0880F72270
:100B3D007401120794C0027A0212074AD002740C93
:100B4D0012079422E561B40103788022B402037880
:100B5D008422B40303788922788D229007F4E5432B
:100B6D00540F93F593E542C4540F93F592E5425417
:100B7D000F93F59122E572B4000A20902F75710044
:100B8D0005728028B40109E571B432200572801C0C
:100B9D00B4020C20900405728012757200800DB4A1
:100BAD00030A309007D215B2ED75720022E574B4C8
:100BBD00000A20B72D75730005748026B40109E570
:100BCD0073B4321E0574801AB4020C20B704057478
:100BDD008010757400800BB4030830B705D21775FB
:100BED00740022E570B4000CE56FB4FA51756F0016
:100BFD000570804AB4010ED2E9E56FB4FA40756F05
:100C0D000005708039B4020ED2EAE56FB4FA2F7583
:100C1D006F0005708028B40325D2EBE56FB4FA1E82
:100C2D00756F00757000D204D201B2E8300D0FE57A
:100C3D003004B43C0775300005318002F53022C018
:100C4D00E0C0D0E560B4020F101102800F753000C6
:100C5D00753100D20D8005B40602C20DD0D0D0E0A2
:100C6D0022C0E0C0D0E560B4032E1010028015E55F
:100C7D00312533F537E5302532F536C3943C400444
:100C8D00F5360537E531C39537403E7007E530C37E
:100C9D0095364035D2088031E560B4052C10100230
:100CAD008015E5312535F539E5302534F538C39412
:100CBD003C4004F5380539E531C39539400B7007D3
:100CCD00E530C395384002D209D0D0D0E022C0E043
:100CDD00C0D0C000C001C002E560B40202800AB4F9
:100CED000402801DB4064D80307847793A120D4CC0
:100CFD00784B793E120D4C12011A200037D2058027
:100D0D00337847793A120D4C784F793E120D4C12CB
:100D1D00011A20001FD206801B7847793A120D4C1C
:100D2D00753E64753F0075400075410012011A3023
:100D3D000002D207D002D001D000D0D0D0E0227A6C
:100D4D0004E6F70809DAFA221002028071C2008562
:100D5D005C3A855D3B855E3C855F3D753EDB753F51
:100D6D000575400075410012015220001D753E01B0
:100D7D00753F007540007541001200D3853A5C85C2
:100D8D003B5D853C5E853D5F8018753A00753B0087
:100D9D00753C00753D00853A5C853B5D853C5E8507
:100DAD003D5F85583E85593F855A40855B4112010F
:100DBD001A200006C293C2EC8004D293D2EC22C05A
:100DCD00E0C0D0C000C001E560B402028003020E95
:100DDD0014201333301430E531602CC21478477968
:100DED003A120D4C753E32753F007540007541004D
:100DFD0012011A300011C293D213D20B7560007517
:100E0D006100120E46D20FC213D001D000D0D0D047
:100E1D00E022C0E0C0D0301211E560B40607C21266
:100E2D00120E418005C212120E3CD0D0D0E02275B8
:100E3D007501800A757505800575750A8000C28C6F
:100E4D00757601757700757800D2A9D28C2230188D
:100E5D0035C218E576602F0577E57770020578E5E0
:100E6D00786023757700757800E576B40106C28C3D
:100E7D00757602221575E5756006757601D28C22A0
:100E8D00C28C7576002222300B05C20B020EA0E536
:100E9D00608008756000D20FD21022B40015301595
:100EAD0004C215800122756001756100D20FD21048
:100EBD00D21222B40120301504C2158001227560B2
:100ECD0002D20FD210D211D212D214C213C2057592
:100EDD00300075310022B4021C301705C217020F05
:100EED0050300506C205C208800122756003D20F7D
:100EFD00D210D21222B4031A301705C217020F50A6
:100F0D00300804C208800122756004D20FD210D2BD
:100F1D001222B4041C301705C217020F50300606FA
:100F2D00C206C209800122756005D20FD210D212FD
:100F3D0022B4051D301704C2178008300904C209F8
:100F4D00800122756006D20FD210D211D212C207C3
:100F5D0022B40612300704C207800122756007D241
:100F6D000FD210D21222B407081015028003020E00
:100F7D00A022C0E0C006C007E560B401327880123F
:100F8D000FC38F4B754C00754D00754E007889124F
:100F9D000FC38F4F75500075510075520078841234
:100FAD000FD78F338E32788D120FD78F358E34D079
:100FBD0007D006D0E0227F00E6600EC39430FDEF2F
:100FCD0075F00AA42DFF0880EF22E6C3943075F06A
:100FDD000AA4FD08E6C394302DFD08E6C3943075D0
:100FED00F00AA4FC08E6C394302CFCEDFFECFE22C5
:100FFD001211DB50FB22C0E0C0D0E560B401074305
:10100D008055E57A80030210BDB4002A30800C3083
:10101D00820E3084103086120210BD757C01800F57
:10102D00757C02800A757C038005757C04800075D3
:10103D007B00057A807AB40109E57BB43272057ABA
:10104D00806EB40226E57CB4010530801A8013B49D
:10105D000205308212800BB4030530840A80033000
:10106D008605757A008049057A8045B40342E57C92
:10107D00B4010530803A8013B40205308232800B02
:10108D00B4030530842A8003308625E57CB4010540
:10109D007561018013B40205756102800BB40305FF
:1010AD007561038003756104756A00D224757A0039
:1010BD00D0D0D0E022E560B40152E561604E12114E
:1010CD001A5049EFB40E0912121ED224756A00226D
:1010DD00EFB40C0122EFC3940A5030EF2430FD120F
:1010ED000B51E56A28F8EDF6056AE561B401028059
:1010FD0005B4030B8000E56AB4030D156A8009E59C
:10110D006AB40404156A8000D224222222C292C23B
:10111D0094C296C2A0A2A282A482A682B05002C39B
:10112D0022120FFDA2A282A482A682B05002C32277
:10113D00D292D294D296D2A0C29230A23D30A43E89
:10114D0030A63F30B040D292C29430A23D30A43E82
:10115D0030A63F30B040D294C29630A23D30A43E6E
:10116D0030A63F30B040D296C2A030A23D30A43E52
:10117D0030A63F30B040D2A0C3227F01803C7F0219
:10118D0080387F0380347F0A80307F04802C7F0578
:10119D0080287F0680247F0B80207F07801C7F089E
:1011AD0080187F0980147F0D80107F0E800C7F00CA
:1011BD0080087F0C80047F0F8000A2A282A482A6EB
:1011CD0082B050F6D3D292D294D296D2A022201AC7
:1011DD000E301B04C21BD322755700D21AC322C373
:1011ED002278801212037889121203788412120F5A
:1011FD00788D12120F227630087630087630087608
:10120D000022763008763008763008763008760081
:10121D0022E561B40106788012120322B402067829
:10122D008412120F22B40306788912120322788DCC
:10123D0012120F221211DB400122E5885410C0E07A
:10124D00C28C75A180000075A1017DFA0000DDFC46
:10125D0085A23A85A33B753C00753D00E53B540FD7
:10126D00F53BD0E06002D28C753E16753F1075408F
:10127D000075410012018C75A10485A23E85A33F26
:10128D0075400075410075A100120280753E6475B0
:10129D003F0075400075410012018C753E2B753F66
:1012AD0005754000754100120280753E16753F00B0
:1012BD007540007541001200D3853A47853B48853E
:1012CD003C49853D4A22755800755900755A00757F
:1012DD005B00E560B402028016B4030520050F80A3
:1012ED001BB404028009B40505200602800E227588
:1012FD0058DC755905755A00755B002275582C75AB
:10130D005901755A00755B0022E560B40004C227CF
:10131D00802CB40104D2278025B40204C227801E7C
:10132D00B40304C2278017B40404C2278010B40587
:10133D0004C2278009B40604C2278002D2271026D2
:10134D00012212135322D2EDC0E0C0D0E57904B4CE
:10135D0014027400F579202709E579C39402400B36
:10136D00800DE579C3940140028004D2B68002C29B
:10137D00B6D0D0D0E022E5584559455A455B60328C
:10138D0085583A85593B855A3C855B3D753EEE75D2
:10139D003F0275400075410012011A200014753E80
:1013AD00DC753F0575400075410012011A200009DA
:1013BD00800EC2B4C2B3C2B222D2B4C2B3C2B22280
:1013CD00D2B4D2B3D2B222E560B400127558007512
:1013DD005900755A00755B001213BF0215D9B4017F
:1013ED0012755800755900755A00755B001213BFC0
:1013FD000215D9B40253854B3A854C3B854D3C853E
:10140D004E3D753E05753F0075400075410012005B
:10141D00F685473E85483F854940854A41C20012C1
:10142D00017810001275582C755901755A00755BAD
:10143D00001213C60215D97558DC755905755A0079
:10144D00755B001213CD0215D9B403051213C680B6
:10145D000302158B854B3A854C3B854D3C854E3DA6
:10146D0085473E85483F854940854A41C200120166
:10147D007810002BC228854B3E854C3F854D40850D
:10148D004E4185473A85483B85493C854A3D12008A
:10149D00F6853A62853B63853C64853D658011D256
:1014AD00281200F6853A62853B63853C64853D656F
:1014BD0085623A85633B85643C85653D753E057562
:1014CD003F0075400075410012018C853A66853BE1
:1014DD0067853C68853D6930282985663A85673B77
:1014ED0085683C85693D753E2C753F0175400075DD
:1014FD0041001200D3853A66853B67853C68853D82
:10150D0069803D753A2C753B01753C00753D008534
:10151D00663E85673F856840856941C20012011AA4
:10152D0030000E756600756700756800756900807E
:10153D000F1200F6853A66853B67853C68853D69E7
:10154D0085663A85673B85683C85693D753EDC75EA
:10155D003F05754000754100C20012013620000F95
:10156D0085665885675985685A85695B0215D975F1
:10157D0058DC755905755A00755B000215D9B40410
:10158D00127558DC755905755A00755B001213CD2F
:10159D000215D9B4051275582C755901755A007577
:1015AD005B001213C60215D9B40612755800755991
:1015BD0000755A00755B001213BF0215D9755800DE
:1015CD00755900755A00755B001213BF2212163241
:1015DD001216C21216321216C212164A1216C21262
:1015ED00164A1216C21216621216C212166212167E
:1015FD00C212164A1216C212167A1216C212167A92
:10160D001216C21216921216C21216921216C21289
:10161D0016AA1216C21216AA1216C21216321216D5
:10162D00C21216C2227F147E1AB295121642DEF92C
:10163D00DFF5C295227D1812073DDDFB227F1F7E4F
:10164D0019B29512165ADEF9DFF5C295227D1012E8
:10165D00073DDDFB227F227E1AB295121672DEF94E
:10166D00DFF5C295227D0E12073DDDFB227F1A7E2E
:10167D001BB29512168ADEF9DFF5C295227D121284
:10168D00073DDDFB227F1A7E19B2951216A2DEF9F7
:10169D00DFF5C295227D1312073DDDFB227F197EFA
:1016AD0018B2951216BADEF9DFF5C295227D151224
:1016BD00073DDDFB227A321216C822C000C0017927
:1016CD00287868D8FED9FADAF6D001D00022E56084
:1016DD00B40004C2C0802CB40104C2C08025B40281
:1016ED0004C2C0801EB40304C2C08017B40404C277
:1016FD00C08010B40504C2C08009B40604D2C080F5
:10170D0002C2C022C0E07401141207D9D0E0C08318
:10171D00C082C0E090044C1207CCD0E0D082D083C0
:10172D00C0E07401141207D7D0E0C083C082C0E0BE
:10173D0090045C1207CCD0E0D082D08322C2AF756A
:10174D0081C078FA79FFD9FED8FA759AAA759BFEF1
:10175D00759C01759D5C75C10175E800759500D28C
:10176D00AF757000756000756100756F00753000A4
:10177D00753100753200753300753400753500759F
:10178D003600753700753800753900755C00755D6C
:10179D0000755E00755F00755B00755A0075590226
:1017AD007558EE757200757400757100757300755E
:1017BD007600757500757700757800757A00757B04
:1017CD0000757C00757900757D00757E00C218C2AC
:1017DD008CC295C219C213C20BC215C216C217C252
:1017ED0001C204C20EC20DC224C205C208C206C285
:1017FD0009C207C210C211C212C226C229C2C0C27A
:10180D0093C2B4C2B3C2B2D20FD214120B3D12178F
:10181D001112047D1206C61207991211EE120497C9
:10182D001215DA120BF0120E94120B82120BBA1261
:10183D001241120CDB1213D4120DCC120C4C120FE0
:10184D007F1204CC120525120A2E1210031210C29B
:10185D0012085E120C6E120D55120E5B121316123B
:08186D000E1F1216DB021830F9
:00000001FF
