:0300000002099A58
:0100030032CA
:03000B00020414D8
:0100130032BA
:01001B0032B2
:0100230032AA
:03002B0002047F4D
:10002E00C0E0C0D0C000C001C002C035C034C03373
:10003E00C032E4F53AF53BF53CF53DF53E7A20E568
:10004E0035A2E779047832E633F608D9FA790578DD
:10005E003AE636D4F608D9F9DAE5D032D033D034D0
:10006E00D035D002D001D000D0D0D0E022C0E0C038
:10007E00D0C000C001C002C03EC03DC03CC03BC0AD
:10008E003A7A207905C3783EE613C0D030E70224D1
:10009E00D030E30224FDF618D0D0D9EC79047835AF
:1000AE00E613F618D9FADADBD200E53A7002C2008E
:1000BE00D03AD03BD03CD03DD03ED002D001D00083
:1000CE00D0D0D0E022C0E0C0D0E5322536F532E502
:1000DE00333537F533E5343538F534E5353539F51F
:1000EE00359200D0D0D0E022C0E0C0D0C3E532952A
:1000FE0036F532E5339537F533E5349538F534E595
:10010E00359539F5359200D0D0D0E022C0E0C0D080
:10011E00C3E5329536E5339537E5349538E53595B3
:10012E00399200D0D0D0E022C0E0C0D0C3E53695E1
:10013E0032E5379533E5389534E53995359200D06B
:10014E00D0D0E022C0E0C0D0C200C3E536953270F8
:10015E0014E5379533700EE53895347008E539950A
:10016E00357002D200D0D0D0E0221201522000030E
:10017E000201362212015220000302011A22C0E0AF
:10018E00C0F0C0D0C000C001C002C003C004C00592
:10019E00E5328536F0A4F8A9F0E5338536F0A429CA
:1001AE00F9E435F0FAE5328537F0A429F9E5F03AAD
:1001BE00FAE433FBE5348536F0A42AFAE5F03BFB8E
:1001CE00E5338537F0A42AFAE5F03BFBE5328538B6
:1001DE00F0A42AFAE5F03BFBE5358536F0A42BFBBF
:1001EE00ACF07D00E5348537F0A42BFBE5F03CFC4C
:1001FE00E43DFDE5338538F0A42BFBE5F03CFCE453
:10020E003DFDE5328539F0A42BFBE5F03CFCE43DE9
:10021E00FDEC4DFCE5358537F0A445F04CFCE5349E
:10022E008538F0A445F04CFCE5338539F0A445F053
:10023E004CFCE5358538F0A445F04CFCE5348539A9
:10024E00F0A445F04CFCE5358539F0A445F04CFCA6
:10025E008B358A3489338832D200BC0002C200D07A
:10026E0005D004D003D002D001D000D0D0D0F0D031
:10027E00E022C0E0C0D0C000C001C002C003C00474
:10028E00E5364537453845397005D2000202EBC2D6
:10029E00007C20E4F8F9FAFBC3E53233F532E5339E
:1002AE0033F533E53433F534E53533F535E833F8E6
:1002BE00E933F9EA33FAEB33FBC3E89536E99537C0
:1002CE00EA9538EB95394013E89536F8E99537F904
:1002DE00EA9538FAEB9539FB433201DCBBD004D0FA
:1002EE0003D002D001D000D0D0D0E02285323685A6
:1002FE00333785343885353922E532C536F532E562
:10030E0033C537F533E534C538F534E535C539F53C
:02031E00352286
:10032000696E697469616C206D65737361676500DE
:1003300057656C636F6D65202020202020202000F1
:1003400050726573732050423020202020202000FE
:1003500053657420506172616D657465727320001D
:10036000536F616B2054656D703A005265666C6F17
:10037000772054656D703A00536F616B2054696D3E
:10038000653A005265666C6F772054696D653A0076
:1003900052616D7020746F20536F616B20202000BC
:1003A000536F616B2050686173652020202020000E
:1003B00052616D7020746F205265666C6F772000FB
:1003C0005265666C6F77205068617365202020004D
:1003D000436F6F6C696E6720202020202020200052
:1003E00050726F6365737320446F6E652020200028
:1003F00020202020202020202020202020202020FD
:1004000000E58954F04401F589758CFD758A5AD24E
:10041000A9D28C22758CFD758A5AB29532C28E5340
:10042000890F438920438780758DFD758BFDD28EA2
:100430007598522210990280FBF59922E493600688
:10044000120434A380F62274AA12043474551204E0
:1004500034E535120434E534120434E5331204343F
:10046000E532120434740A1204342275C80075CDC2
:10047000F575CC2775CBF575CA27D2ADD2CA22C087
:10048000E0C0D0C2CF055F0560D202D203D0D0D089
:02049000E03258
:10049200C00078BE00000000D8FAD00022C000C020
:1004A20001793278DFD8FED9FADAF6D001D000220B
:1004B200D2B3120492C2B312049222A2E792A3A26E
:1004C200E692A5A2E592A7A2E492B11204B2A2E337
:1004D20092A3A2E292A5A2E192A7A2E092B1120493
:1004E200B222D2B70204BDC2B70204BDC2B3C00277
:1004F2007A2812049FD00274331204E9743312046E
:10050200E974321204E974281204E9740C1204E941
:1005120074011204E9C0027A0212049FD00222E49A
:100522009360061204E4A380F6224440448002044D
:10053200E9C0E0E8C4540F44301204E4E8540F4424
:10054200301204E4D0E022C0F9A4B0999282F8807B
:10055200908883C6A1868E900549E8C4540F93F50E
:1005620092E8540F93F59122900549E8C4540F93F1
:10057200F594E8540F93F59322900549E8C4540F7B
:1005820093F58FE8540F93F58E2275F06484F9E5A4
:10059200F075F00A84C454F045F0F822C0E0100D62
:1005A200030206D4E563B4003BC0E07401141205F3
:1005B2002ED0E0C083C082C0E0900330120521D06B
:1005C200E0D082D083C0E074011412052CD0E0C0C8
:1005D20083C082C0E0900340120521D0E0D082D0D7
:1005E200830206D4B4011FC0E074011412052ED098
:1005F200E0C083C082C0E0900350120521D0E0D059
:1006020082D0830206D4B4021FC0E0740114120522
:100612002ED0E0C083C082C0E0900390120521D0AA
:10062200E0D082D0830206D4B4031FC0E074011468
:1006320012052ED0E0C083C082C0E09003A0120554
:1006420021D0E0D082D0830206D4B4041FC0E0746B
:10065200011412052ED0E0C083C082C0E09003B026
:10066200120521D0E0D082D0830206D4B4051FC087
:10067200E074011412052ED0E0C083C082C0E09065
:1006820003C0120521D0E0D082D0830206D4B40682
:100692001FC0E074011412052ED0E0C083C082C0D6
:1006A200E09003D0120521D0E0D082D0830206D49C
:1006B200B4071FC0E074011412052ED0E0C083C03D
:1006C20082C0E09003E0120521D0E0D082D0830204
:1006D20006D4D0E022E561B4000A20F92D755F004E
:1006E20005618026B40109E55FB4321E0561801AF6
:1006F200B4020C20F90405618010756100800BB40E
:10070200030830F905D20E75610022E562B4000CCF
:10071200E560B4FA4775600005628040B4010ED20C
:10072200E9E560B4FA367560000562802FB4020E06
:10073200D2EAE560B4FA257560000562801EB40352
:100742001BD2EBE560B4FA14756000756200E53007
:10075200B43B0575300080040530B2E82210020275
:100762008071C200855B32855C33855D34855E3580
:100772007536DB7537057538007539001201522060
:10078200001D753601753700753800753900120085
:10079200D385325B85335C85345D85355E80187523
:1007A200320075330075340075350085325B853350
:1007B2005C85345D85355E85573685583785593871
:1007C200855A3912011A200006C293C2EC8004D263
:1007D20093D2EC22E563B40004C214802CB4010469
:1007E200D2148025B40204C214801EB40304C214BD
:1007F2008017B40404C2148010B40504C214800922
:10080200B40604C2148002D2141003012212081387
:1008120022C0E0C0D0D2EDE56404B414027400F545
:1008220064201409E564C39402400B800DE564C39F
:10083200940140028004D2948002C294D0D0D0E0CD
:1008420022C0E0C0D0C000C001C002783F7932129D
:1008520008C5784379361208C512011A200002D25F
:1008620004783F79321208C5784779361208C512E2
:10087200011A200002D205D002D001D000D0D0D07F
:10088200E022C0E0C0D0C000C001C002784B793283
:100892001208C5784F79361208C512011A200002D3
:1008A200D207784B79321208C5785379361208C5C7
:1008B20012011A200002D208D002D001D000D0D0FA
:1008C200D0E0227A04E6F70809DAFA22C0E0C0D0C2
:1008D200C000C001C002200F3D30103A784B79327F
:1008E2001208C575363C7537007538007539001227
:1008F200011A200021C210783F79321208C57536DC
:100902003275370075380075390012011A30000649
:10091200D20FD20AC293D002D001D000D0D0D0E000
:1009220022E5638005756300D20DB400091011023F
:1009320080650563D20DB4010E1012028059100CAD
:100942000280540563D20DB4020C1013321004025B
:1009520080450563D20DB4030C10132310070280E7
:10096200360563D20DB4040C10131410050280274F
:100972000563D20DB4050C1013051008028018058A
:1009820063D20DB40611100602800C0563D20DB4B9
:10099200070510119080002275817F759A7F759BE3
:1009A2003A759CFF759DFF75E800759500D2AF758D
:1009B2006100756200756300755F007560007530D7
:1009C20000753100755B00755C00755D00755E0039
:1009D200755A007559007558027557EEC20FC20A52
:1009E200C211C212C213C201C20CC204C207C205A2
:1009F200C208C206C20DD21012040112046B120404
:100A0200EE12041D1206D712070D12092312059EBB
:090A120012075F1207D6020A0662
:00000001FF
