:03000000020BC12F
:0100030032CA
:03000B0002046E7E
:0100130032BA
:01001B0032B2
:0100230032AA
:03002B0002052E9D
:10002E00C0E0C0D0C000C001C002C035C034C03373
:10003E00C032E4F53AF53BF53CF53DF53E7A20E568
:10004E0035A2E779047832E633F608D9FA790578DD
:10005E003AE636D4F608D9F9DAE5D032D033D034D0
:10006E00D035D002D001D000D0D0D0E022C0E0C038
:10007E00D0C000C001C002C03EC03DC03CC03BC0AD
:10008E003A7A207905C3783EE613C0D030E70224D1
:10009E00D030E30224FDF618D0D0D9EC79047835AF
:1000AE00E613F618D9FADADBD200E53A7002C2008E
:1000BE00D03AD03BD03CD03DD03ED002D001D00083
:1000CE00D0D0D0E022C0E0C0D0E5322536F532E502
:1000DE00333537F533E5343538F534E5353539F51F
:1000EE00359200D0D0D0E022C0E0C0D0C3E532952A
:1000FE0036F532E5339537F533E5349538F534E595
:10010E00359539F5359200D0D0D0E022C0E0C0D080
:10011E00C3E5329536E5339537E5349538E53595B3
:10012E00399200D0D0D0E022C0E0C0D0C3E53695E1
:10013E0032E5379533E5389534E53995359200D06B
:10014E00D0D0E022C0E0C0D0C200C3E536953270F8
:10015E0014E5379533700EE53895347008E539950A
:10016E00357002D200D0D0D0E0221201522000030E
:10017E000201362212015220000302011A22C0E0AF
:10018E00C0F0C0D0C000C001C002C003C004C00592
:10019E00E5328536F0A4F8A9F0E5338536F0A429CA
:1001AE00F9E435F0FAE5328537F0A429F9E5F03AAD
:1001BE00FAE433FBE5348536F0A42AFAE5F03BFB8E
:1001CE00E5338537F0A42AFAE5F03BFBE5328538B6
:1001DE00F0A42AFAE5F03BFBE5358536F0A42BFBBF
:1001EE00ACF07D00E5348537F0A42BFBE5F03CFC4C
:1001FE00E43DFDE5338538F0A42BFBE5F03CFCE453
:10020E003DFDE5328539F0A42BFBE5F03CFCE43DE9
:10021E00FDEC4DFCE5358537F0A445F04CFCE5349E
:10022E008538F0A445F04CFCE5338539F0A445F053
:10023E004CFCE5358538F0A445F04CFCE5348539A9
:10024E00F0A445F04CFCE5358539F0A445F04CFCA6
:10025E008B358A3489338832D200BC0002C200D07A
:10026E0005D004D003D002D001D000D0D0D0F0D031
:10027E00E022C0E0C0D0C000C001C002C003C00474
:10028E00E5364537453845397005D2000202EBC2D6
:10029E00007C20E4F8F9FAFBC3E53233F532E5339E
:1002AE0033F533E53433F534E53533F535E833F8E6
:1002BE00E933F9EA33FAEB33FBC3E89536E99537C0
:1002CE00EA9538EB95394013E89536F8E99537F904
:1002DE00EA9538FAEB9539FB433201DCBBD004D0FA
:1002EE0003D002D001D000D0D0D0E02285323685A6
:1002FE00333785343885353922E532C536F532E562
:10030E0033C537F533E534C538F534E535C539F53C
:02031E00352286
:10032000696E697469616C206D65737361676500DE
:1003300057656C636F6D65202020202020202000F1
:1003400050726573732050423020202020202000FE
:1003500053656C656374204D6F64653A20202020DE
:100360000053657420536F616B2054656D702020BD
:10037000200053657420536F616B2054696D6520B4
:10038000202000536574205265666C6F7720546599
:100390006D702000536574205265666C6F77205431
:1003A000696D65200053657420506172616D6574DC
:1003B0006572732000536F616B2054656D703A0055
:1003C0005265666C6F772054656D703A00536F61AB
:1003D0006B2054696D653A005265666C6F772054E6
:1003E000696D653A0054656D703A200052616D7018
:1003F00020746F20536F616B20202000536F616B5E
:1004000020506861736520202020200052616D70AB
:1004100020746F205265666C6F7720005265666CA1
:100420006F7720506861736520202000436F6F6CE8
:10043000696E6720202020202020200050726F63EA
:1004400065737320446F6E652020200020202020DB
:1004500020202020202020202020202000E589545A
:10046000F04401F589758CFD758A5AD2A922758CE4
:10047000FD758A5AB29532C28E53890F4389204343
:100480008780758DFD758BFDD28E759852221099DF
:100490000280FBF59922E493600612048EA380F695
:1004A0002274AA12048E745512048EE53512048E3D
:1004B000E53412048EE53312048EE53212048E7494
:1004C0000A12048E229003E5120496853F3285407D
:1004D0003385413485423512002E7F00E53B540FB1
:1004E0006007243012048E7F01E53AC4540F700374
:1004F000EF600CE53AC4540F243012048E7F01E5FE
:100500003A540F243012048E744312048E740D1268
:10051000048E740A12048E2275C80075CDF575CC50
:100520002775CBF575CA27C2CFD2ADD2CA22C0E09B
:10053000C0D0C2CF05640565D202D213D21E3016D8
:100540000B054BE54BB41904D217C21630180B0536
:100550004CE54CB41904D219C218301A0B054DE5FC
:100560004DB41904D21BC21A301C0B054EE54EB413
:100570001904D21DC21C30140B054FE54FB41904E9
:09058000D215C214D0D0D0E03233
:10058900C00078BE00000000D8FAD00022C000C028
:1005990001793278DFD8FED9FADAF6D001D0002213
:1005A900D291120589C29112058922A2E79281A2EC
:1005B900E69283A2E59285A2E492871205A9A2E3B5
:1005C9009281A2E29283A2E19285A2E0928712052A
:1005D900A922D2970205B4C2970205B4C291C002FA
:1005E9007A28120596D00274331205E07433120585
:1005F900E074321205E074281205E0740C1205E06B
:1006090074011205E0C0027A02120596D00222E4B2
:100619009360061205DBA380F6224440448002055C
:10062900E0C0E0E8C4540F44301205DBE8540F443D
:10063900301205DBD0E022C0F9A4B0999282F8808B
:10064900908883C6A1868E900640E8C4540F93F51E
:1006590092E8540F93F59122900640E8C4540F9301
:10066900F594E8540F93F59322900640E8C4540F8B
:1006790093F58FE8540F93F58E2275F06484F9E5AC
:10068900F075F00A84C454F045F0F822120683E8A4
:10069900C4540F24301205DBE8540F24301205DB53
:1006A90022C0E0200C030207E8C20C121008E5681A
:1006B900B4003BC0E0740114120625D0E0C083C029
:1006C90082C0E0900330120618D0E0D082D083C0F7
:1006D900E0740114120623D0E0C083C082C0E09008
:1006E9000340120618D0E0D082D0830207E5B40196
:1006F9001FC0E0740114120625D0E0C083C082C077
:10070900E09003A5120618D0E0D082D0830207E555
:10071900B4021FC0E0740114120625D0E0C083C0E2
:1007290082C0E09003EC120618D0E0D082D0830298
:100739000808B4031FC0E0740114120625D0E0C0F4
:1007490083C082C0E09003FC120618D0E0D082D0AA
:1007590083020808B4041FC0E0740114120625D0EE
:10076900E0C083C082C0E090040C120618D0E0D02B
:1007790082D083020808B4051FC0E0740114120670
:1007890025D0E0C083C082C0E090041C120618D0B6
:10079900E0D082D083020808B4061FC0E0740114B7
:1007A900120625D0E0C083C082C0E090042C120656
:1007B90018D0E0D082D083020808B4071FC0E074C3
:1007C9000114120625D0E0C083C082C0E090043C29
:1007D900120618D0E0D082D0830207E502086930FA
:1007E90001FAC201E568B402028014B40302800F61
:1007F900B40402800AB405028005B406638000C00F
:10080900E0740114120623D0E0853F328540338518
:10081900413485423512002E12086CE53B540F24F1
:10082900301205DBE53AC4540F24301205DBE53AF2
:10083900540F24301205DB74431205DB74201205B2
:10084900DB1205DBC0E0740C14120623D0E0E5319D
:10085900120695743A1205DBE5301206951204C5A5
:10086900D0E022900640E53B540F93F593E53AC456
:10087900540F93F592E53A540F93F59122E566B436
:10088900000A20F92D75640005668026B40109E582
:1008990064B4321E0566801AB4020C20F904056698
:1008A9008010756600800BB4030830F905D20D7508
:1008B900660022E567B4000CE565B4FA4B7565007E
:1008C90005678044B4010ED2E9E565B4FA3A756565
:1008D9000005678033B4020ED2EAE565B4FA2975DA
:1008E900650005678022B4031FD2EBE565B4FA18E9
:1008F900756500756700D201E530B43B07753000B6
:10090900053180040530B2E8221002028071C2006C
:100919008560328561338562348563357536DB756B
:10092900370575380075390012015220001D7536DA
:10093900017537007538007539001200D3853260AA
:100949008533618534628535638018753200753366
:1009590000753400753500853260853361853462F0
:10096900853563855C36855D37855E38855F3912E7
:10097900011A200006C293C2EC8004D293D2EC2261
:10098900C203C204C0E0C0D0C000C001C002783FA9
:100999007932120A0F78437936120A0F12011A2096
:1009A9000002D203783F7932120A0F78477936125A
:1009B9000A0F12011A200002D204D002D001D0007D
:1009C900D0D0D0E022C0E0C0D0C000C001C00278C1
:1009D900507932120A0F78547936120A0F12011A15
:1009E900200002D20678507932120A0F78587936E7
:1009F900120A0F12011A200002D207D002D001D028
:100A090000D0D0D0E0227A04E6F70809DAFA22C049
:100A1900E0C0D0C000C001C002E568B40202800392
:100A2900020A77200E48300F4578507932120A0FA2
:100A390075363C75370075380075390012011A2072
:100A490000DEC20F783F7932120A0F7536327537D8
:100A59000075380075390012011A3000C3C293D2EB
:100A69000ED209120A8C756800756900D20CD00281
:100A7900D001D000D0D0D0E022757301800A7573FF
:100A890005800575730A8000C28C7574017575003F
:100A9900757600D2A9D28C22301335C213E5746061
:100AA9002F0575E57570020576E576602375750085
:100AB900757600E574B40106C28C7574022215734B
:100AC900E5736006757401D28C22C28C757400229C
:100AD90022E5688005756800D20CB40015209005E0
:100AE9001210328001220568756900120F10D20CAC
:100AF900E568B40127120D48120D942090081210D0
:100B090032120CCC8001220568E568D20C120A82E7
:100B1900D20FC20E753000753100C203B4021F3006
:100B29001205C212020B98300313C2030568E56867
:100B3900D20C120A82753000753100C20622B40344
:100B490015301205C212020B98300609C206056853
:100B5900D20C120A8222B4041D301205C212020BF1
:100B690098300411C2040568D20C120A827530004B
:100B7900753100C20722B405028003020B9F3012AF
:100B890005C212020B98300705C207020B9822050D
:100B990068D20C120A87B4060A300506C205056830
:100BA900D20C22B4071120100920900B1210320226
:100BB9000ADEC210020ADE22C2AF7581C078FA7954
:100BC900FFD9FED8FA759AAA759BFE759C01759D89
:100BD9005C75C10175E800759500D2AF7566007541
:100BE9006700756800756900756400756500753082
:100BF90000753100756000756100756200756300EC
:100C0900755F00755E00755D02755CEEC20EC20906
:100C1900C210C211C212C201C20BC203C206C2046F
:100C2900C207C205C20CC21EC2C0D20CD20F757453
:100C390000757300757500757600C213C28C1204B5
:100C49005D1205181205E5120EBD120F1012047778
:100C59001213B630B702800302103A120886121036
:100C6900401209891212091211B8853132753300FF
:100C790075340075350075363C7537007538007563
:100C8900390012018C853036753700753800753991
:100C9900001200D38532508533518534528535533E
:100CA9001209CE120A181208BC120ADA1206AA3060
:100CB9000202D213120912120AA11211151211827B
:100CC900020C5C7880120D0B8F437544007545004A
:100CD9007546007889120D0B8F47754800754900D4
:100CE900754A007884120D1F8F548E5575560075FC
:100CF9005700788D120D1F8F588E59755A00755BE4
:100D090000227F00E6600EC39430FDEF75F00AA45F
:100D19002DFF0880EF22E6943075F00AA4FD08E65D
:100D290094302DFD08E6943075F00AA4FC08E69489
:100D3900302CED75F03CA42CFFE5F03400FE224385
:100D4900805530800A30821230841A30862222126D
:100D5900100275690175720080211210027569020D
:100D69007572008016121002756903757200800B86
:100D790012100275690475720080003080FD30829E
:100D8900FD3084FD3086FD120F1022E56960501296
:100D99000DE9504BEFB40E0A120EED120F107572D9
:100DA9000022EFB40C0122EFC3940A5031EF243032
:100DB900FD12101BE57228F8EDF60572E569B4011C
:100DC900028005B4030B8000E572B4030D1572802F
:100DD90009E572B4040415728000120F1022222250
:100DE900C292C294C296C2A0A2A282A482A682B0D2
:100DF9005002C322121002A2A282A482A682B0507B
:100E090002C322D292D294D296D2A0C29230A23DEB
:100E190030A43E30A63F30B040D292C29430A23DB9
:100E290030A43E30A63F30B040D294C29630A23DA5
:100E390030A43E30A63F30B040D296C2A030A23D89
:100E490030A43E30A63F30B040D2A0C3227F0180FB
:100E59003C7F0280387F0380347F0A80307F0480A2
:100E69002C7F0580287F0680247F0B80207F0780C8
:100E79001C7F0880187F0980147F0D80107F0E80E9
:100E89000C7F0080087F0C80047F0F8000A2A28263
:100E9900A482A682B050F6D3D292D294D296D2A08E
:100EA9002220140E301504C215D322754F00D21416
:100EB900C322C3227880120ED27889120ED2788486
:100EC900120EDE788D120EDE227630087630087624
:100ED9003008760022763008763008763008763089
:100EE90008760022E569B401067880120ED222B490
:100EF90002067884120EDE22B403067889120ED215
:100F090022788D120EDE22121008C0E0740114122C
:100F19000625D0E0E569B40013C083C082C0E09023
:100F29000350120618D0E0D082D08322B40114C035
:100F390083C082C0E0900361120618D0E0D082D04D
:100F4900838042B40214C083C082C0E0900372124D
:100F59000618D0E0D082D0838042B40314C083C085
:100F690082C0E0900383120618D0E0D082D083803B
:100F790014C083C082C0E0900394120618D0E0D058
:100F890082D0838017C0E0740114120623D0E012C6
:100F9900101B120FF874431205DB8027C0E074019F
:100FA90014120623D0E012101BE61205DB08E61224
:100FB90005DB08743A1205DBE61205DB08E61205C3
:100FC900DB8000E569B40202800DB404028008E503
:100FD9007224C01205E022E572B4020104C394022E
:100FE9004005E572048002E57224C01205E022E69C
:100FF90060061205DB0880F722120EAA50FB227444
:10100900011205E078FF79FFD9FED8FA740C1205B0
:10101900E022E569B40103788022B40203788422CE
:10102900B40303788922788D223090FD2230B7FDF0
:1010390022121036020BC1120EAA400122E5885471
:1010490010C0E0C28C75A180000075A1017DFA0075
:1010590000DDFC85A23285A333753400753500E5C2
:1010690033540FF533D0E06002D28C7536167537DC
:101079001075380075390012018C75A10485A236E6
:1010890085A33775380075390075A100120280757E
:10109900366475370075380075390012018C75365C
:1010A9002B753705753800753900120280753616AB
:1010B9007537007538007539001200D385323F85C0
:1010C900334085344185354222755C00755D007574
:1010D9005E00755F00E568B402028016B40305205E
:1010E900030F801BB404028009B4050520040280A3
:1010F9000E22755CDC755D05755E00755F002275F5
:101109005C2C755D01755E00755F0022E568B400B1
:1011190004C21F802CB40104D21F8025B40204C26A
:101129001F801EB40304C21F8017B40404C21F80A9
:1011390010B40504C21F8009B40604C21F8002D27C
:101149001F101E012212115222D2EDC0E0C0D0E5BB
:101159007704B414027400F577201F09E577C39466
:1011690002400B800DE577C3940140028004D2B69A
:101179008002C2B6D0D0D0E022E568B40004C2C073
:10118900802CB40104C2C08025B40204C2C0801EF0
:10119900B40304C2C08017B40404C2C08010B405EB
:1011A90004C2C08009B40604D2C08002C2C022E5CC
:1011B9005C455D455E455F6032855C32855D3385A2
:1011C9005E34855F357536EE7537027538007539C9
:1011D9000012011A2000147536DC753705753800C0
:1011E90075390012011A200009800EC2B4C2B3C2B7
:1011F900B222D2B4D2B3C2B222D2B4D2B3D2B222C0
:10120900E568B4000F755C00755D00755E00755F7B
:10121900000213B5B4010F755C00755D00755E00C1
:10122900755F000213B5B4020F755CDC755D057559
:101239005E00755F000213B5B403028003021373E5
:10124900854332854433854534854635853F368522
:101259004037854138854239C20012017810002B88
:10126900C220854336854437854538854639853FCB
:10127900328540338541348542351200F685326A1C
:1012890085336B85346C85356D8011D2201200F65B
:1012990085326A85336B85346C85356D856A32850F
:1012A9006B33856C34856D35753605753700753842
:1012B9000075390012018C85326E85336F85347063
:1012C900853571302029856E32856F338570348577
:1012D900713575362C75370175380075390012006E
:1012E900D385326E85336F853470853571803D7550
:1012F900322C753301753400753500856E36856F6E
:1013090037857038857139C20012011A30000E759F
:101319006E00756F00757000757100800F1200F610
:1013290085326E85336F853470853571856E32856A
:101339006F338570348571357536DC7537057538C9
:1013490000753900C20012013620000F856E5C85D8
:101359006F5D85705E85715F0213B5755CDC755DC7
:1013690005755E00755F000213B5B4040F755CDC8A
:10137900755D05755E00755F000213B5B4050F75DF
:101389005C2C755D01755E00755F000213B5B406CE
:101399000F755C00755D00755E00755F000213B521
:1013A900755C00755D00755E00755F002212140E94
:1013B90012149E12140E12149E12142612149E1246
:1013C900142612149E12143E12149E12143E121464
:1013D9009E12142612149E12145612149E1214569A
:1013E90012149E12146E12149E12146E12149E126E
:1013F900148612149E12148612149E12140E1214BC
:101409009E12149E227F147E1AB29512141EDEF9C2
:10141900DFF5C295227D18120589DDFB227F1F7E2B
:1014290019B295121436DEF9DFF5C295227D101234
:101439000589DDFB227F227E1AB29512144EDEF950
:10144900DFF5C295227D0E120589DDFB227F1A7E0A
:101459001BB295121466DEF9DFF5C295227D1212D0
:101469000589DDFB227F1A7E19B29512147EDEF9F9
:10147900DFF5C295227D13120589DDFB227F197ED6
:1014890018B295121496DEF9DFF5C295227D151270
:101499000589DDFB227AFA1214A422C000C0017961
:0E14A900287868D8FED9FADAF6D001D00022F1
:00000001FF
