:03000000020B17D9
:0100030032CA
:03000B0002046785
:0100130032BA
:01001B0032B2
:0100230032AA
:03002B000204D4F8
:10002E00C0E0C0D0C000C001C002C035C034C03373
:10003E00C032E4F53AF53BF53CF53DF53E7A20E568
:10004E0035A2E779047832E633F608D9FA790578DD
:10005E003AE636D4F608D9F9DAE5D032D033D034D0
:10006E00D035D002D001D000D0D0D0E022C0E0C038
:10007E00D0C000C001C002C03EC03DC03CC03BC0AD
:10008E003A7A207905C3783EE613C0D030E70224D1
:10009E00D030E30224FDF618D0D0D9EC79047835AF
:1000AE00E613F618D9FADADBD200E53A7002C2008E
:1000BE00D03AD03BD03CD03DD03ED002D001D00083
:1000CE00D0D0D0E022C0E0C0D0E5322536F532E502
:1000DE00333537F533E5343538F534E5353539F51F
:1000EE00359200D0D0D0E022C0E0C0D0C3E532952A
:1000FE0036F532E5339537F533E5349538F534E595
:10010E00359539F5359200D0D0D0E022C0E0C0D080
:10011E00C3E5329536E5339537E5349538E53595B3
:10012E00399200D0D0D0E022C0E0C0D0C3E53695E1
:10013E0032E5379533E5389534E53995359200D06B
:10014E00D0D0E022C0E0C0D0C200C3E536953270F8
:10015E0014E5379533700EE53895347008E539950A
:10016E00357002D200D0D0D0E0221201522000030E
:10017E000201362212015220000302011A22C0E0AF
:10018E00C0F0C0D0C000C001C002C003C004C00592
:10019E00E5328536F0A4F8A9F0E5338536F0A429CA
:1001AE00F9E435F0FAE5328537F0A429F9E5F03AAD
:1001BE00FAE433FBE5348536F0A42AFAE5F03BFB8E
:1001CE00E5338537F0A42AFAE5F03BFBE5328538B6
:1001DE00F0A42AFAE5F03BFBE5358536F0A42BFBBF
:1001EE00ACF07D00E5348537F0A42BFBE5F03CFC4C
:1001FE00E43DFDE5338538F0A42BFBE5F03CFCE453
:10020E003DFDE5328539F0A42BFBE5F03CFCE43DE9
:10021E00FDEC4DFCE5358537F0A445F04CFCE5349E
:10022E008538F0A445F04CFCE5338539F0A445F053
:10023E004CFCE5358538F0A445F04CFCE5348539A9
:10024E00F0A445F04CFCE5358539F0A445F04CFCA6
:10025E008B358A3489338832D200BC0002C200D07A
:10026E0005D004D003D002D001D000D0D0D0F0D031
:10027E00E022C0E0C0D0C000C001C002C003C00474
:10028E00E5364537453845397005D2000202EBC2D6
:10029E00007C20E4F8F9FAFBC3E53233F532E5339E
:1002AE0033F533E53433F534E53533F535E833F8E6
:1002BE00E933F9EA33FAEB33FBC3E89536E99537C0
:1002CE00EA9538EB95394013E89536F8E99537F904
:1002DE00EA9538FAEB9539FB433201DCBBD004D0FA
:1002EE0003D002D001D000D0D0D0E02285323685A6
:1002FE00333785343885353922E532C536F532E562
:10030E0033C537F533E534C538F534E535C539F53C
:02031E00352286
:10032000696E697469616C206D65737361676500DE
:1003300057656C636F6D65202020202020202000F1
:1003400050726573732050423020202020202000FE
:1003500053656C656374204D6F64653A20202020DE
:100360000053657420536F616B2054656D702020BD
:10037000200053657420536F616B2054696D6520B4
:10038000202000536574205265666C6F7720546599
:100390006D702000536574205265666C6F77205431
:1003A000696D65200053657420506172616D6574DC
:1003B0006572732000536F616B2054656D703A0055
:1003C0005265666C6F772054656D703A00536F61AB
:1003D0006B2054696D653A005265666C6F772054E6
:1003E000696D653A0052616D7020746F20536F61C2
:1003F0006B20202000536F616B2050686173652073
:10040000202020200052616D7020746F205265669C
:100410006C6F7720005265666C6F7720506861734F
:100420006520202000436F6F6C696E6720202020BC
:10043000202020200050726F6365737320446F6E1C
:100440006520202000202020202020202020202087
:10045000202020202000E58954F04401F589758C86
:10046000FD758A5AD2A922758CFD758A5AB29532C9
:10047000C28E53890F438920438780758DFD758B0C
:10048000FDD28E7598522210990280FBF59922E4D4
:10049000936006120487A380F62274AA120487745C
:1004A00055120487E535120487E534120487E533D5
:1004B000120487E532120487740A1204872275C871
:1004C0000075CDF575CC2775CBF575CA27C2CFD28F
:1004D000ADD2CA22C0E0C0D0C2CF05640565D20249
:1004E000D21330160B054BE54BB41904D217C216C4
:1004F00030180B054CE54CB41904D219C218301A47
:100500000B054DE54DB41904D21BC21A301C0B0566
:100510004EE54EB41904D21DC21C30140B054FE534
:0D0520004FB41904D215C214D0D0D0E0326F
:10052D00C00078BE00000000D8FAD00022C000C084
:10053D0001793278DFD8FED9FADAF6D001D000226F
:10054D00D29112052DC29112052D22A2E79281A200
:10055D00E69283A2E59285A2E4928712054DA2E36D
:10056D009281A2E29283A2E19285A2E09287120586
:10057D004D22D297020558C297020558C291C0026A
:10058D007A2812053AD00274331205847433120599
:10059D008474321205847428120584740C12058437
:1005AD007401120584C0027A0212053AD00222E4C7
:1005BD0093600612057FA380F62244404480020515
:1005CD0084C0E0E8C4540F443012057FE8540F4452
:1005DD003012057FD0E022C0F9A4B0999282F88044
:1005ED00908883C6A1868E9005E4E8C4540F93F5D8
:1005FD0092E8540F93F591229005E4E8C4540F93BB
:10060D00F594E8540F93F593229005E4E8C4540F44
:10061D0093F58FE8540F93F58E2275F06484F9E508
:10062D00F075F00A84C454F045F0F822C0E0200CB7
:10063D0003020777C20C120F43E568B4003BC0E01C
:10064D007401141205C9D0E0C083C082C0E09003CC
:10065D00301205BCD0E0D082D083C0E074011412FA
:10066D0005C7D0E0C083C082C0E09003401205BC36
:10067D00D0E0D082D083020774B4011FC0E07401B2
:10068D00141205C9D0E0C083C082C0E09003A5124A
:10069D0005BCD0E0D082D083020774B4021FC0E045
:1006AD007401141205C9D0E0C083C082C0E090036C
:1006BD00E51205BCD0E0D082D083020797B4031FAA
:1006CD00C0E07401141205C9D0E0C083C082C0E03F
:1006DD009003F51205BCD0E0D082D083020797B409
:1006ED00041FC0E07401141205C9D0E0C083C0829C
:1006FD00C0E09004051205BCD0E0D082D083020783
:10070D0097B4051FC0E07401141205C9D0E0C08371
:10071D00C082C0E09004151205BCD0E0D082D08319
:10072D00020797B4061FC0E07401141205C9D0E08A
:10073D00C083C082C0E09004251205BCD0E0D082F9
:10074D00D083020797B4071FC0E07401141205C9C6
:10075D00D0E0C083C082C0E09004351205BCD0E06B
:10076D00D082D0830207740207D93001FAC201E5A5
:10077D0068B402028014B40302800FB40402800A2C
:10078D00B405028005B406448000C0E07401141263
:10079D0005C7D0E0853F32854033854134854235EC
:1007AD0012002EE53B540F243012057FE53AC45458
:1007BD000F243012057FE53A540F243012057F7453
:1007CD004312057F742012057F12057FD0E022E5CC
:1007DD0066B4000A20F92D75640005668026B40103
:1007ED0009E564B4321E0566801AB4020C20F904C2
:1007FD0005668010756600800BB4030830F905D2CC
:10080D000D75660022E567B4000CE565B4FA4B750D
:10081D00650005678044B4010ED2E9E565B4FA3A86
:10082D0075650005678033B4020ED2EAE565B4FA4A
:10083D002975650005678022B4031FD2EBE565B409
:10084D00FA18756500756700D201E530B43B077580
:10085D003000053180040530B2E8221002028071AB
:10086D00C2008560328561338562348563357536A6
:10087D00DB75370575380075390012015220001DE2
:10088D007536017537007538007539001200D3853E
:10089D003260853361853462853563801875320029
:1008AD00753300753400753500853260853361858B
:1008BD003462853563855C36855D37855E38855F49
:1008CD003912011A200006C293C2EC8004D293D2D1
:1008DD00EC22C203C204C0E0C0D0C000C001C002FF
:1008ED00783F79321209657843793612096512011C
:1008FD001A200002D203783F7932120965784779C0
:10090D003612096512011A200002D204D002D0015C
:10091D00D000D0D0D0E022C0E0C0D0C000C001C017
:10092D0002785079321209657854793612096512B8
:10093D00011A200002D206785079321209657858D2
:10094D00793612096512011A200002D207D002D0A1
:10095D0001D000D0D0D0E0227A04E6F70809DAFA07
:10096D0022C0E0C0D0C000C001C002E568B40202E0
:10097D0080030209CD200E48300F45785079321290
:10098D00096575363C7537007538007539001201EB
:10099D001A2000DEC20F783F7932120965753632A2
:1009AD0075370075380075390012011A3000C3C251
:1009BD0093D20ED2091209E2756800756900D20C46
:1009CD00D002D001D000D0D0D0E022756B01800ACA
:1009DD00756B058005756B0A8000C28C756C017591
:1009ED006D00756E00D2A9D28C22301335C213E57D
:1009FD006C602F056DE56D7002056EE56E602375FB
:100A0D006D00756E00E56CB40106C28C756C02222A
:100A1D00156BE56B6006756C01D28C22C28C756C02
:100A2D00002222E5688005756800D20CB4001520FF
:100A3D009005120F6D8001220568756900120E4B2D
:100A4D00D20CE568B40127120C83120CCF2090084C
:100A5D00120F6D120C078001220568E568D20C1289
:100A6D0009D8D20FC20E753000753100C203B40221
:100A7D001F301205C212020AEE300313C2030568BD
:100A8D00E568D20C1209D8753000753100C2062206
:100A9D00B40315301205C212020AEE300609C20661
:100AAD000568D20C1209D822B4041D301205C212E9
:100ABD00020AEE300411C2040568D20C1209D87571
:100ACD003000753100C20722B405028003020AF519
:100ADD00301205C212020AEE300705C207020AEEF5
:100AED00220568D20C1209DDB4060A300506C205CE
:100AFD000568D20C22B4071120100920900B120F9B
:100B0D006D020A34C210020A3422C2AF7581C07858
:100B1D00FA79FFD9FED8FA759AAA759BFE759C01D4
:100B2D00759D0075E800759500D2AF756600756707
:100B3D000075680075690075640075650075300095
:100B4D007531007560007561007562007563007523
:100B5D005F00755E00755D02755CEEC20EC209C266
:100B6D0010C211C212C201C20BC203C206C204C21C
:100B7D0007C205C20CD20CD20F756C00756B0075D7
:100B8D006D00756E00C213C28C1204561204BE1293
:100B9D000589120DF8120E4B1204701207DC120F9C
:100BAD00711208DF12100385313275330075340070
:100BBD0075350075363C753700753800753900127E
:100BCD00018C853036753700753800753900120087
:100BDD00D3853250853351853452853553120924CE
:100BED0012096E120812120A30120639300202D2A0
:100BFD00131208681209F7020BA87880120C468FA1
:100C0D00437544007545007546007889120C468F72
:100C1D0047754800754900754A007884120C5A8F43
:100C2D00548E55755600755700788D120C5A8F5885
:100C3D008E59755A00755B00227F00E6600EC394D5
:100C4D0030FDEF75F00AA42DFF0880EF22E69430F9
:100C5D0075F00AA4FD08E694302DFD08E694307574
:100C6D00F00AA4FC08E694302CED75F03CA42CFFA2
:100C7D00E5F03400FE2243805530800A3082123078
:100C8D00841A30862222120F3D756901756A008023
:100C9D0021120F3D756902756A008016120F3D75A0
:100CAD006903756A00800B120F3D756904756A0042
:100CBD0080003080FD3082FD3084FD3086FD120EC7
:100CCD004B22E5696050120D24504BEFB40E0A1201
:100CDD000E28120E4B756A0022EFB40C0122EFC3E1
:100CED00940A5031EF2430FD120F56E56A28F8EDC5
:100CFD00F6056AE569B401028005B4030B8000E5D1
:100D0D006AB4030D156A8009E56AB40404156A8096
:100D1D0000120E4B222222C292C294C296C2A0A2EF
:100D2D00A282A482A682B05002C322120F3DA2A2BB
:100D3D0082A482A682B05002C322D292D294D296BD
:100D4D00D2A0C29230A23D30A43E30A63F30B0407A
:100D5D00D292C29430A23D30A43E30A63F30B04076
:100D6D00D294C29630A23D30A43E30A63F30B04062
:100D7D00D296C2A030A23D30A43E30A63F30B04046
:100D8D00D2A0C3227F01803C7F0280387F03803454
:100D9D007F0A80307F04802C7F0580287F06802489
:100DAD007F0B80207F07801C7F0880187F098014AF
:100DBD007F0D80107F0E800C7F0080087F0C8004DB
:100DCD007F0F8000A2A282A482A682B050F6D3D259
:100DDD0092D294D296D2A02220140E301504C215B0
:100DED00D322754F00D214C322C3227880120E0D68
:100DFD007889120E0D7884120E19788D120E192223
:100E0D00763008763008763008760022763008760F
:100E1D003008763008763008760022E569B4010690
:100E2D007880120E0D22B402067884120E1922B4A7
:100E3D0003067889120E0D22788D120E1922120FCB
:100E4D0043C0E07401141205C9D0E0E569B4001384
:100E5D00C083C082C0E09003501205BCD0E0D082A8
:100E6D00D08322B40114C083C082C0E0900361120C
:100E7D0005BCD0E0D082D0838042B40214C083C0C0
:100E8D0082C0E09003721205BCD0E0D082D0838086
:100E9D0042B40314C083C082C0E09003831205BC2A
:100EAD00D0E0D082D0838014C083C082C0E0900394
:100EBD00941205BCD0E0D082D0838017C0E07401BD
:100ECD00141205C7D0E0120F56120F3374431205DA
:100EDD007F8027C0E07401141205C7D0E0120F56B1
:100EED00E612057F08E612057F08743A12057FE6C3
:100EFD0012057F08E612057F8000E569B4020280C5
:100F0D000DB404028008E56A24C012058422E56A46
:100F1D00B4020104C394024005E56A048002E56A47
:100F2D0024C012058422E6600612057F0880F72290
:100F3D00120DE550FB22740112058478FF79FFD95B
:100F4D00FED8FA740C12058422E569B40103788089
:100F5D0022B40203788422B40303788922788D2287
:100F6D003090FD22120DE5400122E5885410C0E0BD
:100F7D00C28C75A180000075A1017DFA0000DDFC19
:100F8D0085A23285A333753400753500E533540FD2
:100F9D00F533D0E06002D28C753616753710753882
:100FAD000075390012018C75A10485A23685A33711
:100FBD0075380075390075A100120280753664759B
:100FCD00370075380075390012018C75362B753761
:100FDD0005753800753900120280753614753700A5
:100FED007538007539001200D385323F8533408541
:100FFD00344185354222755C00755D00755E007566
:10100D005F00E568B402028016B4030520030F806B
:10101D001BB404028009B40505200402800E22755C
:10102D005CDC755D05755E00755F0022755C2C7569
:09103D005D01755E00755F002283
:00000001FF
