:03000000020BC62A
:0100030032CA
:03000B0002046E7E
:0100130032BA
:01001B0032B2
:0300230002132C99
:03002B0002053497
:10002E00C0E0C0D0C000C001C002C035C034C03373
:10003E00C032E4F53AF53BF53CF53DF53E7A20E568
:10004E0035A2E779047832E633F608D9FA790578DD
:10005E003AE636D4F608D9F9DAE5D032D033D034D0
:10006E00D035D002D001D000D0D0D0E022C0E0C038
:10007E00D0C000C001C002C03EC03DC03CC03BC0AD
:10008E003A7A207905C3783EE613C0D030E70224D1
:10009E00D030E30224FDF618D0D0D9EC79047835AF
:1000AE00E613F618D9FADADBD200E53A7002C2008E
:1000BE00D03AD03BD03CD03DD03ED002D001D00083
:1000CE00D0D0D0E022C0E0C0D0E5322536F532E502
:1000DE00333537F533E5343538F534E5353539F51F
:1000EE00359200D0D0D0E022C0E0C0D0C3E532952A
:1000FE0036F532E5339537F533E5349538F534E595
:10010E00359539F5359200D0D0D0E022C0E0C0D080
:10011E00C3E5329536E5339537E5349538E53595B3
:10012E00399200D0D0D0E022C0E0C0D0C3E53695E1
:10013E0032E5379533E5389534E53995359200D06B
:10014E00D0D0E022C0E0C0D0C200C3E536953270F8
:10015E0014E5379533700EE53895347008E539950A
:10016E00357002D200D0D0D0E0221201522000030E
:10017E000201362212015220000302011A22C0E0AF
:10018E00C0F0C0D0C000C001C002C003C004C00592
:10019E00E5328536F0A4F8A9F0E5338536F0A429CA
:1001AE00F9E435F0FAE5328537F0A429F9E5F03AAD
:1001BE00FAE433FBE5348536F0A42AFAE5F03BFB8E
:1001CE00E5338537F0A42AFAE5F03BFBE5328538B6
:1001DE00F0A42AFAE5F03BFBE5358536F0A42BFBBF
:1001EE00ACF07D00E5348537F0A42BFBE5F03CFC4C
:1001FE00E43DFDE5338538F0A42BFBE5F03CFCE453
:10020E003DFDE5328539F0A42BFBE5F03CFCE43DE9
:10021E00FDEC4DFCE5358537F0A445F04CFCE5349E
:10022E008538F0A445F04CFCE5338539F0A445F053
:10023E004CFCE5358538F0A445F04CFCE5348539A9
:10024E00F0A445F04CFCE5358539F0A445F04CFCA6
:10025E008B358A3489338832D200BC0002C200D07A
:10026E0005D004D003D002D001D000D0D0D0F0D031
:10027E00E022C0E0C0D0C000C001C002C003C00474
:10028E00E5364537453845397005D2000202EBC2D6
:10029E00007C20E4F8F9FAFBC3E53233F532E5339E
:1002AE0033F533E53433F534E53533F535E833F8E6
:1002BE00E933F9EA33FAEB33FBC3E89536E99537C0
:1002CE00EA9538EB95394013E89536F8E99537F904
:1002DE00EA9538FAEB9539FB433201DCBBD004D0FA
:1002EE0003D002D001D000D0D0D0E02285323685A6
:1002FE00333785343885353922E532C536F532E562
:10030E0033C537F533E534C538F534E535C539F53C
:02031E00352286
:10032000696E697469616C206D65737361676500DE
:1003300057656C636F6D65202020202020202000F1
:1003400050726573732050423020202020202000FE
:1003500053656C656374204D6F64653A20202020DE
:100360000053657420536F616B2054656D702020BD
:10037000200053657420536F616B2054696D6520B4
:10038000202000536574205265666C6F7720546599
:100390006D702000536574205265666C6F77205431
:1003A000696D65200053657420506172616D6574DC
:1003B0006572732000536F616B2054656D703A0055
:1003C0005265666C6F772054656D703A00536F61AB
:1003D0006B2054696D653A005265666C6F772054E6
:1003E000696D653A0054656D703A200052616D7018
:1003F00020746F20536F616B20202000536F616B5E
:1004000020506861736520202020200052616D70AB
:1004100020746F205265666C6F7720005265666CA1
:100420006F7720506861736520202000436F6F6CE8
:10043000696E6720202020202020200050726F63EA
:1004400065737320446F6E652020200020202020DB
:1004500020202020202020202020202000E589545A
:10046000F04401F589758CFD758A5AD2A922758CE4
:10047000FD758A5AB29532C28E53890F4389204343
:100480008780758DFD758BFDD28E759850D2AC220C
:10049000C2ACF5993099FDC299D2AC22E4936006C2
:1004A000120490A380F62274AA12049074551204C8
:1004B00090E535120490E534120490E5331204906F
:1004C000E532120490740A120490229003E512049B
:1004D0009C853F3285403385413485423512002E5C
:1004E0007F00E53B540F600724301204907F01E544
:1004F0003AC4540F7003EF600CE53AC4540F243033
:100500001204907F01E53A540F2430120490744392
:10051000120490740D120490740A1204902275C88B
:100520000075CDF575CC2775CBF575CA27C2CFD22E
:10053000ADD2CA22C0E0C0D0C2CF05640565D202E8
:10054000D213D21E30160B054BE54BB41904D2174B
:10055000C21630180B054CE54CB41904D219C21858
:10056000301A0B054DE54DB41904D21BC21A301CCC
:100570000B054EE54EB41904D21DC21C30140B05F8
:0F0580004FE54FB41904D215C214D0D0D0E032D9
:10058F00C00078BE00000000D8FAD00022C000C022
:10059F0001793278DFD8FED9FADAF6D001D000220D
:1005AF00D29112058FC29112058F22A2E79281A2DA
:1005BF00E69283A2E59285A2E492871205AFA2E3A9
:1005CF009281A2E29283A2E19285A2E09287120524
:1005DF00AF22D2970205BAC2970205BAC291C002E2
:1005EF007A2812059CD00274331205E67433120573
:1005FF00E674321205E674281205E6740C1205E64D
:10060F0074011205E6C0027A0212059CD00222E4A0
:10061F009360061205E1A380F62244404480020550
:10062F00E6C0E0E8C4540F44301205E1E8540F442B
:10063F00301205E1D0E022C0F9A4B0999282F8807F
:10064F00908883C6A1868E900646E8C4540F93F512
:10065F0092E8540F93F59122900646E8C4540F93F5
:10066F00F594E8540F93F59322900646E8C4540F7F
:10067F0093F58FE8540F93F58E2275F06484F9E5A6
:10068F00F075F00A84C454F045F0F822120689E898
:10069F00C4540F24301205E1E8540F24301205E141
:1006AF0022C0E0200C030207EEC20C121005E56811
:1006BF00B4003BC0E074011412062BD0E0C083C01D
:1006CF0082C0E090033012061ED0E0D082D083C0EB
:1006DF00E0740114120629D0E0C083C082C0E090FC
:1006EF00034012061ED0E0D082D0830207EBB40184
:1006FF001FC0E074011412062BD0E0C083C082C06B
:10070F00E09003A512061ED0E0D082D0830207EB43
:10071F00B4021FC0E074011412062BD0E0C083C0D6
:10072F0082C0E09003EC12061ED0E0D082D083028C
:10073F00080EB4031FC0E074011412062BD0E0C0E2
:10074F0083C082C0E09003FC12061ED0E0D082D09E
:10075F008302080EB4041FC0E074011412062BD0DC
:10076F00E0C083C082C0E090040C12061ED0E0D01F
:10077F0082D08302080EB4051FC0E0740114120664
:10078F002BD0E0C083C082C0E090041C12061ED0A4
:10079F00E0D082D08302080EB4061FC0E0740114AB
:1007AF0012062BD0E0C083C082C0E090042C12064A
:1007BF001ED0E0D082D08302080EB4071FC0E074B1
:1007CF00011412062BD0E0C083C082C0E090043C1D
:1007DF0012061ED0E0D082D0830207EB02086F30E2
:1007EF0001FAC201E568B402028014B40302800F5B
:1007FF00B40402800AB405028005B406638000C009
:10080F00E0740114120629D0E0853F32854033850C
:10081F00413485423512002E120872E53B540F24E5
:10082F00301205E1E53AC4540F24301205E1E53AE0
:10083F00540F24301205E174431205E174201205A0
:10084F00E11205E1C0E0740C14120629D0E0E53185
:10085F0012069B743A1205E1E53012069B1204CB87
:10086F00D0E022900646E53B540F93F593E53AC44A
:10087F00540F93F592E53A540F93F59122E566B430
:10088F00000A20F92D75640005668026B40109E57C
:10089F0064B4321E0566801AB4020C20F904056692
:1008AF008010756600800BB4030830F905D20D7502
:1008BF00660022E567B4000CE565B4FA4B75650078
:1008CF0005678044B4010ED2E9E565B4FA3A75655F
:1008DF000005678033B4020ED2EAE565B4FA2975D4
:1008EF00650005678022B4031FD2EBE565B4FA18E3
:1008FF00756500756700D201E530B43B07753000B0
:10090F00053180040530B2E8221002028071C20066
:10091F008560328561338562348563357536DB7565
:10092F00370575380075390012015220001D7536D4
:10093F00017537007538007539001200D3853260A4
:10094F008533618534628535638018753200753360
:10095F0000753400753500853260853361853462EA
:10096F00853563855C36855D37855E38855F3912E1
:10097F00011A200006C293C2EC8004D293D2EC225B
:10098F00C203C204C0E0C0D0C000C001C002783FA3
:10099F007932120A1578437936120A1512011A2084
:1009AF000002D203783F7932120A1578477936124E
:1009BF000A1512011A200002D204D002D001D00071
:1009CF00D0D0D0E022C0E0C0D0C000C001C00278BB
:1009DF00507932120A1578547936120A1512011A03
:1009EF00200002D20678507932120A1578587936DB
:1009FF00120A1512011A200002D207D002D001D01C
:100A0F0000D0D0D0E0227A04E6F70809DAFA22C043
:100A1F00E0C0D0C000C001C002E568B4020280038C
:100A2F00020A7D200E48300F4578507932120A1590
:100A3F0075363C75370075380075390012011A206C
:100A4F0000DEC20F783F7932120A157536327537CC
:100A5F000075380075390012011A3000C3C293D2E5
:100A6F000ED209120A92756800756900D20CD00275
:100A7F00D001D000D0D0D0E022757301800A7573F9
:100A8F0005800575730A8000C28C75740175750039
:100A9F00757600D2A9D28C22301335C213E574605B
:100AAF002F0575E57570020576E57660237575007F
:100ABF00757600E574B40106C28C75740222157345
:100ACF00E5736006757401D28C22C28C7574002296
:100ADF0022E5688005756800D20CB40014300D044F
:100AEF00C20D8001220568756900120F0DD20CE549
:100AFF0068B40127120D45120D9120900812102F86
:100B0F00120CC98001220568E568D20C120A88D23E
:100B1F000FC20E753000753100C203B4021F3012C0
:100B2F0005C212020B9D300313C2030568E568D29C
:100B3F000C120A88753000753100C20622B40315F5
:100B4F00301205C212020B9D300609C2060568D28B
:100B5F000C120A8822B4041D301205C212020B9D1A
:100B6F00300411C2040568D20C120A887530007562
:100B7F003100C20722B405028003020BA430120514
:100B8F00C212020B9D300705C207020B9D2205689A
:100B9F00D20C120A8DB4060A300506C2050568D2BA
:100BAF000C22B4071120100920900B12102F020AEB
:100BBF00E4C210020AE422C2AF7581C078FA79FF4D
:100BCF00D9FED8FA759AAA759BFE759C01759D4042
:100BDF0075E8007595007566007567007568007596
:100BEF0069007564007565007530007531007560BA
:100BFF0000756100756200756300755F00755E00BA
:100C0F00755D02755CEE758000758100C20EC209BC
:100C1F00C210C211C212C201C20BC203C206C20469
:100C2F00C207C205C20CC21ED20CD20F757400755A
:100C3F007300757500757600C213C28C12045D12B5
:100C4F00051E1205EB120EBA120477D2AF30B7029F
:100C5F00800302103712137112088C12103D120903
:100C6F008F12117F85313275330075340075350061
:100C7F0075363C75370075380075390012018C8553
:100C8F0030367537007538007539001200D385324C
:100C9F00508533518534528535531209D4120A1EAB
:100CAF001208C2120AE01206B0300202D213120961
:100CBF0018120AA7121112020C5C7880120D088FFD
:100CCF00437544007545007546007889120D088FED
:100CDF0047754800754900754A007884120D1C8FBE
:100CEF00548E55755600755700788D120D1C8F5800
:100CFF008E59755A00755B00227F00E6600EC39413
:100D0F0030FDEF75F00AA42DFF0880EF22E6943036
:100D1F0075F00AA4FD08E694302DFD08E6943075B1
:100D2F00F00AA4FC08E694302CED75F03CA42CFFDF
:100D3F00E5F03400FE2243805530800A30821230B5
:100D4F00841A30862222120FFF7569017572008096
:100D5F0021120FFF7569027572008016120FFF7551
:100D6F006903757200800B120FFF756904757200AD
:100D7F0080003080FD3082FD3084FD3086FD120F03
:100D8F000D22E5696050120DE6504BEFB40E0A12BA
:100D9F000EEA120F0D75720022EFB40C0122EFC391
:100DAF00940A5031EF2430FD121018E57228F8ED37
:100DBF00F60572E569B401028005B4030B8000E506
:100DCF0072B4030D15728009E572B40404157280B4
:100DDF0000120F0D222222C292C294C296C2A0A26A
:100DEF00A282A482A682B05002C322120FFFA2A237
:100DFF0082A482A682B05002C322D292D294D296FB
:100E0F00D2A0C29230A23D30A43E30A63F30B040B7
:100E1F00D292C29430A23D30A43E30A63F30B040B3
:100E2F00D294C29630A23D30A43E30A63F30B0409F
:100E3F00D296C2A030A23D30A43E30A63F30B04083
:100E4F00D2A0C3227F01803C7F0280387F03803491
:100E5F007F0A80307F04802C7F0580287F068024C6
:100E6F007F0B80207F07801C7F0880187F098014EC
:100E7F007F0D80107F0E800C7F0080087F0C800418
:100E8F007F0F8000A2A282A482A682B050F6D3D296
:100E9F0092D294D296D2A02220140E301504C215ED
:100EAF00D322754F00D214C322C3227880120ECFE3
:100EBF007889120ECF7884120EDB788D120EDB221A
:100ECF00763008763008763008760022763008764D
:100EDF003008763008763008760022E569B40106CE
:100EEF007880120ECF22B402067884120EDB22B461
:100EFF0003067889120ECF22788D120EDB22121084
:100F0F0005C0E074011412062BD0E0E569B400139C
:100F1F00C083C082C0E090035012061ED0E0D08282
:100F2F00D08322B40114C083C082C0E09003611249
:100F3F00061ED0E0D082D0838042B40214C083C09A
:100F4F0082C0E090037212061ED0E0D082D0838060
:100F5F0042B40314C083C082C0E090038312061E04
:100F6F00D0E0D082D0838014C083C082C0E09003D1
:100F7F009412061ED0E0D082D0838017C0E0740197
:100F8F0014120629D0E0121018120FF5744312052F
:100F9F00E18027C0E0740114120629D0E012101866
:100FAF00E61205E108E61205E108743A1205E1E6DA
:100FBF001205E108E61205E18000E569B40202803E
:100FCF000DB404028008E57224C01205E622E57212
:100FDF00B4020104C394024005E572048002E57275
:100FEF0024C01205E622E660061205E10880F7220A
:100FFF00120EA750FB2274011205E678FF79FFD974
:10100F00FED8FA740C1205E622E569B40103788064
:10101F0022B40203788422B40303788922788D22C4
:10102F003090FD2230B7FD22121033020BC6120E84
:10103F00A7400122E5885410C0E0C28C75A1800042
:10104F000075A1017DFA0000DDFC85A23285A33376
:10105F00753400753500E533540FF533D0E0600279
:10106F00D28C753616753710753800753900120128
:10107F008C75A10485A23685A337753800753900A4
:10108F0075A10012028075366475370075380075CA
:10109F00390012018C75362B753705753800753987
:1010AF0000120280753614753700753800753900D7
:1010BF001200D385323F8533408534418535422236
:1010CF00755C00755D00755E00755F00E568B402C4
:1010DF00028016B4030520030F801BB4040280099D
:1010EF00B40505200402800E22755CDC755D057564
:1010FF005E00755F0022755C2C755D01755E007575
:10110F005F0022E568B40004C21F802CB40104D232
:10111F001F8025B40204C21F801EB40304C21F80A7
:10112F0017B40404C21F8010B40504C21F8009B491
:10113F000604C21F8002D21F101E012212114F225D
:10114F00D2EDC0E0C0D0E57704B414027400F57797
:10115F00201F09E577C39402400B800DE577C394F8
:10116F000140028004D2B68002C2B6D0D0D0E022B5
:10117F00E568B4000F755C00755D00755E00755F06
:10118F000002132BB4010F755C00755D00755E00D6
:10119F00755F0002132BB4020F755CDC755D05756E
:1011AF005E00755F0002132BB4030280030212E985
:1011BF00854332854433854534854635853F3685AD
:1011CF004037854138854239C20012017810002B13
:1011DF00C220854336854437854538854639853F56
:1011EF00328540338541348542351200F685326AA7
:1011FF0085336B85346C85356D8011D2201200F6E6
:10120F0085326A85336B85346C85356D856A328599
:10121F006B33856C34856D357536057537007538CC
:10122F000075390012018C85326E85336F853470ED
:10123F00853571302029856E32856F338570348501
:10124F00713575362C7537017538007539001200F8
:10125F00D385326E85336F853470853571803D75DA
:10126F00322C753301753400753500856E36856FF8
:10127F0037857038857139C20012011A30000E752A
:10128F006E00756F00757000757100800F1200F69B
:10129F0085326E85336F853470853571856E3285F5
:1012AF006F338570348571357536DC753705753854
:1012BF0000753900C20012013620000F856E5C8563
:1012CF006F5D85705E85715F02132B755CDC755DDC
:1012DF0005755E00755F0002132BB4040F755CDC9F
:1012EF00755D05755E00755F0002132BB4050F75F4
:1012FF005C2C755D01755E00755F0002132BB406E3
:10130F000F755C00755D00755E00755F0002132B35
:10131F00755C00755D00755E00755F0022C0E0C0F2
:10132F00D0C000309904C299803130982EC298E510
:10133F0099B40A028017B40D028012E580B4070237
:10134F008019787828F8E599F60580800EE5807881
:10135F007828F87600758000758101D000D0D0D044
:10136F00E032E58160637581007878E6B4530C084C
:10137F00081213D98F43754400804EB44B0C0808E4
:10138F001213D98F54755500803FB4520C080812B0
:10139F0013D98F477548008030B44C0C08081213CE
:1013AF00D98F587559008021787808080808E6B455
:1013BF00310F756802753000753100D20FC20E8083
:1013CF0008756800756900D20C227F00E66018B4BA
:1013DF000A028013B40D02800EC39430FDEF75F036
:0813EF000AA42DFF0880E5228D
:00000001FF
