:0300000002010FEB
:1000030053656C656374204D6F64653A202020202E
:100013000053657420536F616B2054656D7020200D
:10002300200053657420536F616B2054696D652004
:10003300202000536574205265666C6F77205465E9
:100043006D702000536574205265666C6F77205481
:05005300696D6520004D
:10005800C00078BE00000000D8FAD00022C000C05E
:1000680001793278DFD8FED9FADAF6D001D0002249
:10007800D291120058C29112005822A2E79281A28E
:10008800E69283A2E59285A2E49287120078A2E321
:100098009281A2E29283A2E19285A2E09287120065
:1000A8007822D297020083C297020083C291C002CD
:1000B8007A28120065D00274331200AF743312002C
:1000C800AF74321200AF74281200AF740C1200AF74
:1000D80074011200AFC0027A02120065D00222E455
:1000E8009360061200AAA380F622444044800200CE
:1000F800AFC0E0E8C4540F44301200AAE8540F44DB
:10010800301200AAD0E02275817F759AAA759BD615
:10011800759C01759D001200B4740F1200AF120196
:100128004A7530001202677591467592927593A4CC
:100138007594FF758EFF758FFF1201821201CB0235
:100148000141783212015B783E12015B12016112A3
:10015800016722764308760022783712016D2278EB
:100168004312016D22763008763008763A087630E8
:100178000876300876730876002230800A308212BA
:1001880030841A308622221203D27530017531006C
:1001980080211203D275300275310080161203D205
:1001A800753003753100800B1203D2753004753138
:1001B8000080001202673080FD3082FD3084FD30FF
:1001C80086FD22E5306061120311505CEFB40E0A1F
:1001D80012024812026775310022EFB40C0122EFB7
:1001E800C3940A5042EF2430FD120231E53128F859
:1001F800EDF60531E530B401028005B40311800045
:10020800087643087600E531B4031815318014E503
:1002180031B4020405318009E531B4050415318093
:10022800028000120267222222E530B401037832EC
:1002380022B40203783722B40303783E227843229B
:10024800E530B40106783212015B22B402041201CF
:100258006122B40306783E12015B22120167221262
:100268000301C0E07401141200F4D0E0E530B400DA
:1002780013C083C082C0E09000031200E7D0E0D032
:1002880082D08322B40114C083C082C0E0900014DD
:100298001200E7D0E0D082D0838040B40214C0833B
:1002A800C082C0E09000251200E7D0E0D082D08361
:1002B8008029B40314C083C082C0E09000361200C5
:1002C800E7D0E0D082D0838012C083C082C0E090A3
:1002D80000471200E7D0E0D082D083C0E074011458
:1002E8001200F2D0E0120231E660061200AA08807D
:1002F800F7E53124C01200AF2274011200AF7A0A68
:100308001203D2740F1200AF22C292C294C296C2D4
:10031800A0A2A282A482A682B05002C3221203D253
:10032800A2A282A482A682B05002C322D292D29400
:10033800D296D2A0C29230A23D30A43E30A63F3021
:10034800B040D292C29430A23D30A43E30A63F3095
:10035800B040D294C29630A23D30A43E30A63F3081
:10036800B040D296C2A030A23D30A43E30A63F3065
:10037800B040D2A0C3227F01803C7F0280387F0337
:1003880080347F0A80307F04802C7F0580287F0698
:1003980080247F0B80207F07801C7F0880187F09BE
:1003A80080147F0D80107F0E800C7F0080087F0CEA
:1003B80080047F0F8000A2A282A482A682B050F699
:1003C800D3D292D294D296D2A022780F794A7AFACE
:0703D800DAFED9FAD8F62283
:00000001FF
