:03000000020640B5
:10010000C0E0C0D0C000C001C002C033C032C031A6
:10011000C030E4F538F539F53AF53BF53C7A20E5A1
:1001200033A2E779047830E633F608D9FA7905780E
:1001300038E636D4F608D9F9DAE5D030D031D03205
:10014000D033D002D001D000D0D0D0E022C0E0C067
:10015000D0C000C001C002C03CC03BC03AC039C0E2
:10016000387A207905C3783CE613C0D030E7022402
:10017000D030E30224FDF618D0D0D9EC79047833DE
:10018000E613F618D9FADADBD200E5387002C200BD
:10019000D038D039D03AD03BD03CD002D001D000BA
:1001A000D0D0D0E022C0E0C0D0E5302534F530E535
:1001B000313535F531E5323536F532E5333537F55C
:1001C000339200D0D0D0E022C0E0C0D0C3E530955B
:1001D00034F530E5319535F531E5329536F532E5D2
:1001E000339537F5339200D0D0D0E022C0E0C0D0B4
:1001F000C3E5309534E5319535E5329536E53395EF
:10020000379200D0D0D0E022C0E0C0D0C3E5349512
:1002100030E5359531E5369532E53795339200D0A6
:10022000D0D0E022C0E0C0D0C200C3E53495307029
:1002300014E5359531700EE53695327008E5379541
:10024000337002D200D0D0D0E0221202242000036A
:10025000020208221202242000030201EC22C0E064
:10026000C0F0C0D0C000C001C002C003C004C005BF
:10027000E5308534F0A4F8A9F0E5318534F0A429FF
:10028000F9E435F0FAE5308535F0A429F9E5F03ADE
:10029000FAE433FBE5328534F0A42AFAE5F03BFBBF
:1002A000E5318535F0A42AFAE5F03BFBE5308536EB
:1002B000F0A42AFAE5F03BFBE5338534F0A42BFBF0
:1002C000ACF07D00E5328535F0A42BFBE5F03CFC7D
:1002D000E43DFDE5318536F0A42BFBE5F03CFCE484
:1002E0003DFDE5308537F0A42BFBE5F03CFCE43D1B
:1002F000FDEC4DFCE5338535F0A445F04CFCE532D2
:100300008536F0A445F04CFCE5318537F0A445F086
:100310004CFCE5338536F0A445F04CFCE5328537DE
:10032000F0A445F04CFCE5338537F0A445F04CFCD7
:100330008B338A3289318830D200BC0002C200D0AF
:1003400005D004D003D002D001D000D0D0D0F0D05E
:10035000E022C0E0C0D0C000C001C002C003C004A1
:10036000E5344535453645377005D2000203BDC238
:10037000007C20E4F8F9FAFBC3E53033F530E531D1
:1003800033F531E53233F532E53333F533E833F81D
:10039000E933F9EA33FAEB33FBC3E89534E99535F1
:1003A000EA9536EB95374013E89534F8E99535F939
:1003B000EA9536FAEB9537FB433001DCBBD004D02D
:1003C00003D002D001D000D0D0D0E02285303485D7
:1003D000313585323685333722E530C534F530E5A1
:1003E00031C535F531E532C536F532E533C537F57A
:0203F0003322B6
:1003F200C00078BE00000000D8FAD00022C000C0C1
:1004020001793278DFD8FED9FADAF6D001D00022AB
:10041200D2911203F2C2911203F222A2E79281A2B6
:10042200E69283A2E59285A2E49287120412A2E3E5
:100432009281A2E29283A2E19285A2E092871204C3
:100442001222D29702041DC29702041DC291C00259
:100452007A281203FFD0027433120449743312044F
:100462004974321204497428120449740C12044962
:100472007401120449C0027A021203FFD00222E47C
:10048200936006120444A380F6224440448002048E
:1004920049C0E0E8C4540F4430120444E8540F4405
:1004A20030120444D0E022C0F9A4B0999282F880BC
:1004B200908883C6A1868EC2CA75C83075CBFF7577
:1004C200CAEED2CA759852D299223099FDC299F5D4
:1004D20099227FFA00DFFD2275A1051204D4753737
:1004E2000075360085A33585A234E535540FF53500
:1004F2002275A1041204D475370075360085A33520
:1005020085A234E535540FF535227530007531007A
:100512007532007533007540001204DA1201A50528
:1005220040E540B408F3753408753500753600753A
:10053200370012035285304185314285324385337B
:100542004475300075310075320075330075490805
:100552001204F31201A5D549F775340875350075F3
:100562003600753700120352E530453145324533C6
:10057200700C7530017531007532007533008530AD
:10058200458531468532478533488541308542313C
:1005920085433285443375340075351075360075E0
:1005A200370012025E8545348546358547368548D3
:1005B2003712035275340A753500753600753700E7
:1005C20012025E7534B375356A75360075370012DE
:1005D20001C875346475350075360075370012032D
:1005E20052229004A9740093547FF594E539540F74
:1005F20093F593E538C4540F93F592E538540F936D
:10060200F59122C0E074011412048CD0E0745412EB
:100612000444743D1204447430120444742E1204CF
:1006220044E539540F4430120444E538C4540F44AD
:1006320030120444E538540F443012044422C2AF4D
:100642007581C0759AAA759B821204B912044E75FF
:1006520030007531007532007533007C2075A100C1
:100662001204D485A23485A335753600753700E5AA
:1006720035540FF5351201A5DCE3753420753500CC
:100682007536007537001203527534887535137547
:10069200360075370012025E7534FF75350F7536F8
:1006A200007537001203527534E87535037536004C
:1006B20075370012025E75340C753530753600756B
:1006C200370012035285304A85314B85324C8533CF
:1006D2004D12050C854A34854B35854C36854D3790
:1006E2001201A51201001205E41206057D0A7EFA26
:0B06F2007FFADFFEDEFADDF6020651A3
:00000001FF
