:03000000020D46A8
:0100030032CA
:03000B0002046E7E
:0100130032BA
:01001B0032B2
:0100230032AA
:03002B000206B317
:10002E00C0E0C0D0C000C001C002C035C034C03373
:10003E00C032E4F53AF53BF53CF53DF53E7A20E568
:10004E0035A2E779047832E633F608D9FA790578DD
:10005E003AE636D4F608D9F9DAE5D032D033D034D0
:10006E00D035D002D001D000D0D0D0E022C0E0C038
:10007E00D0C000C001C002C03EC03DC03CC03BC0AD
:10008E003A7A207905C3783EE613C0D030E70224D1
:10009E00D030E30224FDF618D0D0D9EC79047835AF
:1000AE00E613F618D9FADADBD201E53A7002C2018C
:1000BE00D03AD03BD03CD03DD03ED002D001D00083
:1000CE00D0D0D0E022C0E0C0D0E5322536F532E502
:1000DE00333537F533E5343538F534E5353539F51F
:1000EE00359201D0D0D0E022C0E0C0D0C3E5329529
:1000FE0036F532E5339537F533E5349538F534E595
:10010E00359539F5359201D0D0D0E022C0E0C0D07F
:10011E00C3E5329536E5339537E5349538E53595B3
:10012E00399201D0D0D0E022C0E0C0D0C3E53695E0
:10013E0032E5379533E5389534E53995359201D06A
:10014E00D0D0E022C0E0C0D0C201C3E536953270F7
:10015E0014E5379533700EE53895347008E539950A
:10016E00357002D201D0D0D0E0221201522001030C
:10017E000201362212015220010302011A22C0E0AE
:10018E00C0F0C0D0C000C001C002C003C004C00592
:10019E00E5328536F0A4F8A9F0E5338536F0A429CA
:1001AE00F9E435F0FAE5328537F0A429F9E5F03AAD
:1001BE00FAE433FBE5348536F0A42AFAE5F03BFB8E
:1001CE00E5338537F0A42AFAE5F03BFBE5328538B6
:1001DE00F0A42AFAE5F03BFBE5358536F0A42BFBBF
:1001EE00ACF07D00E5348537F0A42BFBE5F03CFC4C
:1001FE00E43DFDE5338538F0A42BFBE5F03CFCE453
:10020E003DFDE5328539F0A42BFBE5F03CFCE43DE9
:10021E00FDEC4DFCE5358537F0A445F04CFCE5349E
:10022E008538F0A445F04CFCE5338539F0A445F053
:10023E004CFCE5358538F0A445F04CFCE5348539A9
:10024E00F0A445F04CFCE5358539F0A445F04CFCA6
:10025E008B358A3489338832D201BC0002C201D078
:10026E0005D004D003D002D001D000D0D0D0F0D031
:10027E00E022C0E0C0D0C000C001C002C003C00474
:10028E00E5364537453845397005D2010202EBC2D5
:10029E00017C20E4F8F9FAFBC3E53233F532E5339D
:1002AE0033F533E53433F534E53533F535E833F8E6
:1002BE00E933F9EA33FAEB33FBC3E89536E99537C0
:1002CE00EA9538EB95394013E89536F8E99537F904
:1002DE00EA9538FAEB9539FB433201DCBBD004D0FA
:1002EE0003D002D001D000D0D0D0E02285323685A6
:1002FE00333785343885353922E532C536F532E562
:10030E0033C537F533E534C538F534E535C539F53C
:02031E00352286
:10032000696E697469616C206D65737361676500DE
:1003300057656C636F6D65202020202020202000F1
:1003400050726573732050423020202020202000FE
:1003500053656C656374204D6F64653A20202020DE
:100360000053657420536F616B2054656D702020BD
:10037000200053657420536F616B2054696D6520B4
:10038000202000536574205265666C6F7720546599
:100390006D702000536574205265666C6F77205431
:1003A000696D65200053657420506172616D6574DC
:1003B0006572732000536F616B2054656D703A0055
:1003C0005265666C6F772054656D703A00536F61AB
:1003D0006B2054696D653A005265666C6F772054E6
:1003E000696D653A0054656D703A200052616D7018
:1003F00020746F20536F616B20202000536F616B5E
:1004000020506861736520202020200052616D70AB
:1004100020746F205265666C6F7720005265666CA1
:100420006F7720506861736520202000436F6F6CE8
:10043000696E6720202020202020200050726F63EA
:1004400065737320446F6E652020200020202020DB
:1004500020202020202020202020202000E589545A
:10046000F04401F589758CFD758A5AD2A922758CE4
:10047000FD758A5AB29532C28E53890F4389204343
:100480008780758DFD758BFDD28E759852221099DF
:100490000280FBF59922E493600612048EA380F695
:1004A00022309806E599C298D322C322E5407034E1
:1004B0001204A1502FF5F0B40D0280F4B40A0FE538
:1004C0003F2492F87600754001753F008016E53FA5
:1004D000B42705753F00800CE53F2492F8E5F0F65F
:1004E000053F80CC22E6F70809E6F70809E6F70998
:1004F000770022E6F70809E6F70809E6F70809E6B3
:10050000F709770022E54070030206257540007860
:1005100092E6B45302800302052D08E6B43A028045
:10052000030206250879801204E50206257892E682
:10053000B44B02800302054B08E6B43A0280030282
:1005400006250879841204F30206257892E6B4524F
:1005500002800302056908E6B43A02800302062518
:100560000879891204E50206257892E6B44C0280E7
:100570000302058708E6B43A0280030206250879DB
:100580008D1204F30206257892E6B443028003023A
:1005900005C408E6B4460280030205C408E6B44771
:1005A0000280030205C408E6B43A0280030205C4CF
:1005B00008E6B4410280030205C4120E68C200D2EC
:1005C0000D0206257892E6B4520280030206250841
:1005D000E6B45502800302062508E6B44E02800305
:1005E00002062508E6B43A02800302062508E6B4AE
:1005F0003102800302060EC200756A00756B007539
:100600003000753100D20DD210C20F020625B43071
:10061000028003020625C293D20A756A00756B0038
:10062000D20D0206252274AA12048E745512048E6D
:10063000E53512048EE53412048EE53312048EE59E
:100640003212048E740A12048E229003E51204966C
:1006500085413285423385433485443512002E7FEF
:1006600000E53B540F6007243012048E7F01E53A09
:10067000C4540F7003EF600CE53AC4540F243012D9
:10068000048E7F01E53A540F243012048E74431215
:10069000048E740D12048E740A12048E2275C80022
:1006A00075CDF575CC2775CBF575CA27C2CFD2AD00
:1006B000D2CA22C0E0C0D0C2CF05660567D203D23D
:1006C00014D21F30170B054DE54DB41904D218C2D2
:1006D0001730190B054EE54EB41904D21AC2193061
:1006E0001B0B054FE54FB41904D21CC21B301D0B68
:1006F0000550E550B41904D21EC21D30150B05512A
:0E070000E551B41904D216C215D0D0D0E032A3
:10070E00C00078BE00000000D8FAD00022C000C0A1
:10071E0001793278DFD8FED9FADAF6D001D000228C
:10072E00D29112070EC29112070E22A2E79281A257
:10073E00E69283A2E59285A2E4928712072EA2E3A7
:10074E009281A2E29283A2E19285A2E092871207A1
:10075E002E22D297020739C297020739C291C002E0
:10076E007A2812071BD002743312076574331207EE
:10077E006574321207657428120765740C120765CA
:10078E007401120765C0027A0212071BD00222E41E
:10079E00936006120760A380F6224440448002074D
:1007AE0065C0E0E8C4540F4430120760E8540F44AB
:1007BE0030120760D0E022C0F9A4B0999282F8807E
:1007CE00908883C6A1868E9007C5E8C4540F93F512
:1007DE0092E8540F93F591229007C5E8C4540F93F5
:1007EE00F594E8540F93F593229007C5E8C4540F7F
:1007FE0093F58FE8540F93F58E2275F06484F9E526
:10080E00F075F00A84C454F045F0F822120808E896
:10081E00C4540F2430120760E8540F2430120760BE
:10082E0022C0E0200D0302096DC20D1211A4E56A6B
:10083E00B4003BC0E07401141207AAD0E0C083C01C
:10084E0082C0E090033012079DD0E0D082D083C0EA
:10085E00E07401141207A8D0E0C083C082C0E090FB
:10086E00034012079DD0E0D082D08302096AB40102
:10087E001FC0E07401141207AAD0E0C083C082C06A
:10088E00E09003A512079DD0E0D082D08302096AC2
:10089E00B4021FC0E07401141207AAD0E0C083C0D6
:1008AE0082C0E09003EC12079DD0E0D082D083028C
:1008BE00098DB4031FC0E07401141207AAD0E0C062
:1008CE0083C082C0E09003FC12079DD0E0D082D09E
:1008DE008302098DB4041FC0E07401141207AAD05C
:1008EE00E0C083C082C0E090040C12079DD0E0D01F
:1008FE0082D08302098DB4051FC0E0740114120763
:10090E00AAD0E0C083C082C0E090041C12079DD024
:10091E00E0D082D08302098DB4061FC0E0740114AA
:10092E001207AAD0E0C083C082C0E090042C120748
:10093E009DD0E0D082D08302098DB4071FC0E07431
:10094E0001141207AAD0E0C083C082C0E090043C1C
:10095E0012079DD0E0D082D08302096A0209EE30E0
:10096E0002FAC202E56AB402028014B40302800FD6
:10097E00B40402800AB405028005B406638000C088
:10098E00E07401141207A8D0E08541328542338508
:10099E00433485443512002E1209F1E53B540F24E1
:1009AE0030120760E53AC4540F2430120760E53A5E
:1009BE00540F24301207607443120760742012071C
:1009CE0060120760C0E0740C141207A8D0E0E53185
:1009DE0012081A743A120760E53012081A12064A03
:1009EE00D0E0229007C5E53B540F93F593E53AC44A
:1009FE00540F93F592E53A540F93F59122E568B4AE
:100A0E00000A20F92D75660005688026B40109E5F7
:100A1E0066B4321E0568801AB4020C20F90405680B
:100A2E008010756800800BB4030830F905D20E757E
:100A3E00680022E569B4000CE567B4FA4B756700EF
:100A4E0005698044B4010ED2E9E567B4FA3A7567D8
:100A5E000005698033B4020ED2EAE567B4FA29754F
:100A6E00670005698022B4031FD2EBE567B4FA185C
:100A7E00756700756900D202E530B43B077530002A
:100A8E00053180040530B2E8221003028071C201E4
:100A9E008562328563338564348565357536DB75DD
:100AAE00370575380075390012015220011D753653
:100ABE00017537007538007539001200D385326222
:100ACE0085336385346485356580187532007533DA
:100ADE000075340075350085326285336385346464
:100AEE00853565855E36855F378560388561391257
:100AFE00011A200106C293C2EC8004D293D2EC22DA
:100B0E00C204C205C0E0C0D0C000C001C00278411E
:100B1E007932120B9478457936120B9412011A2001
:100B2E000102D20478417932120B94784979361247
:100B3E000B9412011A200102D205D002D001D0006E
:100B4E00D0D0D0E022C0E0C0D0C000C001C002783A
:100B5E00527932120B9478567936120B9412011A7E
:100B6E00200102D20778527932120B94785A7936D4
:100B7E00120B9412011A200102D208D002D001D019
:100B8E0000D0D0D0E0227A04E6F70809DAFA22C0C3
:100B9E00E0C0D0C000C001C002E56AB4020280030A
:100BAE00020BFC200F4830104578527932120B940C
:100BBE0075363C75370075380075390012011A20EC
:100BCE0001DEC21078417932120B947536327537C8
:100BDE000075380075390012011A3001C3C293D264
:100BEE000FD20A120C11756A00756B00D20DD0026D
:100BFE00D001D000D0D0D0E022757501800A757575
:100C0E0005800575750A8000C28C757601757700B2
:100C1E00757800D2A9D28C22301435C214E57660D4
:100C2E002F0577E57770020578E5786023757700F4
:100C3E00757800E576B40106C28C757602221575BC
:100C4E00E5756006757601D28C22C28C757600220F
:100C5E0022E56A8005756A00D20DB4001520900554
:100C6E001211CE800122056A756B001210ACD20DE6
:100C7E00E56AB40127120EE4120F3020900812110B
:100C8E00CE120E68800122056AE56AD20D120C079B
:100C9E00D210C20F753000753100C204B4021F307D
:100CAE001305C213020D1D300413C204056AE56A52
:100CBE00D20D120C07753000753100C20722B40335
:100CCE0015301305C213020D1D300709C207056A40
:100CDE00D20D120C0722B4041D301305C213020DDF
:100CEE001D300511C205056AD20D120C07753000B4
:100CFE00753100C20822B405028003020D243013A0
:100D0E0005C213020D1D300805C208020D1D220575
:100D1E006AD20D120C0CB4060A300606C206056A1B
:100D2E00D20D22B4071120110920900B1211CE0200
:100D3E000C63C211020C6322C2AF7581C078FA79BE
:100D4E00FFD9FED8FA759AAA759BFE759C01759D02
:100D5E004075E800759500D2AF756800756900752D
:100D6E006A00756B00756600756700753000753129
:100D7E00007562007563007564007565007561002D
:100D8E00756000755F02755EEEC20FC20AC211C2B7
:100D9E0012C213C202C20CC204C207C205C208C2EA
:100DAE0006C20DC21FC200D20DD210757600757527
:100DBE0000757700757800C214C28C12045D12069D
:100DCE009D12076A1210591210AC120477753F006B
:100DDE007540001204AC12050530B70280030211F3
:100DEE00D6120A0B1211DC120B0E12131E853132A3
:100DFE0075330075340075350075363C75370075E2
:100E0E00380075390012018C85303675370075380B
:100E1E00007539001200D385325285335385345410
:100E2E00853555120B53120B9D120A41120C5F128F
:100E3E00082F300302D214120A97120C261212B186
:100E4E00020DE1C28CC293120EE4120F30200D027D
:100E5E008005C20D1210AC020DE17880120EA78F24
:100E6E00457546007547007548007889120EA78FA4
:100E7E0049754A00754B00754C007884120EBB8F75
:100E8E00568E57755800755900788D120EBB8F5AB5
:100E9E008E5B755C00755D00227F00E6600EC3946C
:100EAE0030FDEF75F00AA42DFF0880EF22E6943096
:100EBE0075F00AA4FD08E694302DFD08E694307511
:100ECE00F00AA4FC08E694302CED75F03CA42CFF3F
:100EDE00E5F03400FE2243805530800A3082123015
:100EEE00841A3086222212119E756B017574008051
:100EFE002112119E756B02757400801612119E756B
:100F0E006B03757400800B12119E756B0475740063
:100F1E0080003080FD3082FD3084FD3086FD121061
:100F2E00AC22E56B6050120F85504BEFB40E0A12D7
:100F3E0010891210AC75740022EFB40C0122EFC3AD
:100F4E00940A5031EF2430FD1211B7E57428F8EDF4
:100F5E00F60574E56BB401028005B4030B8000E561
:100F6E0074B4030D15748009E574B404041574800B
:100F7E00001210AC222222C292C294C296C2A0A229
:100F8E00A282A482A682B05002C32212119EA2A2F5
:100F9E0082A482A682B05002C322D292D294D2965A
:100FAE00D2A0C29230A23D30A43E30A63F30B04017
:100FBE00D292C29430A23D30A43E30A63F30B04013
:100FCE00D294C29630A23D30A43E30A63F30B040FF
:100FDE00D296C2A030A23D30A43E30A63F30B040E3
:100FEE00D2A0C3227F01803C7F0280387F038034F1
:100FFE007F0A80307F04802C7F0580287F06802426
:10100E007F0B80207F07801C7F0880187F0980144B
:10101E007F0D80107F0E800C7F0080087F0C800477
:10102E007F0F8000A2A282A482A682B050F6D3D2F5
:10103E0092D294D296D2A02220150E301604C21649
:10104E00D322755100D215C322C322788012106E9E
:10105E00788912106E788412107A788D12107A2296
:10106E0076300876300876300876002276300876AC
:10107E003008763008763008760022E56BB401062B
:10108E00788012106E22B40206788412107A22B47E
:10109E000306788912106E22788D12107A221211A0
:1010AE00A4C0E07401141207AAD0E0E56BB40013DB
:1010BE00C083C082C0E090035012079DD0E0D08262
:1010CE00D08322B40114C083C082C0E090036112A9
:1010DE00079DD0E0D082D0838042B40214C083C07A
:1010EE0082C0E090037212079DD0E0D082D0838040
:1010FE0042B40314C083C082C0E090038312079DE4
:10110E00D0E0D082D0838014C083C082C0E0900330
:10111E009412079DD0E0D082D0838017C0E0740176
:10112E00141207A8D0E01211B712119474431207CB
:10113E00608027C0E07401141207A8D0E01211B726
:10114E00E612076008E612076008743A120760E6B6
:10115E0012076008E61207608000E56BB402028099
:10116E000DB404028008E57424C012076522E574EC
:10117E00B4020104C394024005E574048002E574D0
:10118E0024C012076522E660061207600880F72267
:10119E0012104650FB22740112076578FF79FFD9B1
:1011AE00FED8FA740C12076522E56BB40103788041
:1011BE0022B40203788422B40303788922788D2224
:1011CE003090FD2230B7FD221211D2020D461210C0
:1011DE0046400122E5885410C0E0C28C75A1800003
:1011EE000075A1017DFA0000DDFC85A23285A333D6
:1011FE00753400753500E533540FF533D0E06002D9
:10120E00D28C753616753710753800753900120187
:10121E008C75A10485A23685A33775380075390003
:10122E0075A1001202807536647537007538007529
:10123E00390012018C75362B7537057538007539E6
:10124E000012028075361475370075380075390036
:10125E001200D3853241853342853443853544228D
:10126E00755E00755F00756000756100E56AB40219
:10127E00028016B4030520040F801BB404028009FB
:10128E00B40505200502800E22755EDC755F0575BE
:10129E00600075610022755E2C755F0175600075CA
:1012AE00610022E56AB40004C220802CB40104D28D
:1012BE00208025B40204C220801EB40304C2208004
:1012CE0017B40404C2208010B40504C2208009B4EF
:1012DE000604C2208002D220101F01221212EE221A
:1012EE00D2EDC0E0C0D0E57904B414027400F579F3
:1012FE00202009E579C39402400B800DE579C39453
:10130E000140028004D2B68002C2B6D0D0D0E02214
:10131E00E56AB4000F755E00755F0075600075615B
:10132E00000214CAB4010F755E00755F007560008F
:10133E007561000214CAB4020F755EDC755F057527
:10134E0060007561000214CAB4030280030214889F
:10135E008545328546338547348548358541368502
:10136E004237854338854439C20112017810012B6A
:10137E00C2218545368546378547388548398541AA
:10138E00328542338543348544351200F685326CFE
:10139E0085336D85346E85356F8011D2211200F63E
:1013AE0085326C85336D85346E85356F856C3285EF
:1013BE006D33856E34856F35753605753700753826
:1013CE000075390012018C85327085337185347247
:1013DE008535733021298570328571338572348558
:1013EE00733575362C753701753800753900120056
:1013FE00D3853270853371853472853573803D7532
:10140E00322C753301753400753500857036857153
:10141E0037857238857339C20112011A30010E7583
:10142E007000757100757200757300800F1200F6F2
:10143E00853270853371853472853573857032854A
:10144E0071338572348573357536DC7537057538AD
:10145E0000753900C20112013620010F85705E85BC
:10146E00715F8572608573610214CA755EDC755F8B
:10147E00057560007561000214CAB4040F755EDC58
:10148E00755F057560007561000214CAB4050F75AD
:10149E005E2C755F017560007561000214CAB4069A
:1014AE000F755E00755F007560007561000214CAED
:0D14BE00755E00755F0075600075610022AD
:00000001FF
